:100000006F00300F13000000130000001300000009
:100010001300000013000000130000001300000094
:100020001300000013000000130000001300000084
:08003000130000007300100032
:100038000000000000000000AA020000AE0200005C
:10004800000000008A080000000000000000000016
:100058008C0800008E08000000000000000000006E
:100068009008000000000000920800000000000056
:100078009408000096080000980800009A080000FC
:100088009C0800009E080000A0080000A2080000CC
:10009800A4080000A6080000A8080000AA0800009C
:1000A800AC080000AE080000B0080000B20800006C
:1000B800B4080000B6080000B8080000BA0800003C
:1000C800BC080000BE080000C0080000C20800000C
:1000D800C4080000C6080000C8080000CA080000DC
:1000E800CC080000CE080000D0080000D2080000AC
:1000F800D4080000D6080000D8080000DA0800007C
:10010800DC080000DE080000E0080000E20800004B
:10011800E4080000E6080000E8080000EA0800001B
:10012800EC080000EE080000F008000000000000E5
:080138000000000000000000BF
:10014000832205006345500085422320570083A287
:10015000050063455000854223A057008322050017
:10016000B2921303000F63C56200FD5223205700B3
:1001700083A20500B6921303000F63C56200FD520F
:1001800023A0570083220500032307009A9223200F
:10019000550083A2050003A307009A9223A05500EF
:1001A0008280397101436EC619A0397141536AC802
:1001B00066CA62CC5ECE19A0397101535AD056D2AC
:1001C00052D44ED64AD826DA22DC06DE330161400C
:1001D000828241114AC026C222C406C68282B24D22
:1001E0004101024D924C224CB24B4101024B924ACA
:1001F000224AB2494101024992442244B24041019B
:1002000082803D432A876373C3029377F700BDEF73
:10021000ADE5937606FF3D8ABA960CC34CC30CC776
:100220004CC74107E36BD7FE11E28280B306C3409F
:100230008A069702000096966780A6002307B700FB
:10024000A306B7002306B700A305B7002305B70030
:10025000A304B7002304B700A303B7002303B70028
:10026000A302B7002302B700A301B7002301B70020
:10027000A300B7002300B700828093F5F50F939693
:100280008500D58D93960501D58D61B7939627008E
:100290009702000096968682E78086FA9680C117BC
:1002A0001D8F3E96E374C3F8A5B77300203001A0FC
:1002B000EFF23FF2AA84371501408565130505C0AA
:1002C00037440040EF00A07B1309048089454A852C
:1002D000EF00F01165DDA68513050480EF00F01036
:1002E0000545EF003022371501408565130505C02F
:1002F000EF00A07709B7EFF2DFED2A8421814D3FAF
:100300001375F40F7537C5BDEFF2BFEC371401401C
:10031000AA8493050040130504C0EF0040762685AB
:10032000413F93050040130504C0EF000074E1B5A0
:10033000EFF23FEA41112A841305A00236C22EC60D
:1003400032C4D9372285453F224632856D371305A1
:10035000B0025D3FB2452E85793F92463685613FBA
:100360001305C0025537410179B5EFF29FE601113F
:100370008545214502C002C202C402C602C802CAA3
:1003800002CC231E0100EF00007D85451165EF00C2
:10039000607E096937140140930709C08D447C8051
:1003A0008A85C147130504C03EC426C2EF00C05C65
:1003B0008A8523102101130504C061494AC426C25D
:1003C000EF00805B91677C808A859147130504C0AC
:1003D0003EC45D23E1778A85130504C07C804AC44E
:1003E00026C2592BB7C704013EC6B70702003EC854
:1003F000B70700028507374400403ECAA1473ECCFC
:100400006C009D4713050480FC86EF00807813057F
:1004100004808545EF00C07B01450561E9BBEFF233
:10042000DFD8B28A368A7D16FD16C2064206C18220
:1004300041823A8BAA8BAE84E53D37150140856534
:10044000130505C037440040EF00606393598B00EB
:100450001304048063E644053715014085651305E0
:1004600005C0EF008060B5BB89452285EF0020788C
:1004700065DDCE852285EF00407789452285EF0036
:10048000007765DD0509DA8522854209EF00E07510
:1004900013590901E36A59FD8504C204C1805DBF97
:1004A0005E89CDBFEFF2FFD2C93513054006EF00DC
:1004B000D00837140140856593850580130504C075
:1004C0006D2313054006EF00500793050020130528
:1004D00004C0612B13054006EF00300645452D355D
:1004E00013058007EF00700513056003313D0145DA
:1004F000C1331305A003093D15455D3B1305200BD2
:100500002135314575333145653301455533130583
:100510003003793B13053003613B1305700BED335A
:100520001305500371331305B00BF93B130520037A
:1005300041331305200CC93B05459D3B1305300C89
:10054000E1335545B5331305400C7D3B13050002DF
:1005500085331305600C4D3B3D45993B1305000D5C
:1005600065331305400AA9331305100A91331305A7
:10057000000E593B1305000D253B2145153B394520
:10058000053B2545353325452533154515331305DD
:100590001003393B13053003213B13058004093B4D
:1005A0005D4539335145293355451933130510033A
:1005B000013313054003ED391305100EB133130554
:1005C000000DFD312145ED313945DD312545CD3178
:1005D0002545F9395545E93913051003D139130576
:1005E0003003F93113058004E1315D45D1315145C6
:1005F000C13155457539130510035D3913054003A5
:10060000453913051002093313059002F539130516
:100610004006EF00807201479306000F1306000F9B
:1006200081450145ED3B0145F9B6EFF29FBA79717D
:10063000094502CE02D002D202D402D69929712DE8
:1006400013054006DD2D71651305052015273704B8
:1006500000208325040837250000130585EFEF00EF
:10066000407C492A8325040837250000130585F0BE
:10067000EF00207B68080D21F245372500001305A7
:1006800085F1EF00007A825537250000130505F348
:10069000EF002079925537250000130545F4EF004F
:1006A0004078A255372500001305C5F5EF006077A7
:1006B000D53BD1473EC6BD473EC8416485473ECA8B
:1006C0003ECC7D142886AC8001471306A500938696
:1006D0008500C2064206C182418291333C08580817
:1006E0000C086800A1462946EFF09FA52886AC803B
:1006F00022871306A50093868500C2064206C182A2
:100700004182313B1545152D75BFB71702409843FF
:10071000B706FFF841111367170098C3D84337068F
:100720000200758FD8C39843B706F7FEFD16758F84
:1007300098C39843B706FCFFFD16758F98C3D8433E
:10074000B70681FFFD16758FD8C337079F0098C77E
:1007500002C402C69843C166558F98C3B7160240BB
:1007600005679C42F18F3EC6A24785073EC4B2474B
:1007700081E7A247E397E7FEB71702409C43139730
:10078000E7006357070685473EC632478547631F24
:10079000F704B7170240D843B706C1FFFD16D8C308
:1007A000D843D8C3D84313670740D8C3D843758FFD
:1007B000D8C3D843B7062900558FD8C39843B70686
:1007C0000001558F98C3984393166700E3DD06FE3A
:1007D000D843B7160240719BD8C3D843136727008C
:1007E000D8C32147DC42B18BE39EE7FE4101828002
:1007F00002C661BFB7160240DC423707002011462F
:10080000B18B130707086385C70021466388C702B9
:10081000B7177A00938707201CC3B7170240DC4341
:10082000918393F6F700B707002093870700B697E8
:1008300094231C43B3D7D7001CC38280DC42D4422C
:100840004166C983BD8BF18E890745466393C70016
:10085000C94781EEB746024083A60680C18A89CE89
:10086000B7167A009386062021A8B7160240D44214
:100870001396E600E35606FEB7163D0093860690F3
:10088000B387D70251BF01A001A001A001A001A020
:1008900001A001A001A001A001A001A001A001A050
:1008A00001A001A001A001A001A001A001A001A040
:1008B00001A001A001A001A001A001A001A001A030
:1008C00001A001A001A001A001A001A001A001A020
:1008D00001A001A001A001A001A001A001A001A010
:1008E00001A001A001A001A001A001A001A001A000
:1008F00001A0970100209381E1F817410020130126
:100900006170171500001305E57097F5FF1F9385BB
:10091000656F1386818163FAC5008322050023A0D9
:10092000550011059105E3EAC5FE13858181938584
:1009300001836377B500232005001105E36DB5FE43
:10094000FD42739002BC8D427390428093028008F6
:1009500073A0023097F2FFFF9382426E93E232005F
:1009600073905230EFF07FDA97020000938222CC2E
:1009700073901234730020309C4513F7070113F86D
:10098000F70001C7D8413368E80037270240145BFD
:100990003707000F758F4DEB8546238CD1803717B5
:1009A00001406315E5009A2135839AA18E2113F742
:1009B000F50F39C318418146854E3D4F930F800294
:1009C00093028004214E3396DE00B3F8C500631114
:1009D00016039398260033131F011343F3FF337755
:1009E000E300B318180133E7E8006397F70750C92D
:1009F0008506E39AC6FD18C11307F00F6375B704A7
:100A000054412146854E3D4F930F8002930280044E
:100A1000414EB398CE0033F715016392E8021317E5
:100A2000260001173313EF001343F3FFB376D3000F
:100A30003317E800D98E6395F703232A15010506BD
:100A4000E319C6FD54C1828037170140E310E5F673
:100A500003C7818121DF81BFE39C57F810C949BFDB
:100A6000E39F57FC23281501D9BFB7170140631630
:100A7000F50083C7818191C3B5810CC98280B71706
:100A800001406316F50083C7818191C3B5814CC9CC
:100A9000828023AEA1808280371702405C4391465A
:100AA000B18B6385D700A1466382D706B7177A005A
:100AB000938707201CC1371602405C42370700208D
:100AC000130707019183BD8BBA9794231C41B3D7B9
:100AD000D7005CC15442A1829D8ABA969422B3D6B3
:100AE000D70014C55442AD829D8A36971823B3D7D8
:100AF000E7005CC5584239839376370013874180FD
:100B000036971823B3D7E7021CC982805C43584349
:100B1000C166C983BD8B758F8907C5466393D700AE
:100B2000C94701EF3747024003270780418B09CFB0
:100B300037177A001307072021A8371702405843B8
:100B40009316E700E3D606FE37173D00130707901C
:100B5000B387E70285B799C5371702401C4F5D8DF3
:100B600008CF8280B7170240984F1345F5FF798D63
:100B700088CF828099C5371702405C4F5D8D48CF82
:100B80008280B7170240D84F1345F5FF798DC8CF43
:100B900082801A218D6793870704B6217D8F9E215D
:100BA000D58FD621D58FF621D58F9625D58FB62511
:100BB000D58FD625D58FF625D58FD98F1EA15A2D45
:100BC000FD779387F77FF98F5EAD9E291EA98280FE
:100BD0001E2189C593E707041EA18280C207C18335
:100BE00093F7F7FBC207C183C5BF4EA582800A25D4
:100BF0006D8D3335A0008280EFF2AFDD1629F577D9
:100C0000FD17F58FF621DA257971D58F1EA95625A6
:100C1000FD779387379FF58FD6212A842EC6D58FEF
:100C20009625D58FB625D58F5EA55E29C207C183CF
:100C300093F7F7CFD98F5EA96808B93DB747014050
:100C400093870780B245631AF404A2575624654778
:100C5000B387E702C206C186984163D2060406073D
:100C600052244206B3D7E702130740064186B3D6A3
:100C7000E702B3F7E7029206635506028E079387F1
:100C80002703B3D7E70213F77700B367D700C2078C
:100C9000C1831EA445616FF00FD6925745BF0A0766
:100CA000C1B7920793872703B3D7E702BD8BD58FD0
:100CB000F9BF91C55E250967D98F5EA582805A2547
:100CC000F977FD17F98FD5BF93F5F51F4EA18280F7
:100CD0000A216D8D3335A0008280B707002083A7DD
:100CE000070837177A0013070720B3D7E70293F7EF
:100CF000F70F2381F1821307803EB387E702239029
:100D0000F1828280B7F700E0D8438146799BD8C34F
:100D100003C721823306A70290CBD4CB9843136735
:100D2000070198C398431367170298C3D843058BEC
:100D300075DF9843799B98C38280B7F700E0D8436A
:100D40008146799BD8C303D701823306A70290CB93
:100D5000D4CB98431367070198C3984313671702CE
:100D600098C3D843058B75DF9843799B98C38280DD
:100D7000EFF22FC62A841165011185451105E13B6B
:100D8000930700207C82371501408D473EC44C00FC
:100D9000E147130505803EC6C53622C837440140E9
:100DA000B70708000C08130504803ECC02CA231EB6
:100DB00001009935854513050480E53D05616FF017
:100DC0008FC3EFF26FBFB7440140AE89328901444F
:100DD00093840480634524014A856FF02FC19305F5
:100DE00000042685F53565DDB38789008385070016
:100DF00026850504C205C181C13DE9BF13878180F5
:100E00001C43938601833E95636BD500B756002043
:100E10009386068063E5A60008C33E858280FD5761
:100E2000EDBF39713EDA2ED232D436D63AD842DC12
:100E300046DE9387C18022CC804326CA06CEAA8490
:100E400009C41C4C99E32285F9200C4454102686D1
:100E5000228536C6A526F2406244D24421618280B2
:100E6000411122C406C62A844EA572A5232005007E
:100E7000232205002324050023220506232805003C
:100E8000232A0500232C0500214681451305C505AD
:100E9000EFF02FB797170000938767985CD09717EC
:100EA00000009387879A1CD4971700009387679E4A
:100EB0005CD4971700009387C7A000D01CD8B2401D
:100EC00022444101828097150000938505D4A9A290
:100ED000411126C2130680069384F5FFB384C40231
:100EE0004AC02E8922C406C693854407592A2A84FB
:100EF00001CD2320050023222501310508C41386D6
:100F000084068145EFF0EFAF2285B240224492443F
:100F10000249410182801C4DADE3411106C622C445
:100F200097070000938767FA1CD5938701819C433C
:100F30002324050423260504232805046314F5004F
:100F400085471CCD2A841D2848C02285052808C451
:100F500022852D2048C44840014691451137084458
:100F60000546A545F53D48440946C945D53D854753
:100F70001CCCB2402244410182808280411193877F
:100F8000018126C284434AC006C69C4C22C42A89D9
:100F900099E326854937938484048044DC40FD1717
:100FA00063D607009C40B9CF8440C5BF0317C40077
:100FB00039E7C17785072322040623200400232272
:100FC0000400232404005CC423280400232A040012
:100FD000232C0400214681451305C405EFF06FA2C0
:100FE000232A0402232C04022324040423260404B9
:100FF0002285B24022449244024941018280130476
:10100000840671BF91454A85E13588C051FDB147DD
:101010002320F9000144E9BF797122D44AD052CC8F
:1010200056CA5AC85EC606D626D24ECE2A8AAE8A7E
:10103000130485040149054BFD5B09ECB2502254B1
:101040004A8592540259F249624AD24A424BB24B03
:1010500045618280044483294400FD1963D409005A
:101060000040E1BFDE24637BFB008397E4006387DD
:101070007701A6855285829A3369A90093848406F4
:10108000E9BF011126CA93843500F19806CE22CC1F
:101090004AC84EC6A104B14763F3F404B14463E205
:1010A000B4042A89EF00304F9387418298433A84F1
:1010B00039E0938781829C4391E781454A850D2FD2
:1010C00023A4A182A6854A852527FD5963193507E2
:1010D000B1472320F9004A85EF00104C29A0E3D046
:1010E00004FCB1471CC10145F2406244D24442496C
:1010F000B249056182801C40858F63CF0702AD46EF
:1011000063F6F6001CC03E9404C031A05C4063133B
:10111000870223A2F1824A85EF0010481305B4002C
:101120009307440061993307F5405DDF3A94898F56
:101130001CC05DBF5CC3C5B72287404095BF130488
:1011400035007198E30285FCB305A4404A854D251E
:10115000E31C35FBB5BF1C46FD171CC663D9070051
:10116000184E63C5E700A9476393F500A1AF1C4281
:101170002E851387170018C28CA38280011122CC00
:1011800026CA4AC84EC652C406CE2A89AE893284BF
:10119000B304D6007D5A63149400014501A80C20C5
:1011A0004E864A854D3F0504E31745FFF2406244F1
:1011B000D2444249B249224A05618280357122CD2A
:1011C00026CB4AC94EC706CF52C556C35AC1DEDE2A
:1011D000E2DCE6DAAA89AE843289368401C51C4D88
:1011E00091E3153B97170000938707DB6398F40C96
:1011F00083A44900DE24A18BE5C79C48F5C393076F
:101200000002A304F1029307000302D22305F102B6
:1012100022C6930B5002971A0000938AEADB054C12
:10122000294B4A841C2099C3639E770DB30C24413B
:10123000638D0C00E6864A86A6854E858137FD576C
:101240006301F51E9256E69636D21C20638B071C6E
:10125000FD571309140002C802CE3ECA02CCA309EE
:10126000010482D48345090015465685EF003031CC
:1012700013041900C24749E913F7070109C7130707
:101280000002A309E10413F7870009C71307B0029E
:10129000A309E104834609001307A002638EE60652
:1012A000F2474A8481462546182093051400130707
:1012B00007FD6376E60AADCA3ECEBDA097170000D3
:1012C000938787CF6395F40083A4890025B7971788
:1012D0000000938767CAE39FF4F083A4C90019BF95
:1012E000A6854E85F12501DD7D55FA406A44DA4434
:1012F0004A49BA492A4A9A4A0A4BF65B665CD65C66
:101300000D618280050439BF330555413315AC00AA
:10131000C98F3EC82289B9B73247930647001843A0
:1013200036C6634707023ACE18209307E002631DD2
:10133000F70418309307A002631BF702B2470904B1
:10134000138747009C433AC663C107023ECA2DA8D3
:101350003307E04093E727003ACE3EC8F1B7B387A2
:10136000670385462E84BA9781B7FD57C5B7050434
:1013700002CA8146814725461820930514001307A9
:1013800007FD6376E606F9F20C200D4617150000FE
:10139000130505C5EF00B01E11CD97170000938708
:1013A00027C41D8D93070004B397A7004245050489
:1013B0005D8D2AC80C20194617150000130585C23B
:1013C000130914002304B102EF00701B35C197F715
:1013D000FFFF938727C395E74247B247137707106C
:1013E00009CF91073EC69257D2973ED21DBDB38713
:1013F000670385462E84BA9741B79D07E19BA107F5
:10140000D5B7780097060000938686D726860C0805
:101410004E8597000000E7000000FD572A8AE3147C
:10142000F5FCDE2493F70704E39007EC125575BD35
:101430007800970600009386A6D426860C084E8571
:10144000012AE1BF797156CA9C49BA8A984522D4CB
:1014500026D24ECE52CC06D64AD05AC85EC6AA89EB
:101460002E84B284368A63D3E700BA879CC00347D0
:10147000340419C385079CC01C4093F7070281C739
:101480009C4089079CC00329040013796900631AF2
:101490000900130B9401FD5B5C449840998F634CE9
:1014A000F9041C408346340493F70702B336D00096
:1014B000A5EB13063404D2854E85829AFD5763034B
:1014C000F5041C4011469840998B5444814463971D
:1014D000C700B384E64063D3040081441C44184829
:1014E0006354F700998FBE94014969047D5B63984A
:1014F0002405014509A885465A86D2854E85829ADB
:10150000631E75017D55B250225492540259F2491E
:10151000624AD24A424BB24B456182800509ADBF57
:101520003307D40013060003A301C7040347540480
:1015300093871600A2978906A381E7049DBF85467D
:101540002286D2854E85829AE30E65FB050945B752
:10155000797122D426D24AD04ECE06D652CC56CA63
:101560005AC8B689942D930790063289AA842E848E
:1015700013863504638DF60263E2D7069307800570
:101580006385F61863EDD700638D0620930730045A
:10159000638EF60A930A24042301D404C9A0930796
:1015A00030066385F60A93074006E395F6FE1C4075
:1015B000084393F6070893054500C5C61C410CC3B4
:1015C00063D807001307D002B307F040A301E40477
:1015D00097160000938686A1294765A89307000700
:1015E0006381F61663E5D7029307E0066388F61871
:1015F0009307F006E390F6FA0C401C4313F8050835
:10160000138547006307080608C39C4385A8930712
:101610005007E383F6FE930780076388F61293076B
:101620003007E399F6F61C43D04181459386470085
:1016300014C383AA07005685992701C53305554170
:1016400048C05C401CC8A301040461A81C43930A61
:101650002404938647009C4314C32301F404854764
:10166000D5B793F607041C410CC3B9DAC207C1878A
:1016700081BF93F5050408C3C9D99E231307F0065B
:101680006386E60E97160000938646962947A301C7
:1016900004044C400CC463C5050008406D9908C0A3
:1016A00099E3B28A89CDB28AB3F5E702FD1AB695FD
:1016B0008C212380BA00B3D5E70263FFE70AA14774
:1016C000631EF7001C40858B91CB58401C4863C7B4
:1016D000E70093070003A38FFAFEFD1A3306564175
:1016E00010C84E87CA867000A2852685A13B7D5A08
:1016F000631D450B7D55B250225492540259F24954
:10170000624AD24A424B45618280A382D504971631
:1017100000009386A68D0C40084313F805081C4171
:101720001105630D080208C313F7150001C793E5FF
:1017300005020CC04147A1FF0C4093F5F5FD0CC01C
:10174000B9B79C4193E707029CC193078007A302A6
:10175000F404971600009386A68A75BF13F8050453
:1017600008C3E30308FCC207C1837DBF97160000CE
:101770009386C687214721BFAE873DB794411C435E
:10178000CC4913F80608138547006306080008C310
:101790009C438CC339A008C393F606049C43F5DA36
:1017A0008EA323280400B28A2DBF14485686CA850A
:1017B00026858299E30045F51C40898B8DE7B24769
:1017C0004844E35AF5F23E853DB785465686CA85BC
:1017D00026858299E30065F3050A5C443247998FB8
:1017E000E345FAFEE9BF014A930A94017D5BF5B730
:1017F000411122C42A842E8523A6018206C6EFF059
:10180000EFDFFD576317F5009387C1829C4391C3B7
:101810001CC0B240224441018280411122C42E8466
:101820008395E50006C6212D634905007C48AA97EB
:101830007CC8B2402244410182805E247D777D17BE
:10184000F98F5EA4FDB7DE25011122CC26CA4AC855
:101850004EC606CE93F70710AA842E843289B68925
:1018600091C78395E5008946014609215E247D776D
:101870007D17F98F5EA48315E4006244F240CE86A2
:101880004A86B24942492685D2440561DDA8411104
:1018900022C42E848395E50006C6C92EFD575A241E
:1018A000631AF500FD77FD17F98F5EA4B24022445C
:1018B000410182808567D98F5EA468C8C5BF8395C2
:1018C000E500F5A2011122CC26CA4AC806CE4EC6B2
:1018D000AA842E89328409C51C4D99E3EFF0AFE349
:1018E000970700009387476B6317F406C0401C4CB2
:1018F0001CC45E24A18BC1C31C48B5CF1C48084042
:101900009379F90F1379F90F1D8D5C486346F50043
:10191000A2852685CD2C25E51C440505FD171CC494
:101920001C401387170018C0238037015C48638868
:10193000A7005E24858B81CBA9476316F900A28599
:101940002685D1240DEDF24062444A85D2444249B5
:10195000B24905618280970700009387E7656314A9
:10196000F400804469B7970700009387E760E310AD
:10197000F4F8C044ADBFA28526851D2841D17D590C
:10198000D9B7411122C42A842E85B285368623A672
:10199000018206C6EFF0EFC2FD576317F50093878B
:1019A000C1829C4391C31CC0B24022444101828049
:1019B00041119387C18026C2844322C44AC006C60F
:1019C0002A892E8491C49C4C81E72685EFF0AFD400
:1019D000970700009387475C631BF402C04003171E
:1019E000C40093170701C18393F68700ADEA93F60D
:1019F000070195EEA5472320F900136707045AA4B1
:101A00007D55B240224492440249410182809707A9
:101A100000009387675A6314F4008044C9B797079E
:101A2000000093876755E31CF4FAC0444DBF918BC7
:101A30009DC34C5889C9930744046384F5004A85C3
:101A4000A92E232A04025E242322040093F7B7FD63
:101A50005EA41C481CC05E2493E787005EA41C485B
:101A600099EB5E241307002093F707286385E700AE
:101A7000A2854A85AD2C5E2413F717001DC35C4870
:101A800023240400B307F0401CCC1C480145B5FBDF
:101A90008317C40013F707082DD793E707045EA444
:101AA00085B7898B014791E3584818C4F9BF4111A4
:101AB00022C42A842E8523A6018206C60121FD5751
:101AC0006317F5009387C1829C4391C31CC0B24049
:101AD000224441018280DE25011122CC26CA06CE95
:101AE0004AC84EC613F78700AA842E8479EBD841E2
:101AF000634DE000B841634AE0000145F2406244B2
:101B0000D2444249B2490561828058547DD703A925
:101B100004009396370123A0040063DB0606704897
:101B20005E24918B99C75C401D8E5C5899C33C40E4
:101B30001D8E5C540C50814626858297FD575A2491
:101B4000631DF5009440F54763E8D706B7074020CA
:101B50008507B3D7D700858BA5C31C482322040073
:101B60001CC09317370163D80700FD576314F500B5
:101B70009C4091E368C84C5823A02401BDDD930725
:101B800044046384F5002685092C232A0402B5B792
:101B90000C500146854626850297FD572A86E3119B
:101BA000F5F89C40B5DF75476385E70059476393B7
:101BB000E70423A0240191B7136707045AA47D55B5
:101BC00035BF83A90501E38A09F203A905008D8BBE
:101BD00023A0350133093941014791E3D84918C49D
:101BE000E35D20F11C540C50CA864E8626858297F0
:101BF0006347A0005E2493E707045EA4C9B7AA99CF
:101C00003309A940F1BF9C49A5C3011122CC06CEDE
:101C10002A8419C51C4D89E72EC6EFF0CFAFB24517
:101C20009707000093874737639BF5004C408397E5
:101C3000C50095C722856244F240056169BD9707DA
:101C40000000938767376394F5000C44CDB797077E
:101C5000000093876732E39CF5FC4C44C9BFF24017
:101C6000624401450561828001458280411122C4A0
:101C70002A842E85B285368623A6018206C68D2447
:101C8000FD576317F5009387C1829C4391C31CC025
:101C9000B2402244410182801971A6DAAE84839554
:101CA000E500A2DC86DE328463DB0500DE2423A0AF
:101CB000060093F707089DE39307004015A030083E
:101CC00036C66522B246E34305FE7247BD67F98F0B
:101CD0007977BA9793B717009CC2F9BF93070004AE
:101CE0001CC0F6506654D654014509618280DE2539
:101CF000011122CC06CE26CA4AC8898B2E8489CFF0
:101D0000930774041CC01CC885475CC8F240624439
:101D1000D24442490561828074003000AA84AD3FFC
:101D2000A2452A892685EFF0CFB519E98317C400AB
:101D300013F7072061FFF19B93E727005EA4C9B763
:101D400097F7FFFF938767189CD45E2408C008C8E4
:101D500093E707085EA4A2475CC8B24799CB8315F6
:101D6000E4002685052A11C55E24F19B93E7170040
:101D70005EA45E243369F9002316240141BF93F564
:101D8000F50F2A966314C500014582801C21E38E5D
:101D9000B7FE0505C5BF82808280CDC183A7C5FF80
:101DA000411122C406C626C21384C5FF63D30700AF
:101DB0003E94AA84CD37938741829C4399EB23229A
:101DC000040023A281822244B2402685924441012C
:101DD000E1B7637EF40014403307D4006396E70054
:101DE0009843DC43369718C05CC0E1BFBA87D8433C
:101DF00019C3E37DE4FE94433386D700631F860056
:101E00001040B29694C33386D700E31EC7FA10433E
:101E10005843B29694C3D8C37DB76375C400B14725
:101E20009CC055B71040B306C4006316D7001443D6
:101E30005843B29614C058C0C0C371B782804111D4
:101E400022C42A842E85B285368623A6018206C640
:101E50007128FD576317F5009387C1829C4391C396
:101E60001CC0B240224441018280411122C42A8414
:101E70002E85B28523A6018206C6B920FD576317B9
:101E8000F5009387C1829C4391C31CC0B240224499
:101E900041018280411122C42A842E8523A6018219
:101EA00006C60D28FD576317F5009387C1829C4332
:101EB00091C31CC0B2402244410182809307800537
:101EC00023A6F1827D5582809307800523A6F182A7
:101ED0007D5582809307800523A6F182014582808B
:101EE0009307800523A6F1827D55828093078005A4
:101EF00023A6F1827D55828053797374656D436C9E
:101F00006B3A256C640D0A0053797374656D436CEC
:101F10006B3A25640D0A0000535953434C4B5F46FE
:101F200072657175656E63792D25640D0A00000078
:101F300048434C4B5F4672657175656E63792D251C
:101F4000640D0A0050434C4B315F467265717565F4
:101F50006E63792D25640D0A0000000050434C4B40
:101F6000325F4672657175656E63792D25640D0A61
:101F70000000000000000000000000000000000061
:101F80000000000000000000000000000000000051
:101F90000000000000000000000000000000000041
:101FA0000000000000000000000000000000000031
:101FB0000000000000000000000000000000000021
:101FC0000000000000000000000000000000000011
:101FD00000000000232D302B20000000686C4C0016
:101FE0006566674546470000303132333435363751
:101FF0003839414243444546000000003031323315
:102000003435363738396162636465660000000034
:102010000000000000000000010203040607080998
:10202000000000000102030401020304060708097E
:1020300000000000941F0000B41F0000741F000087
:102040000000000000000000000000000000000090
:102050000000000000000000000000000000000080
:102060000000000000000000000000000000000070
:102070000000000000000000000000000000000060
:102080000000000000000000000000000000000050
:1020900000D8B80502040608B00000202000002087
:0820A0002000002000000000F8
:00000001FF
