:100000006F20D02713000000130000001300000031
:100010001300000013000000130000001300000094
:100020001300000013000000130000001300000084
:08003000130000007300100032
:100038000000000000000000282200002C22000020
:1000480000000000142A000000000000000000006A
:10005800162A0000182A0000000000000000000016
:100068001A2A0000000000001C2A000000000000FE
:100078001E2A0000202A0000222A0000242A00004C
:10008800262A0000282A00002A2A00002C2A00001C
:100098002E2A0000302A0000322A0000342A0000EC
:1000A800362A0000382A00003A2A00003C2A0000BC
:1000B8003E2A0000402A0000422A0000442A00008C
:1000C800462A0000482A00004A2A00004C2A00005C
:1000D8004E2A0000502A0000522A0000542A00002C
:1000E800562A0000B80200005A2A00005C2A0000C4
:1000F8005E2A0000602A0000622A0000642A0000CC
:10010800662A0000682A00006A2A00006C2A00009B
:100118006E2A0000702A0000722A0000742A00006B
:10012800762A0000782A00007A2A000000000000E1
:080138000000000000000000BF
:10014000397101436EC619A0397141536AC866CA34
:1001500062CC5ECE19A0397101535AD056D252D416
:100160004ED64AD826DA22DC06DE3301614082828E
:1001700041114AC026C222C406C68282B24D410144
:10018000024D924C224CB24B4101024B924A224A00
:10019000B2494101024992442244B2404101828065
:1001A0003D432A876373C3029377F700BDEFADE544
:1001B000937606FF3D8ABA960CC34CC30CC74CC756
:1001C0004107E36BD7FE11E28280B306C3408A0683
:1001D0009702000096966780A6002307B700A30643
:1001E000B7002306B700A305B7002305B700A30493
:1001F000B7002304B700A303B7002303B700A3028B
:10020000B7002302B700A301B7002301B700A30082
:10021000B7002300B700828093F5F50F9396850011
:10022000D58D93960501D58D61B7939627009702DA
:10023000000096968682E78086FA9680C1171D8F09
:100240003E96E374C3F8A5B7EFF29FF20111AA84BA
:100250002E840945854502CA02CC231E010002C630
:1002600002C8EF20B037E082370400404C08130585
:100270000440E484231D0100231B0100EF20503EB5
:100280000546854513050440EF20B0459307D0127D
:100290007C8689475C87680085473EC8EF207018D8
:1002A000854513050440EF205042B7E700E0096799
:1002B00023A2E7100561F9BD411122C637040040B1
:1002C000854513050440EF20F04251CD85451305C7
:1002D0000440EF20B0439386411E9022894763F487
:1002E000C70890328D45DC326313B6041307A010A3
:1002F0003387E702938701CB8146BA9703C807008B
:100300006303D80688273E86014709A8834516025D
:1003100005071377F70F8505A300B6020506E31757
:10032000E5FE850693F6F60F93872704D1BFA54512
:10033000631BB6021305A010B387A702938501CBF8
:1003400003C366001387411E8146138501CB094E06
:100350008D4E130FA010AE9783C52702850523810C
:10036000B7026316D30032444101730020307C335E
:100370006374FE041C276391D7055C278145B3870E
:10038000E703AA9783C207006388B20283CF87007E
:100390003E88014609A88348180205061376F60F21
:1003A0008508A30018030508E397CFFE850593F59C
:1003B000F50F93872704C9BF850693F6F60F190733
:1003C0004DB75821A1466305D700FC256395D7009A
:1003D000A1471CA282809D466304D7006394D70086
:1003E0009D47C5BF8D466304D7006394D7008D47F2
:1003F000CDB7A5466304D7006394D700A547D1BF06
:10040000FD57C1BFEFF2DFD33745000001111305DF
:1004100005581384411EEF2090718144938AC1C90D
:10042000374B0000930B140013054006EF201043D8
:10043000850493F4F40F214533159500EF20104205
:100440000145EF10007B01498149930C3400194D9F
:10045000130C40066685EF10C07E19E5850993F9F7
:10046000F90F636A3D110149050942090545135910
:100470000901EF20B03EE31F89FD9547E3F697FAA7
:10048000D94521A8374500001305055AEF20F0583B
:100490009547E3FB97F8930550042E850561F9B95C
:1004A000374C00001305CC5AEF2070681545230126
:1004B0002401EF20B03A374500001305055BEF201B
:1004C000D05548209385C1899306E1011306004069
:1004D000EF107027AA85938DC18935E503CD5D00A6
:1004E0000149BC876365F9041385CC56EF2030645D
:1004F0005E869385C1895685E9350C303745000005
:100500001305055CEF207051374500001305055DAC
:10051000EF20B0504820EA85EF101032AA8521E183
:100520002AC61305CC5AEF209060B245BDB7B387F9
:100530002D018C23050913058B584209EF20F04D3E
:100540001359090179BF374500001305055AEF20FB
:10055000D04C9547E3FA97EC930570043DBF3745BF
:1005600000001305055AEF20504B9547E3FE97EA2C
:100570009305B00F1DB7374500001305C55DEF208B
:10058000D0499385C1C913054400EF10F017AA851F
:10059000E31A05EE0149C949B3872A018C231305E3
:1005A0008B580509EF207047E31839FFB74C00005E
:1005B0001385CC56EF20B057374500001305055979
:1005C000EF20B04548208945094923012401EF1057
:1005D0007023AA85E30605EC374500001305055A8C
:1005E000EF20B0439547E3F197E49305600475B5B8
:1005F000EFF29FB5130AA010330A4503938901CB8C
:100600002A8CAE8A814401441389C189894B338B7A
:1006100049018347390003472900A207BA97635C61
:10062000F41AB3078900983363127703DC23114768
:10063000637BF7002300EB00B30789009C233E9403
:1006400042044180F9B72300FB00FDB79146E31750
:10065000D7FE6382E418D4330D476390E616F8237F
:10066000854663EDE612F83363EAEB12631DD70AA1
:1006700093072004B387F402D297CE97B8A381469C
:100680000146A6855685EF10702CB30789009C2380
:1006900093081002130750083E9493072004B38771
:1006A000F402034329004204418081460145114E72
:1006B000954E33881403D297CE973307EC023A98BD
:1006C0003307890010336308C60B6376640A0C2372
:1006D0002E94420441806318D60950332C23034FD3
:1006E0004700220693F2F5007A96E2054206E1857C
:1006F000834F3700418263D305047823338FA700EB
:10070000B305A800230FEF009827A1058605CE9515
:1007100005070505A3045F00A306FF01B2A198A782
:100720001375F50F71BFE31277F793072004B387B2
:10073000F402D297CE972381770191B73387D70000
:10074000A3035702A305F7033307D80041070607A1
:100750004E9712AB03C76702850693F6F60F05079F
:100760002383E702B1BFE31D16F510277833220675
:10077000518FDAA3B1B78547639EF6009307200433
:10078000B387F402D297CE97B8236315D7007D576D
:100790002380E704850493F4F40FA5BD9307200498
:1007A000B387F4027D57D297CE97B8A3B3078900D9
:1007B0009C233E9442044180F1BF93072004B384FC
:1007C000F4029307A010330CFC02FD57269C93847F
:1007D00001CBE294BCA0014565B283C6C1899547AF
:1007E0006395F6181387C18914338547639FF616FE
:1007F0003423A547639BF616343399476397F6165F
:10080000930620041308A01033080503138601CBB8
:10081000011122CE26CC4ACA4EC852C656C4B3864F
:10082000D5025AC25EC091470143814E014F014E2D
:10083000938801CB1144C2963696835346000148F3
:10084000930F000793040008930200092149C1494E
:10085000130A0002854A63E07704A147631AF30E86
:10086000930720041307A010B387F5023307E502AE
:10087000BA97B385F80083C7050481E785472380CD
:10088000F5047244E2445249C249324AA24A124B28
:10089000824B05618280B306F70094228507C20768
:1008A00093FBC60013FB3600C18393F6060F638DDE
:1008B0008B02638B2B0763950B02639356026301D4
:1008C0000802B386EE033693420313530301630910
:1008D0000E008346C60389E6230E5603A30EC60305
:1008E000DA97C207C18385BF638BF60363EBDF0032
:1008F000E5FAB306F70003C80600611813381800BC
:10090000C5B763899600E39D56FCB306F70083CE16
:100910000600F9B7B306F70003CE0600D1B7B30659
:10092000F70003CF06006DBF638C3601E39A46FBE8
:10093000E30808FAB306F7009422A30FD6024DB7D6
:10094000E30008FAB306F7009422230FD60249BF4A
:1009500093072004B387F5029305A0103305B50271
:10096000AA97C6972380070429BF8280EFF24FFD24
:10097000930AA010B30A5503938701CB41112A8B28
:10098000AE8C014A938901CBD6978423D68B3EC681
:10099000C5C8B247130920048023058C1374F40FD3
:1009A00033092403B3077901CE97DE23B5CF9387AC
:1009B0004A003E994E99B74D0000154DB7470000CB
:1009C000A28513854747EF205005A285CA86138666
:1009D000C1896685050AEF106072137AFA0FAA853D
:1009E00021E91309200433092403014DB74D000008
:1009F0005E994E9929A89387C189EA978C23050DA2
:100A000013858D58420DEF205001135D0D01835762
:100A10004900E362FDFE374500001305C556EF208F
:100A20001011A2855A85553BFD1493F4F40F8DB730
:100A300013850D5AEF20607EE3724DF99304800414
:100A4000268541016FF08FF31307A0103305E502EF
:100A50009387C189B033BC232206938601CB3E968F
:100A60009385C189814709431148254E954E369596
:100A7000854863C4C700014582803387F500034F72
:100A800007001433FA97C207C183639A660058239C
:100A900063F5E80023001501E9BF18A1D9BFE39A67
:100AA00006FD5833E317C7FD3387F5001433E3829F
:100AB00006FDE3D0C7FC034F0700FA97C207C183C6
:100AC000E394D6FF3423139F8601135F8F41E35DC8
:100AD0000FFCBD8A14B53433034F470054B554336B
:100AE0007823A20678AD1825FA9636A9050718A529
:100AF00065BFEFF24FE63745000041111305C549C8
:100B0000EF20F002374500001305854AEF20E07022
:100B10009387411EC8330D3FAA89631A05263745BE
:100B200000001305C55AEF2090009387C189FC236C
:100B30001384411E9384C18995CF37450000130566
:100B4000C54BEF20806DEC2048201386C189EF1043
:100B50000046AA8563180512374A0000982093972B
:100B60000901C18363E7E710374500001305C55647
:100B7000EF20E07B9387C1C9FC279389C1C9A1C33A
:100B8000374500001305054DEF20206983C5E900B6
:100B900048201386C189014AEF106041AA8563137A
:100BA0000510B74A0000982093170A01C18363E239
:100BB000E70E374500001305C556EF20407783C781
:100BC000F900A1C3374500001305454EEF20E0644E
:100BD00083C5F90048201386C189014AEF10203DE2
:100BE000AA856311050EB74A0000982093170A01E1
:100BF000C18363E0E70C374500001305C556EF20BD
:100C0000007383C709019DCF374500001305854F49
:100C1000EF20A06083C5090148201386C18981495E
:100C2000EF10E038AA855DED374A000098209397D1
:100C30000901C18363EFE708374500001305C55676
:100C4000EF20E06E374500001305C550EF20E05C53
:100C5000154AB74A000048201306E1009385C18970
:100C6000EF100059AA89631405100149374A0000A2
:100C700061A8B38734018C2313058A588509EF20B6
:100C8000C059E9BD374500001305055AEF20E0586B
:100C9000D5B5B38744018C2313858A58050AEF2004
:100CA000C05711B7374500001305055AEF20E0562D
:100CB00039B7B38744018C2313858A58050AEF207E
:100CC000C05525B7374500001305055AEF20E054FD
:100CD0000DBFB38734018C2313058A588509EF2093
:100CE000C053A9B7374500001305055AEF20E0525D
:100CF00091BFB38724018C23050913058A58420943
:100D0000EF20A051135909013C87E364F9FE3745F0
:100D100000001305C556EF208061B820914763E6B7
:100D2000E70478A06C20374500001305C551EF207B
:100D3000C04E01498544114A7C2063E6970448204F
:100D4000214693F5F40FEF10404801CDFD1405093D
:100D50001545C2041379F90FEF204030C18063625A
:100D60002A038504C204C180C1BF7CA065BF7D1A6F
:100D7000CE8513850A5A137AFA0FEF20004AE31C36
:100D80000AEC9309E00F4E8541016FF00FC0AA8570
:100D9000374500001305055AEF202048EDB7EFF264
:100DA0008FBB9C214111B3D7A740858B99E71304D2
:100DB000E00F228541016FF04FBD9389411EAA8546
:100DC000AA8403C5490070001389411EEF10C03A80
:100DD0002A8409C9AA85374500001305853DEF20FF
:100DE000C043C1BF1C87858BF9D303C54900414669
:100DF000A685EF10203B2A84294A19CDAA853745BC
:100E000000001305C53EE1BF1C8705041374F40FF1
:100E1000858B85C7E30D44F9034549007000A6851D
:100E2000EF108035AA896DD1AA85374500001305DA
:100E30000540EF20803E4E84ADBFA947E309F4F69C
:100E40001C86858BADF737450000A6851305454107
:100E5000EF20A03C5944B1BFEFF2EFAF9C2141110C
:100E6000B3D7A740858B99E71304E00F2285410192
:100E70006FF0AFB19387411EAA852A89C823114616
:100E80009389411EEF1060342A8409C9AA85374529
:100E9000000013058542EF204038C9BF2945EF20E7
:100EA000E01B2D4A03C549007000CA85EF10C02C15
:100EB000AA8411C9AA85374500001305C543EF2050
:100EC000C035268465B71C8705041374F40FC18BE5
:100ED00085EBE31944FD03C549005146CA85EF106F
:100EE000602C2D4A03C549007000CA85EF10C02848
:100EF0002A8419C9AA85374500001305054561BF35
:100F0000A947E303F4F6C1BF1C87850493F4F40FEB
:100F1000C18B99CFE39844FD1C86858BB1D73745AB
:100F20000000CA8513054546EF20202F55443DBFDC
:100F3000A947E38BF4F2CDB7EFF28FA32E842E8670
:100F4000AA8503C5811EEF10202311E91C3013F779
:100F5000270011E713F547003335A00005056FF0B2
:100F60006FA3EFF26F9E2A893745000041111305E8
:100F700085532E8C328AEF20803B9947B307F902C4
:100F80009389411EA9441384411EDA8AB74B00009D
:100F9000AD07BE999385C1C94E85EF00F076AA854D
:100FA0005DE1B74900008144938CC1C9C94B4E8BA8
:100FB000B3879C008C23138589588504EF20E02596
:100FC000E39874FF9944B3049902B749000013856C
:100FD000C956EF20C035374500001305C554EF2032
:100FE0000035A94BB74C0000A294CC24A834890545
:100FF00093F5F50FEF100001AA853DE1994BB30B76
:101000007903DC24154589072300FC00EF20000547
:10101000374500001305C555EF206031A944A29B58
:10102000668C374D000003C5BB009385C1899306CC
:10103000E10013060040EF001071AA8555ED8144D0
:10104000938BC189A1A0FD1413850B5A93F4F40F5F
:10105000EF20A01CA1F01305500441016FF04F9246
:10106000FD1B13850C5A93FBFB0FEF20001BE39E27
:101070000BF613056004D5B7B3879B008C2385045A
:1010800013058B58C204EF204019C1803C87E3E56B
:10109000F4FE1385C956EF20802952869385C189B5
:1010A0001385C1C983C95B00EFF0AFB183450A0066
:1010B000374500001305055CEF202016374500007A
:1010C00013050557EF20A02699473309F902A944D3
:1010D0004A94374900002834CE85EF00F07535DD9D
:1010E000FD14AA8593F4F40F1305095AEF20E012BA
:1010F000FDF01305900495B7FD1413050D5A93F4F4
:10110000F40FEF208011E39004F2B1B7EFF24F83B8
:10111000130D2004338DA5039305A0103289368C5E
:101120008549094B8D4B3305B5026A95138D01CB6B
:101130002A9D034AED0383441D04834AFD03D28D97
:1011400033844D411374F40F834C1D0463FABA01C8
:10115000338494413334800023018D046FF00F8277
:10116000639F3D016286930530054A85EF10507EEE
:1011700033948D0005E1850D93FDFD0FD1B763908C
:101180006D036286930590034A85EF10707C65D5E8
:101190003394890033449401A3008D04E9BFE39C98
:1011A0007DFD628693057004C5B7EFE27FFCAA86D9
:1011B0001308A0102E85B285130620043388060379
:1011C000938701CB4111138701CB3386C502429629
:1011D000B29703C8C70303C617046300080483C794
:1011E000D703D0865C8689471306A0107C879307B7
:1011F0002004B386C6028548B387F5023388D7003A
:101200003A9803460804631D16019306E100700036
:10121000EF00707141016FE0FFF750868547E9B735
:101220009305F00F0145E317B6FE93878703B69742
:101230000345780234877000B305F700EF0050686B
:10124000D1BFEFE27FF0AA8A3745000013050549B8
:101250002E8AEF20C00D374500001305854AEF1098
:10126000D07BD2855685EFF0AFB82A8B6313051E6D
:10127000374500001305C55AEF20600B9387C189DD
:10128000FC231384C1899DCB374500001305C54B52
:10129000EF10B0786C201386C1895285EF00305171
:1012A000AA8463160510B74900001C2063E6F40EFB
:1012B000374500001305C556EF206007D2855685D7
:1012C000EFF0CFEA9387C1C9FC279384C1C99DCBB6
:1012D000374500001305054DEF103074EC241386DC
:1012E000C1895285EF00B04CAA896315050EB74B32
:1012F00000001C2063E5F90C374500001305C556B6
:10130000EF20E002FC349DCB374500001305454E2D
:10131000EF10B070EC341386C1895285EF0030496C
:10132000AA89631C050CB74B00001C2063ECF90A6A
:10133000374500001305C556EF10707F9C2895CBEC
:10134000374500001305854FEF10306D8C2813864C
:10135000C1895285EF00B045AA8479E13749000080
:101360001C2063E4F40A374500001305C556EF104E
:10137000107C1309A01033892A03938401CB014404
:10138000930B2004054CB389240183C709006361D2
:10139000F40A5A856FE0DFDEB30794008C231385CF
:1013A00089588504EF10706793F4F40FFDBDAA858A
:1013B000374500001305055AEF10306601B7B30733
:1013C00034018C2313858B588509EF10106593F930
:1013D000F90F05B7AA85374500001305055AEF1028
:1013E000D0630DB7B30734018C2313858B5885095F
:1013F000EF10B06293F9F90F0DBFAA8537450000D1
:101400001305055AEF10706115BFB30794008C23C4
:10141000130589588504EF10506093F4F40F89B7D1
:10142000AA85374500001305055AEF10105F91B7E4
:10143000B3077403CA97A697B82363188701A380DC
:1014400007042286D28556858D3305041374F40F64
:101450002DBFAA85374500001305055AEF10F05B34
:101460000DBFEFE2FFCD03C5411E01111384411EE4
:10147000EF0020708547AA846317F51437450000F4
:101480001305C55EEF10B06A04A0A3020400EFE0EC
:101490007FF7AA84631D05101C300D47639FE70288
:1014A0003745000013050560EF103057EF10403B43
:1014B0004C20483079332A8937450000130585616F
:1014C000EF10B05563170902374500001305C55AE0
:1014D000EF10F0658D471CA015A825476393E7081A
:1014E0003745000013050563EF103053EFF06FE050
:1014F000D9B7D944630C990037450000CA85130554
:10150000055AEF10905189471CA0CA8418208947BA
:1015100063F2E7261C300D47034954006394E72229
:10152000930BA010B30B7903138701CB938701CBE7
:1015300081493EC25E973AC05EC43A8C83470C0034
:1015400063FAF92293072004B387F9022247014A7C
:10155000B38AE7001247BA9A1387AB01BA973EC61F
:1015600039AA3745000013058564EF10104B1C3075
:101570002147638EE7001307F00F6385E7021D47DD
:10158000639DE700374500001305456629A03745F0
:10159000000013058565EF1050483745000013051E
:1015A000C5673DB73745000013050567EDB7D94757
:1015B000E30EF5F4AA853745000013058568EF10A2
:1015C000D045894709BF39F1374500001305856AC1
:1015D000EF10F0557D460349540081451385411EA7
:1015E000EFE01FBC1305A0103309A902138501CB3E
:1015F0001306A01081454A95EFE09FBA01BFB38D55
:101600004A0103C72D0283C6ED016367D70633770E
:10161000D702B24703C59D009306E101B385470198
:1016200092471386C189BE952381ED02EF001025F4
:10163000AA8441E1AC871385C189014DEF10602276
:10164000BC876369FD04374500001305C556EF10DC
:10165000104E03C72A0085476310F702B48713862C
:10166000C189CE854A85EFF07FAA83C72A0489C73E
:101670004C204E864A85153E050A137AFA0F83C719
:101680008A00E36EFAF6D9476386F40E850993F96A
:10169000F90F6DB59387C189EA978C23050DB7477C
:1016A000000013858758420DEF103037135D0D0190
:1016B00041BF594D6300A50D1307E002E31EE5FA93
:1016C000374500001305C56BEF10704683C59D00BC
:1016D000482093E50508EF00501803471C00238DB0
:1016E0000D00A54605071377F70FA300EC00E3F5FF
:1016F000E6F87D4681451385411EEFE07FAAEFE0C5
:101700007FD0AA841DE983C59D00482093E5050884
:10171000EF00B014024585471306A0108145A300D1
:101720000C001CA0A3020400EFE09FA74C204A85F8
:10173000EFF03FB1AA848D4701C5E38FA4F3894739
:101740001CA01DBF25476397E7029305A01033092E
:10175000B902138A01CB938901CB4A9A83472A02A3
:101760000347EA0163FBE700814A938DC1897C202E
:1017700063E3FA2205616FE07FA0B3F7E702282058
:101780006909138BC1892301FA021D2128301D2903
:1017900003459A009306E1011386C189B3852901A7
:1017A000EF00D00DAA8469F183450B003745000096
:1017B0001305856CA30EB1000149EF101026B74B3D
:1017C0000000374C0000B74C0000374D0000B74D0B
:1017D00000007C20E37AF9F8130B1900137AFB0F51
:1017E0009305D1015285EFF08FDB5947AA84631529
:1017F000E50419453309A9020547B31767010347F3
:10180000D10193C7F7FF1306A010F98FA30EF100C3
:101810008145B3072401C8279307A0101D0933058C
:10182000F5024E95EFE0DF97194681453305240117
:10183000EFE01F97528971BF13054006EF101002A9
:101840009305D1015285EFF02FE15547AA84631E1D
:10185000E50A9947B307F9020547A297F8B321476C
:10186000B8B7238647019944B30499029385C18987
:101870005285EFF06FECB7470000AA85A294A8A4A8
:101880001385C76DEF10701988341D26A8241D2EEE
:101890003C3099C7370700501C3393F7B70F1CB380
:1018A000B74700001385C76EEF1070289947B3073C
:1018B000F9024A8513868700938597002296A295A0
:1018C0003EC0EFF00FEAAA8482475DE9330BF400D3
:1018D00003478B008D46631CD704CA851385CD6FE3
:1018E0003AC0EF1090138345BB000345CB00EFF0E7
:1018F0005F95AA8402471DFD37450000A303EB0056
:1019000013058572EF10B02235B78346D101054724
:10191000B317670193C7F7FFF58FA30EF10099473F
:10192000B307F902A297FC33E396E7F02DBFCA850F
:1019300013850B73EF10700E83478B002147638B69
:10194000E702636DF7001D476389E7021945330914
:10195000A9028D472299A303F900E9BD2547638EAB
:10196000E7001307F00F13050D76E391E7FEEF1084
:10197000101CE9BF13058C74DDBF13854C75C5BF02
:10198000A2970947F8B3B7470000CA851385C77601
:10199000EF10B00845B59947B387FA028D46A29774
:1019A000F833631AD71094276397E61003CDC70066
:1019B000130CA010014A330C8D03B387890162C058
:1019C0003EC292479C236378FA0E930C2004B30C1A
:1019D0009A03194B82470149338B6A03B38BFC008E
:1019E000CE9B229B55A833872B0183472702742F58
:1019F00063E1D70AB3F7D70203459B002301F7023F
:101A0000452A0345AB007D2A3C3099C73707005073
:101A10001C3393F7B70F1CB3B3872B019305AC01AD
:101A2000E6958837CA959306E1011386C189CE955C
:101A3000EF00C064AA8425ED814739A83387FD00F3
:101A40000C233EC4B747000013858758EF10E07C95
:101A5000A2478507C207C183B887E3E1E7FE3745A0
:101A600000001305C556EF10900C03C72B008547E7
:101A70006311F702B4876E86D2856A85EFF00FE9AD
:101A800083C72B0499C78345BB0052866A85EFF054
:101A9000CFF105091379F90F83C78B00E365F9F4DA
:101AA000D9476389F400050A137AFA0F19BFD94799
:101AB000E311F5FED944850A93FAFA0F4DB93707B9
:101AC00000501C2393F7F70B1CA31C3393F7B70F9D
:101AD0001CB37E3BC207C18393F7F7BFC207C18324
:101AE0007EBB8280EFE2CFE8B707002003A707089C
:101AF000B74795089387074009456300F702B7E7A2
:101B0000B8059387078005456309F700B777DC02BE
:101B1000938707C06315F7000145EF10E01A85456C
:101B20000565EF10E0276FE0EFE6EFE26FE4854731
:101B3000370400506317F50299471CA02945EF10A0
:101B4000804E930790F8230004001CA093078004A4
:101B50005CB4938741201CCC938741245CCC6FE01C
:101B60006FE399471CA02945EF10E04B23000400C8
:101B7000FDB7370700507C23858B85C385477CA341
:101B800054338147858A99CA854709C989476306BD
:101B9000F50018338547058B11C389473E85828040
:101BA000B7070050C83305811345150005898280A9
:101BB000370700503C331375F50793F70708C98FB3
:101BC0003CB3828085476317F500EFE26FDAC53DCD
:101BD0006FE04FDCB707005098231367070498A302
:101BE00098331367470098B3FA3B13670740FABB73
:101BF0008280EFE2EFD72A8401455D3FC9358547F2
:101C000063EC8700370700501C3393E727001CB3B1
:101C100011E82D45EF108044370700501C3393F72F
:101C2000D70F1CB30945EF106043B7070050F823E6
:101C3000058B11C7D833058B19C30547F8A36FE08F
:101C40006FD5370700505C33858B85CBEFE24FD2E1
:101C50001C33858B91E72A84A13708A011E19D37B9
:101C6000B7070050983301451367170098B3FA3B44
:101C700013674700FABB6FE0EFD159458280EFE26E
:101C8000AFCCB7070050A38DB702416A2A8B3289C7
:101C9000238FB70293594500814437040050894B84
:101CA000394CA94AA54C7D1A230C64032303740103
:101CB000130D803E7C20898B91EB7D1D420D0545E7
:101CC000135D0D01EF102036E3160DFE230C040208
:101CD0007C20898B81E71305E00F9DA87C3093F76A
:101CE0000704B5EF7C3093F7F70F13F5F700630A9D
:101CF00085076314550563090906630649017D19C3
:101D0000420913590901FD1493F4F40F5145EF10E2
:101D100080317C20858B91CB1305800CEF10A03097
:101D20001C30858BA9C785477CA0850493F4F40FEC
:101D3000E39C54F71305000221A8638D9901B54770
:101D40006385F9008547E398F9F869D113650502C1
:101D50006FE00FC39D8B0D47E399E7FE45BF01453B
:101D6000C5BF1305E002EDB71305A002D5B759456D
:101D7000C5B7EFE26FBDAA89B284130540062E896C
:101D8000EF10602A99C02390040037040050A14747
:101D9000896A5EBC13860A7181451305000DC5353D
:101DA000631005149147A30DF402230FF4029387E7
:101DB0004124E223138B41246306040E6304090EBD
:101DC0008387070063C20706CE8BC20993D9090136
:101DD000370A0050938A0A7113054006EF10A024B9
:101DE000DE8763733401A287231EFA0281470357FB
:101DF000CA036391E7108345EA035686414541359E
:101E000065E18347EA0393C74700230FFA0283572C
:101E1000CA031D8C4204418091C48357CA039A208F
:101E2000BA979EA055F8BDA8370A0050938A0A7148
:101E3000138B4120FD1913054006EF10C01E83458A
:101E4000BA035686130500091D3D59E98347BA03B5
:101E500093C74700A30DFA0203578A00A28763764F
:101E6000870083578A00C207C1831D8C42044180CA
:101E700081C49A203E979AA0014793160701C18218
:101E80006392D7063E9983578A00C207C18399C7D8
:101E900083578A00B3F7F90091E351FCB70700506C
:101EA000239E070213054006EF10E017B707005006
:101EB000DE3F13050009C207C18391E3414509666E
:101EC000130606719145653B01ED370700505E3FF3
:101ED000C207C18391C71E27C207C18391C35D4555
:101EE0006FE00FAAB306EB009022B306E9000507E6
:101EF00090A261B7834609003307FB008507C2073C
:101F000014A30509C183E5B5EFE28FA6138401820E
:101F1000A14718401CA19387412498C35840AA8424
:101F20004111D8C308211306E1002E89993509E92A
:101F3000834779007A209CA03C8763F3E7005D45E6
:101F400041016FE02FA5EFE20FA113878181B289D4
:101F50001043584393874124411190C3D8C3368618
:101F60002A8A2E8936C6313521E1B246138781810E
:101F700072238E225D4563E9C5020346390083451D
:101F800029009387412422064D8EB28563F3C90050
:101F9000CE85104358438EA290C3D8C39A2236866A
:101FA000CA85FAA35285F13341016FE00F9EEFE23B
:101FB0008F9A9387818203AA070083A9470013841D
:101FC00041244111B28413E9053023204401130652
:101FD000E100A685AA8A2322340123112401513B62
:101FE00019ED9C201306E100232044012322340133
:101FF000A68556857C87231124017EA09D3B410147
:102000006FE0AF98EFE2CF961387018314435843F4
:102010009387412494C3AEA3AE84D8C301468145BF
:10202000893B2A8419E52685EFF09FB81545EF1006
:10203000E00222856FE00F96EFE28F931387818392
:10204000144358439387412494C3AEA3D8C3014695
:102050008145EFF01FD26FE0EF93EFE26F911387AE
:1020600001811443584393874124D8C3CEA394C31A
:1020700001468145EFF0FFCF6FE0CF91EFE24F8F48
:102080002E848C214111328913650509014636C61B
:10209000EFF0FFBEAA84B24605E1B70700509227D1
:1020A000938541204206418292A24A85EF10C00BDF
:1020B0001C2093C747001CA0268541016FE08F8D2F
:1020C000EFE20F8BAA8441112E8413854124B2853F
:1020D000368636C6EF104009B246B70700500146B3
:1020E000D6BF0C2013E50401EFF07FB909E51C20F1
:1020F00093C747001CA041016FE0CF89EFE24F87F3
:102100001387018432881043584323A2C124938744
:102110004124D8C3CEA39A223686C285FAA3EFF013
:102120005FC56FE02F87EFE2AF8413878184328829
:102130001043584323A2C12493874124D8C3CEA37C
:102140003686C285EFF0FFC26FE0CF84EFE24F82A8
:102150001387018503280700584323A2012522067F
:1021600093874124D18ED8C3CEA3B6A3014681451F
:10217000EFF03FC06FE00F82EFD29FFF13878186A1
:10218000B2861043584323A2C124938741244111AE
:10219000D8C3CEA31306E100B685EFF09FBD410181
:1021A0006FD05FFFEFD2DFFC138781851443584364
:1021B00023A2D12493874124D8C3B2A3CEA301463E
:1021C0008145EFF01FBB6FD0FFFCEFD27FFA138782
:1021D00001871443584323A2D12493874124D8C3B1
:1021E000B2A3CEA301468145EFF0BFB86FD09FFAEE
:1021F000EFD27FF6938701869843DC4323A2E12444
:1022000013844124AA89AE8432895CC0EFF07FB682
:1022100011E99C204A86A6852310F9004E857EA0F0
:10222000EFF03FB56FD07FF67300203001A0EFD202
:102230003FF4AA84371501408565130505C037446E
:102240000040EF00701C1309048089454A85EF00A7
:10225000904065DDA68513050480EF00903F05459D
:10226000EF00705C371501408565130505C0EF0070
:1022700070186FD03FF2EFD2BFEF2A842181453F23
:102280001375F40F6D376FD0FFF0EFD27FEE371478
:102290000140AA8493050040130504C0EF00D01646
:1022A0002685713793050040130504C0EF00901494
:1022B0006FD05FEEEFD2DFEB41112A841305A0024D
:1022C00036C22EC632C4D1372285753722463285B2
:1022D0005D371305B002553FB2452E85693F9246E2
:1022E0003685513F1305C0024D3741016FD09FEA3B
:1022F000EFD21FE801118545214502C002C202C488
:1023000002C602C802CA02CC231E0100EF00302B15
:1023100085451165EF00902C09693714014093073A
:1023200009C08D447C808A85C147130504C03EC422
:1023300026C2EF00007D8A8523102101130504C009
:1023400061494AC426C2EF00C07B91677C808A85C0
:102350009147130504C03EC4EF00A07AE1778A8557
:10236000130504C07C804AC426C2EF008079B7C739
:1023700004013EC6B70702003EC8B7070002850742
:10238000374400403ECAA1473ECC6C009D47130530
:102390000480FC86EF007026130504808545EF005D
:1023A000B029014505616FD0FFDEEFD2FFD9B28AB7
:1023B000368A7D16FD16C2064206C18241823A8BDC
:1023C000AA8BAE84C53D371501408565130505C050
:1023D00037440040EF00500393598B0013040480EE
:1023E00063E74405371501408565130505C0EF0017
:1023F00070006FD0FFD889452285EF00D02565DDBC
:10240000CE852285EF00F02489452285EF00B02497
:1024100065DD0509DA8522854209EF00902313590D
:102420000901E36A59FD8504C204C18055BF5E8974
:10243000CDBFEFD2FFD3EFF0BFEB13054006EF00A7
:10244000F04137140140856593850580130504C06C
:10245000EF00407A13054006EF005040930500203E
:10246000130504C0EF00007913054006EF00103F8C
:102470004545EFF09FE113058007EF00303E13055F
:102480006003EFF09FE00145EFF07FDA1305A00352
:10249000EFF0BFDF1545EFF09FD91305200BEFF0EC
:1024A000DFDE3145EFF0BFD83145EFF05FD80145B1
:1024B000EFF0FFD713053003EFF07FD7130530039C
:1024C000EFF0FFD61305700BEFF03FDC1305500360
:1024D000EFF0FFD51305B00BEFF03FDB1305200342
:1024E000EFF0FFD41305200CEFF03FDA0545EFF0D5
:1024F0001FD41305300CEFF05FD95545EFF03FD3F3
:102500001305400CEFF07FD813050002EFF03FD227
:102510001305600CEFF07FD73D45EFF05FD1130559
:10252000000DEFF09FD61305400AEFF05FD01305C2
:10253000100AEFF0DFCF1305000EEFF01FD51305E3
:10254000000DEFF0DFCE2145EFF07FCE3945EFF003
:102550001FCE2545EFF0BFCD2545EFF05FCD1545EA
:10256000EFF0FFCC13051003EFF07FCC1305300321
:10257000EFF0FFCB13058004EFF07FCB5D45EFF06C
:102580001FCB5145EFF0BFCA5545EFF05FCA1305A9
:102590001003EFF0DFC913054003EFF05FC9130527
:1025A000100EEFF09FCE1305000DEFF05FC8214530
:1025B000EFF0FFC73945EFF09FC72545EFF03FC764
:1025C0002545EFF0DFC65545EFF07FC61305100334
:1025D000EFF0FFC513053003EFF07FC5130580044E
:1025E000EFF0FFC45D45EFF09FC45145EFF03FC4ED
:1025F0005545EFF0DFC313051003EFF05FC313057C
:102600004003EFF0DFC213051002EFF01FC81305FF
:102610009002EFF09FC713054006EF0030240147FA
:102620009306000F1306000F81450145EFF0FFD719
:1026300001456FD03FB6EFD23FB10111094502C647
:1026400002C802CA02CC02CED12BEF00301B130508
:102650004006EF00B020716513050520EF007023E0
:10266000370400208325040837450000130545780A
:10267000EF00B03A292683250408374500001305EA
:102680004579EF0090396800A92DB2453745000023
:102690001305457AEF007038C24537450000130531
:1026A000C57BEF009037D245374500001305057D07
:1026B000EF00B036E245374500001305857EEF0098
:1026C000D03583250408896793870771B3D5F50250
:1026D0002545C16A8549054A0149A94413044006B4
:1026E000130BE00B930BD00D130C900CFD1AFD1582
:1026F000C205C181EFD05FB53755000013050580D5
:10270000EF00F0423755000013050581EF0030421D
:10271000EFF04FBD0545EFF04FC17D468145138574
:10272000411EEFD0FFA7370500201306A0108145FA
:1027300013050553EFD0DFA6EFF0BFCF0147930697
:10274000000F1306000F81450145EFF01FC6954CA1
:10275000EFE03FD10545FD1CEF005010E39A0CFE61
:102760001315040141811306250342060147930610
:10277000000F41829305C00DEFF03FC31395040194
:10278000931509014181C1819386250113064501F5
:10279000C20642060147C1824182EFF01FC14C00D0
:1027A0002800D520A24791C37D14924791C3050408
:1027B00063530400014463548B001304E00B63C4AF
:1027C0002B0963592009635D90069307B00D63D50B
:1027D00097007D5A9304C00D63522C0393874401E4
:1027E00063C78700130724036343F700FD5963C7DA
:1027F00084009307240363C39700FD591315040154
:10280000418113062503420656879306000F418235
:102810009305C00DEFF07FB9D2944E991395040142
:10282000931509014181C181938625011306450154
:10283000C20642065687C1824182EFF01FB701BF30
:10284000054A814451BF014913044006054AA94481
:1028500085496DB78549E34A90F6054A8144CDBF65
:102860008280894763D0B7021C21858B23A0F18821
:10287000182193874188098B01C7054798C3828037
:1028800023A00700828083A701881CC183A74188F9
:102890009CC18280B71702409843B706FFF84111E8
:1028A0001367170098C3D84337060200758FD8C343
:1028B0009843B706F7FEFD16758F98C39843B70681
:1028C000FCFFFD16758F98C3D843B70681FFFD1630
:1028D000758FD8C337079F0098C702C402C69843B4
:1028E000C166558F98C3B716024005679C42F18FA9
:1028F0003EC6A24785073EC4B24781E7A247E39799
:10290000E7FEB71702409C431397E700635707069B
:1029100085473EC632478547631FF704B717024015
:10292000D843B706C1FFFD16D8C3D843D8C3D84390
:1029300013670740D8C3D843758FD8C3D843B706A9
:102940002900558FD8C39843B7060001558F98C307
:10295000984393166700E3DD06FED843B71602409E
:10296000719BD8C3D84313672700D8C32147DC42E3
:10297000B18BE39EE7FE4101828002C661BFB716BC
:102980000240DC42370700201146B18B13070708CD
:102990006385C70021466388C702B7177A0093870B
:1029A00007201CC3B7170240DC43918393F6F7005E
:1029B000B707002093870700B69794231C43B3D72B
:1029C000D7001CC38280DC42D4424166C983BD8BE0
:1029D000F18E890745466393C700C94781EEB74624
:1029E000024083A60680C18A89CEB7167A009386F4
:1029F000062021A8B7160240D4421396E600E356FB
:102A000006FEB7163D0093860690B387D70251BFE6
:102A100001A001A001A001A001A001A001A001A0AE
:102A200001A001A001A001A001A001A001A001A09E
:102A300001A001A001A001A001A001A001A001A08E
:102A400001A001A001A001A001A001A001A001A07E
:102A500001A001A001A001A001A001A001A001A06E
:102A600001A001A001A001A001A001A001A001A05E
:102A700001A001A001A001A001A001A097E1FF1FFA
:102A8000938141E0172100201301C1571725000051
:102A9000130545E397D5FF1F9385C5561386018817
:102AA00063FAC5008322050023A055001105910596
:102AB000E3EAC5FE13850188938581286377B50015
:102AC000232005001105E36DB5FEFD42739002BCA5
:102AD0008D42739042809302800873A0023097D297
:102AE000FFFF9382A25593E2320073905230EFF0D1
:102AF0007FDA97020000938242B47390123473001D
:102B000020309C4513F7070113F8F70001C7D8419F
:102B10003368E80037270240145B3707000F758FD2
:102B20004DEB85462384D188371701406315E500B6
:102B30009A2135839AA18E2113F7F50F39C31841D5
:102B40008146854E3D4F930F800293028004214EB3
:102B50003396DE00B3F8C500631116039398260080
:102B600033131F011343F3FF3377E300B318180146
:102B700033E7E8006397F70750C98506E39AC6FD77
:102B800018C11307F00F6375B70454412146854EF1
:102B90003D4F930F800293028004414EB398CE00C4
:102BA00033F715016392E802131726000117331358
:102BB000EF001343F3FFB376D3003317E800D98E49
:102BC0006395F703232A15010506E319C6FD54C1D1
:102BD000828037170140E310E5F603C7818821DFC3
:102BE00081BFE39C57F810C949BFE39F57FC2328D6
:102BF0001501D9BFB71701406316F50083C7818857
:102C000091C3B5810CC98280B71701406316F500E6
:102C100083C7818891C3B5814CC9828023A6A188CE
:102C200082809387C1889443182181E63C219207D2
:102C300021A894430546639FC6023C2110319207A8
:102C40006314D60093E707F8B7E600E093F7F70FB1
:102C5000BA962380F6408546935757003397E6008F
:102C60005441A5C2938707048A07B7E600E0B697E8
:102C700098C382808C4389466391D50214313C21EC
:102C80006365D6008A06B6975DB79386E6038A0623
:102C9000B69793F7F70F920775B790438D46631C6D
:102CA000D60014313C216364D6008606E9BF9386C2
:102CB000C6078606F1BF94439147E39EF6F81C31A0
:102CC000BDB7938707064DB7B7170240D843B7067D
:102CD00040FFFD16758FD8C3D8435A05598DC8C318
:102CE0008280371702405C439146B18B6385D700E1
:102CF000A1466382D706B7177A00938707201CC1C5
:102D0000371602405C423707002013070701918302
:102D1000BD8BBA9794231C41B3D7D7005CC15442F2
:102D2000A1829D8ABA969422B3D6D70014C5544284
:102D3000AD829D8A36971823B3D7E7005CC5584209
:102D40003983937637001387418036971823B3D79A
:102D5000E7021CC982805C435843C166C983BD8BAE
:102D6000758F8907C5466393D700C94701EF374779
:102D7000024003270780418B09CF37177A001307DA
:102D8000072021A83717024058439316E700E3D6DF
:102D900006FE37173D0013070790B387E70285B794
:102DA00099C5371702405C4B5D8D48CB8280B717C1
:102DB0000240D84B1345F5FF798DC8CB828099C569
:102DC000371702401C4F5D8D08CF8280B717024035
:102DD000984F1345F5FF798D88CF828099C53717B5
:102DE00002405C4F5D8D48CF8280B7170240D84FBC
:102DF0001345F5FF798DC8CF82801A218D6793879F
:102E00000704B6217D8F9E21D58FD621D58FF6213F
:102E1000D58F9625D58FB625D58FD625D58FF62576
:102E2000D58FD98F1EA15A2DFD779387F77FF98F04
:102E30005EAD9E291EA982801E2189C593E70704E5
:102E40001EA18280C207C18393F7F7FBC207C1832B
:102E5000C5BF4EA582800A256D8D3335A0008280C6
:102E60001E2137370140130707C0C207C18363041F
:102E7000E502370700406300E50213070740630CD3
:102E8000E50037170040930607806306D500130757
:102E900007C06316E500BA2193F7F7F8D98FFA2136
:102EA00093F7F7CFC207C183D98F1EA1DE215EB58C
:102EB0009E211EB5B7370140938707C06314F50004
:102EC0009C251EB985475EA982801E2189C593E78E
:102ED00017001EA18280C207C183F99BC207C1836C
:102EE000CDBF5E2501C6DD8D4EA5828093C5F5FF61
:102EF000FD8DDDBF1E294A25ED8F4205418189C721
:102F00006D8D3335A00082800145828093C5F5FF29
:102F1000C205C1810EA98280EFD28FA51629F5774F
:102F2000FD17F58FF621DA257971D58F1EA9562563
:102F3000FD779387379FF58FD6212A842EC6D58FAC
:102F40009625D58FB625D58F5EA55E29C207C1838C
:102F500093F7F7CFD98F5EA96808EFF09FD8B747EE
:102F6000014093870780B245631AF404A2575624A0
:102F70006547B387E702C206C186984163D206045B
:102F8000060752244206B3D7E702130740064186DC
:102F9000B3D6E702B3F7E7029206635506028E073F
:102FA00093872703B3D7E70213F77700B367D700F8
:102FB000C207C1831EA445616FD0CF9D925745BF04
:102FC0000A07C1B7920793872703B3D7E702BD8BE0
:102FD000D58FF9BF91C55E250967D98F5EA582801F
:102FE0005A25F977FD17F98FD5BF93F5F51F4EA137
:102FF00082800A216D8D3335A0008280B7070020C2
:1030000083A7070837177A0013070720B3D7E7020B
:1030100093F7F70F2389F1881307803EB387E70200
:103020002398F1888280B7F700E0D8438146799BE6
:10303000D8C303C721893306A70290CBD4CB9843CA
:103040001367070198C398431367170298C3D843BF
:10305000058B75DF9843799B98C38280B7F700E0B2
:10306000D8438146799BD8C303D701893306A70289
:1030700090CBD4CB98431367070198C39843136749
:10308000170298C3D843058B75DF9843799B98C383
:103090008280EFD2EF8D2A841165011185451105DB
:1030A000EFF0FFD1930700207C82371501408D4758
:1030B0003EC44C00E147130505803EC6EFF07FA4F7
:1030C00022C837440140B70708000C0813050480E4
:1030D0003ECC02CA231E0100EFF01FE48545130514
:1030E0000480EFF03FEF05616FD0CF8AEFD2AF865B
:1030F000B7440140AE89328901449384048063451A
:1031000024014A856FD06F88930500042685EFF06F
:103110005FEE7DD9B3878900838507002685050486
:10312000C205C181EFF07FECD9BF138781801C43BA
:10313000938681283E95636BD500B7560020938611
:10314000068063E5A60008C33E858280FD57EDBF7B
:1031500093F5F50F2A966314C500014582801C2162
:10316000E38EB7FE0505C5BFB3C7A5008D8B33073A
:10317000C50081E78D4763EDC700AA87637EE50838
:10318000942185078505A38FD7FEE3EBE7FE8280B8
:1031900093763500AA8789CA942185078505A38F70
:1031A000D7FE93F63700C5BF9376C7FF138606FE9A
:1031B00063F0C70683A3050083A2450083AF8500A3
:1031C00003AFC50083AE050103AE450103A385012E
:1031D00083A8C5019385450223A0770003A8C5FFF6
:1031E00023A2570023A4F70123A6E70123A8D701B0
:1031F00023AAC70123AC670023AE170193874702B8
:1032000023AE07FF75B790419107910523AEC7FE26
:10321000E3EBD7FEE3E6E7F6828039713EDA2ED2A1
:1032200032D436D63AD842DC46DE9387C18022CCEF
:10323000804326CA06CEAA8409C41C4C99E3228581
:10324000FD290C4454102686228536C6EF009013C3
:10325000F2406244D24421618280011126CA4AC8E8
:1032600006CE22CC4EC652C4AA842E8901C51C4D5E
:1032700091E3F1219C4C804499E32685C92197175D
:1032800000009387675C631BF402C0405E24A18B3F
:10329000B1C71C48A1C7FD59294A1C4483450900F0
:1032A000FD17B1E91CC463DD07062286A945268502
:1032B0006920FD576308F502294535A097170000DE
:1032C0009387875A6314F4008044C9B797170000A6
:1032D00093878755E31CF4FAC0444DBFA285268529
:1032E000192A55D97D55F2406244D2444249B24927
:1032F000224A056182801CC4050963D70700184C67
:1033000063CAE700638845011C401387170018C093
:103310008CA361B7228626850D20E31035F9D9B735
:103320001C401387170018C0294798A371B79387CB
:10333000C180AA8588436FF05FF2011122CC26CAB2
:103340004AC806CE4EC6AA842E89328401C51C4DB9
:1033500091E3F526971700009387074F6317F4064C
:10336000C0401C4C1CC45E24A18BC1C31C48B5CFFB
:103370001C4808409379F90F1379F90F1D8D5C48AB
:103380006346F500A2852685692C25E51C440505C4
:10339000FD171CC41C401387170018C02380370179
:1033A0005C486388A7005E24858B81CBA9476316A0
:1033B000F900A2852685B5240DEDF24062444A85C8
:1033C000D2444249B2490561828097170000938731
:1033D000A7496314F400804469B7971700009387E6
:1033E000A744E310F4F8C044ADBFA2852685212090
:1033F00041D17D59D9B741119387C18026C28443F9
:1034000022C44AC006C62A892E8489C49C4C99E3EA
:10341000268535269717000093870743631BF40220
:10342000C0400317C40093170701C18393F68700B8
:10343000ADEA93F6070195EEA5472320F90013673F
:1034400007045AA47D55B2402244924402494101E6
:10345000828097170000938727416314F40080440B
:10346000C9B7971700009387273CE31CF4FAC044C0
:103470004DBF918B9DC34C5889C993074404638405
:10348000F5004A85292B232A04025E242322040006
:1034900093F7B7FD5EA41C481CC05E2493E7870029
:1034A0005EA41C4899EB5E241307002093F70728BD
:1034B0006385E700A2854A8591295E2413F71700EA
:1034C0001DC35C4823240400B307F0401CCC1C48F7
:1034D0000145B5FB8317C40013F707082DD793E701
:1034E00007045EA485B7898B014791E3584818C447
:1034F000F9BFDE25011122CC26CA06CE4AC84EC627
:1035000013F78700AA842E8479EBD841634DE0003D
:10351000B841634AE0000145F2406244D244424966
:10352000B2490561828058547DD703A9040093965F
:10353000370123A0040063DB060670485E24918BEC
:1035400099C75C401D8E5C5899C33C401D8E5C54ED
:103550000C50814626858297FD575A24631DF5003D
:103560009440F54763E8D706B70740208507B3D7EF
:10357000D700858BA5C31C48232204001CC09317C9
:10358000370163D80700FD576314F5009C4091E3B1
:1035900068C84C5823A02401BDDD9307440463840C
:1035A000F5002685ED2E232A0402B5B70C500146FE
:1035B000854626850297FD572A86E311F5F89C403B
:1035C000B5DF75476385E70059476393E70423A098
:1035D000240191B7136707045AA47D5535BF83A909
:1035E0000501E38A09F203A905008D8B23A03501AB
:1035F00033093941014791E3D84918C4E35D20F10B
:103600001C540C50CA864E86268582976347A000BC
:103610005E2493E707045EA4C9B7AA993309A940B9
:10362000F1BF9C49A5C3011122CC06CE2A8411C545
:103630001C4D81E72EC62122B245971700009387C3
:10364000A720639CF5004C408397C5009DC7228549
:103650006244F24005616FF0DFE99717000093873D
:10366000A7206394F5000C44C5B797170000938713
:10367000A71BE39BF5FC4C44C1BFF24062440145EB
:103680000561828001458280411122C406C62A84D8
:103690004EA572A523200500232205002324050042
:1036A0002322050623280500232A0500232C0500D4
:1036B000214681451305C505EFC09FAE9717000051
:1036C000938707B35CD097170000938727B51CD466
:1036D00097170000938707B95CD49717000093876A
:1036E00067BB00D01CD8B2402244410182809705BC
:1036F0000000938545F391AA411126C21306800666
:103700009384F5FFB384C4024AC02E8922C406C63E
:10371000938544070D2E2A8401CD23200500232202
:103720002501310508C4138684068145EFC05FA7D3
:103730002285B240224492440249410182801C4DBC
:10374000A5E7411106C622C497070000938767FAD0
:103750001CD5938781879C432324050423260504D5
:10376000232805046314F50085471CCD2A843528D9
:1037700048C022851D2808C42285052848C4484021
:1037800001469145EFF05FF008440546A545EFF08E
:10379000BFEF48440946C945EFF01FEF85471CCCF1
:1037A000B240224441018280828041119387818707
:1037B00026C284434AC006C69C4C22C42A8981E79B
:1037C0002685EFF0DFF7938484048044DC40FD1706
:1037D00063D607009C40B9CF8440C5BF0317C4001F
:1037E00039E7C1778507232204062320040023221A
:1037F0000400232404005CC423280400232A0400BA
:10380000232C0400214681451305C405EFC05F99B0
:10381000232A0402232C0402232404042326040460
:103820002285B2402244924402494101828013041D
:10383000840671BF91454A85EFF01FEC88C049FDB1
:10384000B1472320F9000144E1BF797122D44AD065
:1038500052CC56CA5AC85EC606D626D24ECE2A8A40
:10386000AE8A130485040149054BFD5B09ECB25097
:1038700022544A8592540259F249624AD24A424B32
:10388000B24B45618280044483294400FD1963D40E
:1038900009000040E1BFDE24637BFB008397E40066
:1038A00063877701A6855285829A3369A90093843C
:1038B0008406E9BF1971A6DAAE848395E500A2DC1F
:1038C00086DE328463DB0500DE2423A0060093F746
:1038D000070885E7930700401DA0300836C6EF00B3
:1038E000F020B246E34205FE7247BD67F98F797753
:1038F000BA9793B717009CC2F1BF930700041CC08E
:10390000F6506654D654014509618280DE250111C6
:1039100022CC06CE26CA4AC8898B2E8489CF93072B
:1039200074041CC01CC885475CC8F2406244D24481
:1039300042490561828074003000AA84EFF09FF74D
:10394000A2452A892685012219E98317C40013F7A5
:10395000072061FFF19B93E727005EA4C9B7970793
:103960000000938707D99CD45E2408C008C893E759
:1039700007085EA4A2475CC8B24781CF8315E40064
:103980002685EF00501911C55E24F19B93E71700BF
:103990005EA45E243369F9002316240179B7DDC1E2
:1039A00083A7C5FF411122C406C626C21384C5FFE2
:1039B00063D307003E94AA84EF00301B93874189AC
:1039C0009C4381EF2322040023AA81882244B24031
:1039D0002685924441016F007019637EF400144003
:1039E0003307D4006396E7009843DC43369718C04A
:1039F0005CC0D9BFBA87D84319C3E37DE4FE9443C2
:103A00003386D700631F86001040B29694C3338676
:103A1000D700E31DC7FA10435843B29694C3D8C3E6
:103A200075B76375C400B1479CC04DB71040B3066D
:103A3000C4006316D70014435843B29614C058C04C
:103A4000C0C369B78280011126CA93843500F198FA
:103A500006CE22CC4AC84EC6A104B14763F3F40493
:103A6000B14463E2B4042A89EF003010938741899E
:103A700098433A8439E0938781899C4391E7814553
:103A80004A85812723ACA188A6854A851D2FFD592B
:103A900063193507B1472320F9004A85EF00100D5F
:103AA00029A0E3D004FCB1471CC10145F2406244A7
:103AB000D2444249B249056182801C40858F63CF60
:103AC0000702AD4663F6F6001CC03E9404C031A068
:103AD0005C406313870223AAF1884A85EF0010092E
:103AE0001305B4009307440061993307F5405DDF87
:103AF0003A94898F1CC05DBF5CC3C5B72287404024
:103B000095BF130435007198E30285FCB305A4400A
:103B10004A85452DE31C35FBB5BF1C46FD171CC669
:103B200063DA0700184E63C5E700A9476394F50000
:103B30006FF0BF801C422E851387170018C28CA31C
:103B40008280011122CC26CA4AC84EC652C406CE73
:103B50002A89AE893284B304D6007D5A6314940056
:103B6000014509A80C204E864A85EFF01FFB05048D
:103B7000E31645FFF2406244D2444249B249224A28
:103B800005618280357122CD26CB4AC94EC706CF4A
:103B900052C556C35AC1DEDEE2DCE6DAAA89AE843B
:103BA0003289368409C51C4D99E3EFF05FB9971748
:103BB0000000938767C96399F40C83A44900DE244D
:103BC000A18BEDC79C48FDC393070002A304F1023B
:103BD0009307000302D22305F10222C6930B500281
:103BE000971A0000938A4ACA054C294B4A841C2024
:103BF00099C36390770FB30C2441638E0C00E68663
:103C00004A86A6854E85EFF0DFF3FD576302F51E69
:103C10009256E69636D21C20638C071CFD5713097A
:103C2000140002C802CE3ECA02CCA309010482D409
:103C30008345090015465685EFF08FD1130419000E
:103C4000C24751E913F7070109C713070002A30987
:103C5000E10413F7870009C71307B002A309E104C1
:103C6000834609001307A002638FE606F2474A84E1
:103C700081462546182093051400130707FD637736
:103C8000E60AB5CA3ECE85A8971700009387C7BD40
:103C90006395F40083A489001DB7971700009387EC
:103CA000A7B8E39EF4F083A4C90011BFA6854E8592
:103CB000EFF06FF411D97D55FA406A44DA444A496D
:103CC000BA492A4A9A4A0A4BF65B665CD65C0D6191
:103CD0008280050429BF330555413315AC00C98FD7
:103CE0003EC82289B1B7324793064700184336C60B
:103CF000634707023ACE18209307E002631DF704DA
:103D000018309307A002631BF702B2470904138718
:103D100047009C433AC663C107023ECA2DA8330739
:103D2000E04093E727003ACE3EC8F1B7B387670378
:103D300085462E84BA973DBFFD57C5B7050402CA14
:103D4000814681472546182093051400130707FD77
:103D50006376E606F9F20C200D46171500001305F0
:103D600025B3EFF0EFBE11CD97170000938747B250
:103D70001D8D93070004B397A700424505045D8D90
:103D80002AC80C201946171500001305A5B0130901
:103D900014002304B102EFF0AFBB35C197C7FFFF9A
:103DA0009387472695E74247B2471377071009CF15
:103DB00091073EC69257D2973ED20DBDB387670397
:103DC00085462E84BA9741B79D07E19BA107D5B7D9
:103DD000780097060000938606D726860C084E8545
:103DE00097000000E7000000FD572A8AE314F5FC65
:103DF000DE2493F70704E39007EC125575BD7800B5
:103E000097060000938626D426860C084E85012A44
:103E1000E1BF797156CA9C49BA8A984522D426D204
:103E20004ECE52CC06D64AD05AC85EC6AA892E8437
:103E3000B284368A63D3E700BA879CC00347340450
:103E400019C385079CC01C4093F7070281C79C409B
:103E500089079CC00329040013796900631A0900CB
:103E6000130B9401FD5B5C449840998F634CF904FB
:103E70001C408346340493F70702B336D000A5EB09
:103E800013063404D2854E85829AFD576303F504E8
:103E90001C4011469840998B544481446397C70055
:103EA000B384E64063D3040081441C44184863543F
:103EB000F700998FBE94014969047D5B63982405DE
:103EC000014509A885465A86D2854E85829A631E89
:103ED00075017D55B250225492540259F249624AFA
:103EE000D24A424BB24B456182800509ADBF3307D0
:103EF000D40013060003A301C704034754049387A7
:103F00001600A2978906A381E7049DBF85462286F5
:103F1000D2854E85829AE30E65FB050945B7797116
:103F200022D426D24AD04ECE06D652CC56CA5AC831
:103F3000B689942D930790063289AA842E8413861D
:103F40003504638DF60263E2D70693078005638725
:103F5000F61863EDD700638F062093073004638F54
:103F6000F60A930A24042301D404D1A0930730064F
:103F70006386F60A93074006E395F6FE1C40084365
:103F800093F6070893054500CDC61C410CC363D8C2
:103F900007001307D002B307F040A301E40497160B
:103FA00000009386A68F29476DA8930700076383B7
:103FB000F61663E5D7029307E006638AF6189307BF
:103FC000F006E390F6FA0C401C4313F8050813853D
:103FD00047006308080608C39C438DA89307500751
:103FE000E383F6FE93078007638AF6129307300790
:103FF000E399F6F61C43D04181459386470014C3EC
:1040000083AA07005685EFF0AF9401C533055541EB
:1040100048C05C401CC8A301040461A81C43930A67
:104020002404938647009C4314C32301F40485476A
:10403000D5B793F607041C410CC3B1DAC207C18798
:10404000B9B793F5050408C3C1D99E231307F00639
:104050006387E60E97160000938646842947A301DE
:1040600004044C400CC463C5050008406D9908C0A9
:1040700099E3B28A89CDB28AB3F5E702FD1AB69503
:104080008C212380BA00B3D5E70263F0E70CA14787
:10409000631EF7001C40858B91CB58401C4863C7BA
:1040A000E70093070003A38FFAFEFD1A330656417B
:1040B00010C84E87CA867000A2852685EFF07FD58E
:1040C0007D5A631D450B7D55B250225492540259BE
:1040D000F249624AD24A424B45618280A382D504AA
:1040E000970600009386867B0C40084313F805086A
:1040F0001C411105630D080208C313F7150001C721
:1041000093E505020CC04147B9FB0C4093F5F5FD62
:104110000CC0B1B79C4193E707029CC1930780078D
:10412000A302F404970600009386867875BF13F8FF
:10413000050408C3E30308FCC207C1837DBF9706DB
:1041400000009386A675214719BFAE8735B7944105
:104150001C43CC4913F80608138547006306080082
:1041600008C39C438CC339A008C393F606049C4340
:10417000F5DA8EA323280400B28A25BF1448568698
:10418000CA8526858299E30045F51C40898B8DE719
:10419000B2474844E35AF5F23E853DB78546568618
:1041A000CA8526858299E30065F3050A5C44324797
:1041B000998FE345FAFEE9BF014A930A94017D5BBA
:1041C000F5B7411122C42A842E8523A2012806C6F0
:1041D000EFE0BFF5FD576317F500938741289C4337
:1041E00091C31CC0B240224441018280411122C4CB
:1041F0002E848395E50006C69D2A634905007C4808
:10420000AA977CC8B2402244410182805E247D7717
:104210007D17F98F5EA4FDB7DE25011122CC26CAD9
:104220004AC84EC606CE93F70710AA842E84328958
:10423000B68991C78395E5008946014609225E2427
:104240007D777D17F98F5EA48315E4006244F24008
:10425000CE864A86B24942492685D244056125A8C0
:10426000411122C42E848395E50006C6C928FD5756
:104270005A24631AF500FD77FD17F98F5EA4B2404A
:104280002244410182808567D98F5EA468C8C5BF7A
:104290008395E50005A8411122C42A842E85B285A4
:1042A000368623A2012806C6EFE05FE4FD576317B8
:1042B000F500938741289C4391C31CC0B24022441F
:1042C00041018280411122C42A842E8523A2012823
:1042D00006C6E120FD576317F500938741289C43EC
:1042E00091C31CC0B240224441018280411122C4CA
:1042F0002A842E85B28523A2012806C66D20FD578B
:104300006317F500938741289C4391C31CC0B240BA
:10431000224441018280411122C42A842E8523A295
:10432000012806C67920FD576317F50093874128B9
:104330009C4391C31CC0B240224441018280411180
:1043400022C42A842E85B285368623A2012806C679
:10435000BD20FD576317F500938741289C4391C307
:104360001CC0B2402244410182808280828041117F
:1043700022C42A842E85B285368623A2012806C649
:10438000A920FD576317F500938741289C4391C3EB
:104390001CC0B2402244410182809307800523A2C1
:1043A000F1287D5582809307800523A2F1287D5551
:1043B00082809307800523A2F1280145828093071C
:1043C000800523A2F1287D5582809307800523A2D2
:1043D000F1287D55828000004855425F5045315F8D
:1043E000455252313A25780D0A0000004855425F87
:1043F0005045315F455252323A25780D0A0000008F
:104400004855425F5045315F455252333A25780D49
:104410000A00000048756220506F72742578204FA2
:1044200075740D0A000000004855425F5045325F28
:10443000455252313A25780D0A0000004855425F36
:104440005045325F455252323A25780D0A0000003D
:104450004855425F5045325F455252333A25780DF8
:104460000A00000048756220506F72742578204958
:104470006E0D0A0047657420496E7465726661634B
:1044800065257820526570446573633A200000000A
:10449000456E756D204869643A0D0000456E756D76
:1044A000204875623A0D0000416E616C797A652092
:1044B000436667446573633A2000000047657420D3
:1044C000537472696E6744657363343A2000000068
:1044D00047657420537472696E6744657363313A3B
:1044E0002000000047657420537472696E6744654C
:1044F0007363323A20000000476574205374726978
:104500006E6744657363333A20000000476574208A
:1045100048756220446573633A200000526F6F74DF
:104520004875624465762E62506F72744E756D3AAE
:1045300020253032780D0A00285331294765742030
:10454000446576446573633A200D0000536574201A
:10455000446576416464723A200D0000476574201A
:10456000446576436667446573633A200D00000036
:104570005365742043666756616C75653A200D007B
:10458000456E756D3A0D0000253032782000000030
:1045900053657420446576416464723A20000000DB
:1045A0004572722825303278290D0A004F4B0D00D4
:1045B00047657420436667446573633A20000000D2
:1045C000446576547970653A20253032780D0A00BA
:1045D000536574204366673A2000000047657420E5
:1045E000446576446573633A2000000055534220C9
:1045F000506F72742044657620496E2E0D000000C5
:10460000526F6F7420446576696365204973204852
:1046100049442E20000000004675727468657220BF
:10462000456E756D20526573756C743A20000000FC
:10463000526F6F7420446576696365204973204822
:1046400055422E2000000000526F6F7420446576A2
:10465000696365204973200053746F726167652E2A
:10466000200000005072696E7465722E20000000F8
:10467000556E6B6E6F776E2E20000000456E6420C5
:10468000456E756D2E0D0000456E756D2046616995
:104690006C2077697468204572726F7220436F6472
:1046A000653A25780D0A000055534220506F727408
:1046B00020446576204F75742E0D000041626E6FA8
:1046C000726D616C0D00000048756220496E7420A7
:1046D000446174613A253032780D0A0044657620D1
:1046E00053706565643A25780D0A0000456E756D56
:1046F0005F4875624465766963650D0048554220E0
:10470000706F7274257820646576696365206973BB
:104710002048494421204675727468657220456EB0
:10472000756D3A0D0A0000004F4B210D000000008E
:1047300048554220706F72742578206465766963ED
:10474000652069732000000073746F7261676521D2
:104750000D0000007072696E746572210D0000001A
:10476000756E6B6E6F776E210D000000485542200C
:10477000506F7274257820456E756D2045727221D8
:104780000D0A000053797374656D436C6B3A256CA8
:10479000640D0A0053797374656D436C6B3A25643C
:1047A0000D0A0000535953434C4B5F4672657175B7
:1047B000656E63792D25640D0A00000048434C4B5B
:1047C0005F4672657175656E63792D25640D0A000B
:1047D00050434C4B315F4672657175656E63792D40
:1047E00025640D0A0000000050434C4B325F4672B6
:1047F000657175656E63792D25640D0A00000000F2
:1048000054494D3320496E6974204F4B210D0000EF
:10481000555342465320486F737420496E69740D96
:104820000000000000000000000000000000000088
:104830000000000000000000000000000000000078
:104840000000000000000000000000000000000068
:104850000000000000000000000000000000000058
:104860000000000000000000000000000000000048
:104870000000000000000000000000000000000038
:1048800000000000232D302B20000000686C4C003D
:104890006566674546470000303132333435363778
:1048A000383941424344454600000000303132333C
:1048B000343536373839616263646566000000005C
:1048C00000000000000000000102030406070809C0
:1048D00000000000010203040102030406070809A6
:1048E0000000000044480000644800002448000024
:1048F00000000000000000000000000000000000B8
:1049000000000000000000000000000000000000A7
:104910000000000000000000000000000000000097
:104920000000000000000000000000000000000087
:104930000000000000000000000000000000000077
:1049400000D8B80502040608080B0020200000204B
:1049500002010000000000008006000200000400C8
:104960008006000100001200800600030904040014
:104970000005000000000000000900000000000029
:104980008106002200000000210900020000010051
:10499000210A0000000000002301000000000000C8
:1049A000A006002900000200A3000000000004008F
:1049B0002303000000000000200000200000000091
:00000001FF
