:100000006F10404B130000001300000013000000AD
:100010001300000013000000130000001300000094
:100020001300000013000000130000001300000084
:08003000130000007300100032
:100038000000000000000000A0010000A401000072
:10004800000000004C140000000000000000000048
:100058004E140000501400000000000000000000D2
:1000680052140000000000005414000000000000BA
:1000780056140000581400005A1400005C140000C4
:100088005E14000060140000621400006414000094
:1000980066140000681400006A1400006C14000064
:1000A8006E14000070140000721400007414000034
:1000B80076140000781400007A1400007C14000004
:1000C8007E140000801400008214000084140000D4
:1000D80086140000881400008A1400008C140000A4
:1000E8008E140000D608000092140000941400003A
:1000F80096140000981400009A1400009C14000044
:100108009E140000A0140000A2140000A414000013
:10011800A6140000A8140000AA140000AC140000E3
:10012800AE140000B0140000B2140000000000007B
:080138000000000000000000BF
:10014000397101436EC619A0397141536AC866CA34
:1001500062CC5ECE19A0397101535AD056D252D416
:100160004ED64AD826DA22DC06DE3301614082828E
:1001700041114AC026C222C406C68282B24D410144
:10018000024D924C224CB24B4101024B924A224A00
:10019000B2494101024992442244B2404101828065
:1001A0007300203001A0EFF2BFFCAA843715014094
:1001B0008565130505C037440040EF1060481309FA
:1001C000048089454A85EF10605E65DDA6851305CC
:1001D0000480EF10605D0545EF10006C371501409D
:1001E0008565130505C0EF1060446DB7EFF25FF849
:1001F0002A8421814D3F1375F40F753761BFEFF2EB
:100200003FF737140140AA8493050040130504C04A
:10021000EF1000432685413F93050040130504C0BD
:10022000EF10C04085BFEFF2BFF441112A841305DF
:10023000A00236C22EC632C4D9372285453F224697
:1002400032856D371305B0025D3FB2452E85793F8B
:1002500092463685613F1305C002553741011DBFE7
:10026000EFF21FF101118545214502C002C202C40F
:1002700002C602C802CA02CC231E0100EF10804948
:1002800085451165EF10E04A09693714014093076D
:1002900009C08D447C808A85C147130504C03EC4D3
:1002A00026C2EF1080298A8523102101130504C07E
:1002B00061494AC426C2EF10402891677C808A8534
:1002C0009147130504C03EC4EF102027E1778A85CB
:1002D000130504C07C804AC426C2EF100026B7C7AD
:1002E00004013EC6B70702003EC8B70700028507F3
:1002F000374400403ECAA1473ECC6C009D471305E1
:100300000480FC86EF10C044130504808545EF107F
:10031000004801450561BDBDEFF21FE3B28A368A90
:100320007D16FD16C2064206C18241823A8BAA8B17
:10033000AE84D53D371501408565130505C03744AA
:100340000040EF10E02F93598B001304048063E604
:100350004405371501408565130505C0EF10002DD4
:1003600005B589452285EF10604465DDCE8522857F
:10037000EF10804389452285EF10404365DD050974
:10038000DA8522854209EF10204213590901E36AF8
:1003900059FD8504C204C1805DBF5E89CDBFEFF207
:1003A0003FDD7D3D13054006EF10605237140140DC
:1003B000856593850580130504C0EF10202713057C
:1003C0004006EF10C05093050020130504C0EF1045
:1003D000E02513054006EF10804F45450D35130508
:1003E0008007EF10C04E13056003113D0145653BCA
:1003F0001305A003293515457D331305200B013561
:1004000031455533314545330145713B13053003C3
:10041000593B13053003413B1305700BCD331305D6
:10042000500351331305B00BD93B13052003A53BF3
:100430001305200CE9330545BD331305300CC133DA
:10044000554595331305400C5D3B13050002A13B58
:100450001305600C6D333D45B9331305000D45336D
:100460001305400A89331305100A353B1305000EA6
:1004700079331305000D053B2145353339452533C7
:1004800025451533254505331545313B1305100327
:10049000193B13053003013B1305800429335D45E7
:1004A0001933514509335545FD3913051003E53915
:1004B00013054003CD391305100E91331305000DBC
:1004C000DD312145CD313945F9392545E939254514
:1004D000D9395545C93913051003F13113053003D6
:1004E000D93113058004C1315D45753951456539F0
:1004F00055455539130510037D311305400365310A
:1005000013051002ED3913059002D5391305400685
:10051000EF10E03B01479306000F1306000F8145E3
:100520000145DD3B0145BDB1EFF29FC1131D070140
:10053000135D0D014205418193141D00AA94C2046C
:10054000C180330B9D00420B135B0B01B30A6D019D
:10055000C20A93DA0A01330A5D01420A135A0A01F8
:10056000B3094D01C209370700203971930707000D
:1005700093D90901B30B3D0113193D006A953EDA89
:1005800093970501C20B420913140501C183139C03
:10059000060132C693DB0B0113590901418002C4E5
:1005A0003EDC135C0C013245EF30302EA24763E491
:1005B000A7002161E1B633079D0093170701C183AE
:1005C00033076D013EC893170701C18333075D01EF
:1005D0003ECA93170701C18333074D013ECC9317E1
:1005E0000701C1833387A9013ECE93170701C18359
:1005F0003387AB013ED093170701C1833ED4224716
:10060000B247E25D3E9703070700D2570E07BA973D
:100610003EC2B707002093878700BA973307A441EB
:100620003ED293170701C18333078D003ED693173F
:100630000701C1833ED89247838C070013F71C0043
:1006400011CBB306BD013255C2066287C182228634
:10065000EE85D93113F72C0011CBB306BD014256FC
:10066000C2066287C182EE8522857D3113F74C0078
:1006700011CBB306BD014246C2066287C182EE8538
:100680002685593913F78C0011CBB306BD015246AC
:10069000C2066287C182EE855A85BD3913F70C0107
:1006A00011CBB306BD016246C2066287C182EE85E8
:1006B00056859D3113F70C0211CBB306BD0172466E
:1006C000C2066287C182EE855285B93113F70C04E8
:1006D000B308BD0119CB0256939608016287C18207
:1006E000EE854E8546DE0D39F25863DA0C0022564F
:1006F000939608016287C182EE855E853139924703
:1007000012573308BD018507931D08013EC293DDD2
:100710000D01E392E7F2A247CA9BCA994A9ACA9A84
:100720004A9BCA944A948507C20BC209420AC20A6C
:10073000420BC20442043EC493DB0B0193D909016E
:10074000135A0A0193DA0A01135B0B01C18041803D
:1007500099BD9307000F63C9A70263C7B702EFF201
:100760003FA14205C2054181C181938625009307BF
:10077000250013170601C206139607014183C182A3
:100780004182593E6FF01FA18280EFF2FF9B33043C
:10079000A6409357F4413D8C4111AA892E89B28A13
:1007A0001D8CFD5B6353C500854BB384264193D7F5
:1007B000F441BD8C9D8C330C9040054B6343D900B4
:1007C0007D5B330A94403A86CA854E8536C63AC464
:1007D00049372247B246639459016302D9029317FD
:1007E0001A0063C98701638C5901330A9A40DE9964
:1007F000E34BF4FC6305D900229A5A99E9B7410109
:100800006FF01F98EFF2DF960111AA842E8409453C
:10081000854502CA02CC231E010002C602C8EF00B1
:100820005071E082370400404C0813050440E48412
:10083000231D0100231B0100EF00F07705468545CD
:1008400013050440EF00507F9307D0127C86894740
:100850005C87680085473EC8EF00706185451305D9
:100860000440EF00F07BB7E700E0096723A2E71040
:1008700005616FF03F92EFF2BF8F41118545114541
:1008800002C202C402C6EF00F068E1777C8237152D
:100890000140C1473EC64C008D47130505803EC44C
:1008A000EF00B04941016FF0FF8EEFF27F8C03C77C
:1008B00001819387018109CF014701463715014026
:1008C000A1651305058098A3EF00D0586FF09F8CA9
:1008D00005470546E5B7411122C637040040854566
:1008E00013050440EF00707605C5130504408545E7
:1008F000EF00307703A741819307401F13844181A4
:1009000063D5E700232004004D371C4085071CC039
:100910003244410173002030EFF21F83B289B68B5D
:100920003A8B2A84AE84130A05060C404E853104A6
:10093000EF3080028325C4FFA104EF20B04EEF30DA
:10094000A02AEF30803023ACA4FE832584FF2A89BF
:100950004E85EF3060008325C4FFEF20B04CEF30B0
:10096000A028EF30802EAA8A5E85EF30002ECA853F
:10097000EF20B01423ACA4FE5A85EF30002DD685AD
:10098000EF20B01323AEA4FEE31144FB6FF04FFF42
:10099000EFF20FFE2A8448454111AE84EF30C024A7
:1009A0002AC60844EF3040242AC44840EF30C02310
:1009B0002AC20840EF304023B2462246924526879D
:1009C000E933484CEF3040222AC6084CEF30C021B2
:1009D0002AC44848EF3040212AC20848EF30C020DE
:1009E000B2462246924526874D334848EF30C01F15
:1009F0002AC60848EF30401F2AC44840EF30C01EC6
:100A00002AC20840EF30401EB24622469245268751
:100A1000AD3B484CEF30401D2AC6084CEF30C01C9F
:100A20002AC44844EF30401C2AC20844EF30C01B9F
:100A3000B246224692452687893B4854EF30C01A79
:100A40002AC60854EF30401A2AC44850EF30C01963
:100A50002AC20850EF304019B246224692452687F6
:100A60002D33485CEF3040182AC6085CEF30C017C1
:100A70002AC44858EF3040172AC20858EF30C01631
:100A8000B24622469245268709334858EF30C015B2
:100A90002AC60858EF3040152AC44850EF30C01419
:100AA0002AC20850EF304014B246224692452687AB
:100AB000E939485CEF3040132AC6085CEF30C012B9
:100AC0002AC44854EF3040122AC20854EF30C011F3
:100AD000B2462246924526874D394850EF30C01025
:100AE0002AC60850EF3040102AC44840EF30C00FEB
:100AF0002AC20840EF30400FB24622469245268770
:100B000069314854EF30400E2AC60854EF30C00D0A
:100B10002AC44844EF30400D2AC20844EF30C00CCC
:100B2000B2462246924526878D314858EF30C00B99
:100B30002AC60858EF30400B2AC44848EF30C00A94
:100B40002AC20848EF30400AB2462246924526871C
:100B50002D39485CEF3040092AC6085CEF30C008E8
:100B60002AC4484CEF3040082AC2084CEF30C00776
:100B7000B246224692452687093941016FF08FE13E
:100B8000EFF26FDD4111368ABA892A84AE841309E7
:100B900005060840B28532C6EF20105C88C0484088
:100BA000D2853104EF20505BC8C00325C4FFCE8539
:100BB000B104EF20705A23AEA4FE3246E31B24FD9D
:100BC00041016FF08FDCEFF20FD94111368ABA89FB
:100BD0002A84AE84130905060840B28532C6EF2088
:100BE000C06D88C04840D2853104EF20006DC8C078
:100BF0000325C4FFCE85B104EF20206C23AEA4FEF4
:100C00003246E31B24FD41016FF02FD8EFF24FD3A2
:100C1000AA8D2E8C4111014681466E85E285EF102A
:100C2000101F6356050037070080334C8701375487
:100C30000000032684A58326C4A5B75C00006E854A
:100C4000E285EF10B07303AA0CA683A44CA65286CB
:100C5000A686EF10D01B634C0502032984A58329C7
:100C6000C4A5528BA68A5286A6866E85E285EF10B1
:100C7000F070AA8D2E8C4A86CE866E85E285EF10A6
:100C8000F06F5A86D686EF109018E35E05FC0326B7
:100C900084A58326C4A56E85E285EF10306E375794
:100CA0000000032987A68329C7A62AC44A86CE86C0
:100CB0002EC6EF10D015B75B000037540000375B2D
:100CC0000000B75A0000375A0000B7540000375DE3
:100CD0000000634405182248B24803A60CA683A668
:100CE0004CA64285C685EF109012635805164A86B9
:100CF000CE86E2856E85EF1070682A86AE86EF108C
:100D0000701C03A60BA783A64BA72A89AE89EF10F8
:100D1000C0342A86AE86032584A78325C4A7EF1096
:100D2000F06503260BA883264BA82A8CAE8C4A8537
:100D3000CE85EF1080322A86AE866285E685EF107A
:100D400070182A86AE86032584A78325C4A7EF10D2
:100D5000F06203A68AA883A6CAA82A8BAE8B4A850E
:100D6000CE85EF10802F2A86AE865A85DE85EF105D
:100D700070152A86AE86032584A78325C4A7EF10A5
:100D8000F05F03260AA983264AA92A8BAE8B4A85DF
:100D9000CE85EF10802C2A86AE865A85DE85EF1030
:100DA00070122A86AE86032584A78325C4A7EF1078
:100DB000F05C03A684A983A6C4A92A8AAE8A4A85C0
:100DC000CE85EF1080292A86AE865285D685EF1013
:100DD000700F2A86AE86032584A78325C4A7EF104B
:100DE000F05903260DAA83264DAA2A8AAE8A4A857F
:100DF000CE85EF1080262A86AE865285D685EF10E6
:100E0000700C2A86AE86032584A78325C4A7EF101D
:100E1000F056B757000003A687AA83A6C7AA2A8A56
:100E2000AE8A4A85CE85EF10F0092A86AE865285B5
:100E3000D685EF1030092A86AE86032584A7832540
:100E4000C4A7EF10B053B7070080BD8D2A87AE87C7
:100E50003A85BE8541016FF06FB26E86E2866E857F
:100E6000E285EF10300603A60BA783A64BA72A89BD
:100E7000AE89EF10801E2A86AE86032584A78325BF
:100E8000C4A7EF10B04F03260BA883264BA82A8CCB
:100E9000AE8C4A85CE85EF10401C2A86AE866285D0
:100EA000E685EF1030022A86AE86032584A78325C7
:100EB000C4A7EF10B04C03A68AA883A6CAA82A8BA1
:100EC000AE8B4A85CE85EF1040192A86AE865A85AC
:100ED000DE85EF10207F2A86AE86032584A7832532
:100EE000C4A7EF10B04903260AA983264AA92A8B72
:100EF000AE8B4A85CE85EF1040162A86AE865A857F
:100F0000DE85EF10207C2A86AE86032584A7832504
:100F1000C4A7EF10B04603A684A983A6C4A92A8A51
:100F2000AE8A4A85CE85EF1040132A86AE8652855A
:100F3000D685EF1020792A86AE86032584A78325DF
:100F4000C4A7EF10B04303260DAA83264DAA2A8A10
:100F5000AE8A4A85CE85EF1040102A86AE8652852D
:100F6000D685EF1020762A86AE86032584A78325B2
:100F7000C4A7EF10B040B757000003A687AA83A606
:100F8000C7AA2A8AAE8A4A85CE85EF10A0732A8620
:100F9000AE865285D685EF10E0722A86AE8603258E
:100FA00084A78325C4A7EF10703D4DB5EFF24F9C89
:100FB000B757000003A607AE83A647AEEF10103C5C
:100FC000EFF0DFC46FF00F9DEFF20F982A843285A7
:100FD000AE84EF20F0532A8AAE8AEFF03FC32A890D
:100FE000AE895285D685D9372A8AAE8A130B040674
:100FF0001C403104B10423AAF4FE032584FFEF2032
:1010000030514A86CE86EF10E06B2A8C0325C4FF50
:10101000AE8CEF20F04F5286D686EF10A06A2A865B
:10102000AE866285E685EF107035EF20305923AC2F
:10103000A4FE032584FFEF20B04D5286D686EF1024
:1010400060682A8C0325C4FFAE8CEF20704C4A8662
:10105000CE86EF1020672A86AE866285E685EF0091
:10106000D00CEF20B05523AEA4FEE31364F96FF06B
:101070002F91EFF26F8D2A843285AE84EF20504994
:101080002A8AAE8A25372A89AE895285D685EFF01D
:10109000FFB72A8AAE8A130B040608443104B10450
:1010A000EF2010474A86CE86EF10C0612A8C0325B8
:1010B00044FFAE8CEF20D0455286D686EF1080607C
:1010C0002A86AE866285E685EF003006EF20104F57
:1010D00023AAA4FE032584FF23ACA4FEEF205043E3
:1010E0005286D686EF10005E2A8C032544FFAE8C14
:1010F000EF2010424A86CE86EF10C05C2A86AE866C
:101100006285E685EF109027EF20504B23AEA4FEBA
:10111000E3158BF86FF0CF86EFF20F832A843285C8
:10112000AE84EF20F03E2A8AAE8AEFF03FAE2A89E5
:10113000AE895285D6859D3D2A8AAE8A130B040658
:1011400008403104B104EF20B03C4A86CE86EF104F
:1011500060572A8C032584FFAE8CEF20703B5286AB
:10116000D686EF1020562A86AE866285E685EF1079
:10117000F020EF20B04423AAA4FE032544FFEF2073
:1011800030395286D686EF10E0532A8C032584FF2F
:10119000AE8CEF20F0374A86CE86EF10A0522A861A
:1011A000AE866285E685EF004078EF20304123ACC3
:1011B000A4FE8327C4FF23AEF4FEE31364F96FE0BB
:1011C0003FFCEFE2FFFA55712E840C083AC436C694
:1011D000EFF09FDFB2468C1808083686593D22474B
:1011E0008818A2853A860D3F69616FE0BFFAEFE289
:1011F0009FF60571AD2DEFF08F9AEFF0CFE7370432
:10120000002083250446896793870771B3D5F502CB
:101210002545416993040000FD15C205C181EFF029
:101220006FDE01479306000F1306000F814501454D
:10123000EFF08F8E375600009306F9FF094713062B
:1012400086AC81450145EFF02FAE03260446B75525
:101250000000938585AD6800EF20F05E9306F9FFEE
:1012600009477000C5450145EFF00FAC95651306C1
:1012700000069385459F8810EF20D051B757000096
:1012800003A707AB0C038810BA863A861D3FB757F1
:10129000000003A447AB8C0108032287A2862286A4
:1012A000EFF01F8EB757000003AA87AB930600002C
:1012B000368652870C128801EFF0FF90B757000076
:1012C00083A9C7AB13078007930680074E860C10CF
:1012D0000812EFF06FE49305F9FF0810EFF04FEB01
:1012E000B757000003AB07ACB757000083AA47AC61
:1012F0007D1981450810EFF0AFE9DA852685EF20EA
:10130000405D6354A00093040000D6852685EF104D
:10131000D07A2A87AA862A860C03AA848810553593
:101320002287A28622868C010803EFF07F85930630
:101330000000528736860C128801EFF0DF88130711
:101340008007930680074E860C100812EFF0CFDC62
:101350000810CA85EFF0CFE31545952B59BFB71795
:1013600002409843B706FFF841111367170098C36E
:10137000D84337060200758FD8C39843B706F7FEE7
:10138000FD16758F98C39843B706FCFFFD16758F41
:1013900098C3D843B70681FFFD16758FD8C33707AA
:1013A0009F0098C702C402C69843C166558F98C370
:1013B000B716024005679C42F18F3EC6A2478507DB
:1013C0003EC4B24781E7A247E397E7FEB717024062
:1013D0009C431397E7006357070685473EC632478D
:1013E0008547631FF704B7170240D843B706C1FF0C
:1013F000FD16D8C3D843D8C3D84313670740D8C312
:10140000D843758FD8C3D843B7062900558FD8C3A2
:101410009843B7060001558F98C398439316670009
:10142000E3DD06FED843B7160240719BD8C3D8430C
:1014300013672700D8C32147DC42B18BE39EE7FE48
:101440004101828002C661BF01A001A001A001A0EC
:1014500001A001A001A001A001A001A001A001A084
:1014600001A001A001A001A001A001A001A001A074
:1014700001A001A001A001A001A001A001A001A064
:1014800001A001A001A001A001A001A001A001A054
:1014900001A001A001A001A001A001A001A001A044
:1014A00001A001A001A001A001A001A001A001A034
:1014B00001A001A097F1FF1F9381C17A174100207D
:1014C000130141B4174500001305058A97F5FF1F66
:1014D000938545B31386018163FAC5008322050015
:1014E00023A0550011059105E3EAC5FE138501818E
:1014F000938501836377B500232005001105E36D13
:10150000B5FEFD42739002BC8D42739042809302FF
:10151000800873A0023097F2FFFF938222B293E219
:10152000320073905230EFF09FE3970200009382F5
:1015300042CC73901234730020309C4513F707019E
:1015400013F8F70001C7D8413368E8003727024095
:10155000145B3707000F758F4DEB8546238CD180C8
:10156000371701406315E5009A2135839AA18E2132
:1015700013F7F50F39C318418146854E3D4F930F40
:10158000800293028004214E3396DE00B3F8C5003A
:10159000631116039398260033131F011343F3FFBF
:1015A0003377E300B318180133E7E8006397F707D0
:1015B00050C98506E39AC6FD18C11307F00F63757D
:1015C000B70454412146854E3D4F930F800293024C
:1015D0008004414EB398CE0033F715016392E802C0
:1015E0001317260001173313EF001343F3FFB376ED
:1015F000D3003317E800D98E6395F703232A15012A
:101600000506E319C6FD54C1828037170140E31077
:10161000E5F603C7818121DF81BFE39C57F810C93C
:1016200049BFE39F57FC23281501D9BFB7170140D5
:101630006316F50083C7818191C3B5810CC982808F
:10164000B71701406316F50083C7818191C3B58147
:101650004CC98280B71701406316F50083C78181AA
:1016600091C3B58119C20CC982804CC9828093870D
:10167000C1819443182181E63C21920721A894431B
:101680000546639FC6023C21103192076314D600C1
:1016900093E707F8B7E600E093F7F70FBA962380D1
:1016A000F6408546935757003397E6005441A5C24C
:1016B000938707048A07B7E600E0B69798C382804D
:1016C0008C4389466391D50214313C216365D60071
:1016D0008A06B6975DB79386E6038A06B69793F7B0
:1016E000F70F920775B790438D46631CD6001431EF
:1016F0003C216364D6008606E9BF9386C60786064A
:10170000F1BF94439147E39EF6F81C31BDB7938730
:1017100007064DB799C5371702401C4F5D8D08CF9E
:101720008280B7170240984F1345F5FF798D88CF17
:10173000828099C5371702405C4F5D8D48CF82800B
:10174000B7170240D84F1345F5FF798DC8CF828077
:101750001A218D6793870704B6217D8F9E21D58F2F
:10176000D621D58FF621D58F9625D58FB625D58F45
:10177000D625D58FF625D58FD98F1EA15A2DFD7769
:101780009387F77FF98F5EAD9E291EA982801E2167
:1017900089C593E707041EA18280C207C18393F71E
:1017A000F7FBC207C183C5BF4EA582800A256D8D98
:1017B0003335A00082801E2137370140130707C050
:1017C000C207C1836304E502370700406300E502F6
:1017D00013070740630CE5003717004093060780A6
:1017E0006306D500130707C06316E500BA2193F717
:1017F000F7F8D98FFA2193F7F7CFC207C183D98FB2
:101800001EA1DE215EB59E211EB5B737014093872C
:1018100007C06314F5009C251EB985475EA9828028
:101820001E2189C593E717001EA18280C207C183CC
:10183000F99BC207C183CDBF5E2501C6DD8D4EA5D4
:10184000828093C5F5FFFD8DDDBF1E294A25ED8FF2
:101850004205418189C76D8D3335A00082800145E5
:10186000828093C5F5FFC205C1810EA98280B707AA
:10187000002083A7074637177A0013070720B3D73E
:10188000E70293F7F70F2381F1821307803EB387B6
:10189000E7022390F1828280B7F700E0D8438146C7
:1018A000799BD8C303C721823306A70290CBD4CB40
:1018B00098431367070198C398431367170298C3A7
:1018C000D843058B75DF9843799B98C38280B7F71F
:1018D00000E0D8438146799BD8C303D70182330601
:1018E000A70290CBD4CB98431367070198C39843C2
:1018F0001367170298C3D843058B75DF9843799B0C
:1019000098C38280138741801C43938601833E9550
:10191000636BD500B75600209386068063E5A6006A
:1019200008C33E858280FD57EDBF370810000111C6
:101930007D183377B80026CA3378D80093D4450190
:1019400013D34601131E37004EC61357D5010E0898
:101950009357D60193F4F47F1373F37F06CE22CC12
:101960004AC893D9F50193DEF6013367C701131F07
:10197000350033E80701931F3600338E64406380DF
:10198000D9196356C0136304031CB706800093077C
:10199000F07F3368D800638FF4369307800363C009
:1019A000C735FD4763CDC747130500023305C54161
:1019B000B3D7CF01B316A8003399AF00DD8E33390A
:1019C0002001B357C80133E926011D8F33092F4188
:1019D000B3372F013306F7409317860063D40724EB
:1019E000370780007D173374E600630C042C2285D2
:1019F000EF206053130785FF93070002998FB357B9
:101A0000F9003316E400D18F3319E9006341972AB6
:101A100033059740130615007D47634DC7381307FC
:101A20000002118FB356C9003319E9003397E7005C
:101A3000558F333920013369270133D6C7008144DC
:101A40009377790081CF1377F90091476308F70006
:101A500013074900333927014A963A8993178600BC
:101A600063D6071C138514009307F07FCE856304AB
:101A7000F520B70780FFFD17F18F9398D701135911
:101A80003900A607B3E82801B1831375F57F939653
:101A9000C7005205F2406244B182FE05C98ECD8E68
:101AA000D2444249B2494685B68505618280631EAB
:101AB0000E0A138314001373E37F63170322B367C3
:101AC000E701B368F801639D041A638707406386E2
:101AD00008443309FF41B307074133362F013386EA
:101AE000C7409317860063D6074C3389EF41B3078D
:101AF000E84033B62F013386C740F68991B763506B
:101B0000C00F6300030CB70680009307F07F3368B3
:101B1000D800638AF43A9307800363CBC713FD4769
:101B200063DFC73513090EFE93070002B356280181
:101B3000630AFE00130900043309C941331928015F
:101B4000B3EF2F013339F0013369D90031A2B36704
:101B5000F801638A071C9307FEFF638C073893061E
:101B6000F07F6309DE1A3E8E0DBDB305934063918D
:101B70000422B367E701638707329387F5FF638128
:101B800007449306F07F638CD520BE8593078003BE
:101B900063CCB72AFD4763CFB73C930700028D8F14
:101BA0003319F700B356BF00B317FF003369D900EC
:101BB000B337F0003357B7003369F9003308E84012
:101BC00041ACB367F801638007349307FEFF638A73
:101BD00007209306F07F6308DE2E3E8E2DBF631E26
:101BE0000E149386140093F7E67F63910734B3676E
:101BF000E7016395042C6380073EB367F801638EA9
:101C000007303309FF01B3070701333FE90133868A
:101C1000E7019317860063D70700B70780FFFD171A
:101C20007D8E854493777900E39F07E09317D60173
:101C300093583900B3E8F800935736001307F07F44
:101C4000638DE404B207B18313F5F47FCE8581B5CB
:101C50003369F801333920017A99B337E9013386C2
:101C6000E70093178600E3DF07FA85049307F07F08
:101C70006396F418CE851305F07F8147814801BD36
:101C8000C1EB6384083A931636009317D8018D820E
:101C9000B3E8D700F68993573800B3E7F800F9DBCB
:101CA00081451305F07FB70708008148CDB337069B
:101CB00080FF7D167D8E93777900998CE39507D808
:101CC000B5B74A85EF20202613078501FD47E3D5E8
:101CD000E7D2130685FFB317C900014905BB336975
:101CE000F80133392001DDB13309FF4133060741E3
:101CF00033342F01330486409317840063CD0724C7
:101D0000B3688900E39308CE8147814981441DBFB0
:101D1000E39808F80E059317D7010D81B3E8A700E3
:101D2000935737009DBF0E059317D7010D81B3E878
:101D3000A700F2849357370011B7330593406382AD
:101D40000412B70680009307F07F558F630DF32EC2
:101D50009307800363CBA720FD4763C3A72A93079C
:101D60000002898F3319F700B356AF00B317FF0095
:101D70003369D900B337F0003357A7003369F9004E
:101D80003A987E99B337F901338607019A84D1BD19
:101D9000B70680009307F07F558FE319F3DE9317A2
:101DA00036008D839318D801B3E81701F68993574D
:101DB0003800E5B5130715FE9306000233D7E70098
:101DC000630AD600930600043386C6403396C700E4
:101DD0003369C900333920013369E9000146814480
:101DE00091B53309FF01B30707013336E9013E9688
:101DF000931786008544E3D707E28944B70780FF3D
:101E0000FD17F18F13571900137919003369270152
:101E10009398F70133E9280113D6170015B1130978
:101E20000EFE93070002B3562801630AFE00130951
:101E300000043309C94133192801B3EF2F013339A5
:101E4000F0013369D90059B63369E701333920010C
:101E500033892F41B3B72F013306F8409A84F689AE
:101E6000A5BEB367E701638207189307F5FF638494
:101E7000071C9306F07F6304D5123E85D1BD9307FE
:101E80000002B387C741B316F8003399FF0033D679
:101E9000CF01D18E33392001B357C80133E9260170
:101EA0003E975DBB931736008D839318D801B3E836
:101EB0001701AE8493573800F68949B3EDC33369EF
:101EC000F801E31F09DC0E059317D7010D81B368F4
:101ED000F50093573700D1B36381080E931636008F
:101EE0009317D8018D82B3E8D700F689935738004D
:101EF00091BB3309FF41B3070741333F2F013386BD
:101F0000E7418544D1BC0E059317D7010D81B36815
:101F1000F500F2849357370015B30E059317D701D8
:101F20000D81B3E8A7009357370029BB9307F07FD3
:101F3000E382F6D43309FF013336E901B307070121
:101F4000B2979398F7011359190033E9280113D672
:101F50001700B684C1B93389EF413307E84033B67F
:101F60002F013304C740F68949B43369E701333997
:101F7000200101BD938705FE93060002B357F700C9
:101F8000638AD50093060004B385B6403317B700C3
:101F9000336FEF003339E0013369F90055BD931712
:101FA00036008D839318D801B3E817019357380092
:101FB000EDB1B368C900E39708C68147814959B1BB
:101FC0003389EF41B307E84033B62F013386C7406A
:101FD000F689854411B4931636009317D8018D8283
:101FE000B3E8D70093573800B1B99316360093176A
:101FF000D8018D82B3E8D700AA84935738003DB941
:10200000930705FE93060002B357F700630AD50055
:10201000930600043385A6403317A700336FEF0003
:102020003339E0013369F900A9BB81451305F07F1D
:10203000B7070800A9BC3309FF01B307070133360E
:10204000F9013E9675B3931636009317D8018D8229
:10205000B3E8D7009357380089B1397193D7450158
:1020600022DC4AD856D22A891394C50006DE26DA25
:102070004ED652D45AD05ECE13F5F77F318093DA24
:10208000F501630B05109307F07F630BF514135AEA
:10209000D9010E0433648A00370A8000336A440190
:1020A000131B3900930415C00144814B13D846011A
:1020B0001399C6001378F87FB2881359C90093D9D1
:1020C000F601630E08089307F07F6300F8041357C6
:1020D000D6010E0933692701130818C0B70780001D
:1020E0003367F90093183600B38404418145BD4736
:1020F00033C83A0163E4871A973700009387079F34
:102100000A043E9410403E9602863367C9009384C9
:102110001480631207101364240081488945C1BFED
:102120001306F07F81470147B207F250625452060E
:10213000B1837E08D18FB3E70701D2544259B25917
:10214000225A925A025BF24B3A85BE852161828007
:1021500001481306F07FB70708000147F1B733675E
:10216000C9004DC7630809304A8532C4EF10B05B1F
:102170002246130755FFF547930685FF998F3319BC
:10218000D900B357F60033E72701B318D6002695D8
:102190009304353F8145A1BF336A240163030A06D6
:1021A00036C632C46306042A2285EF10D057224671
:1021B000B246AA84130755FF754A138B84FF330A6E
:1021C000EA4033146401335A4901336A8A00331BED
:1021D00069011305D0C0B30495400144814BF9B5A2
:1021E000336A240163180A002144014B9304F07FF1
:1021F000894B6DBD228A4A8B31449304F07F8D4B0D
:1022000075B51144014B8144854B4DB513641400E1
:1022100081488545E9BD136434004A878D45C1BDB9
:10222000630A052E8547898F9306800363DDF632A6
:10223000014681470147CDBDCE868947638DF53A7A
:102240008D47E387F5F085473688E383F5FE1385F0
:10225000F43FE357A0FC93F778006396072893D6E2
:1022600038009317770063D80700B70700FFFD1702
:102270007D8F138504409307E07FE3C3A7EA13161D
:10228000D70193179700B1833367D6001376F57F94
:1022900061BDD6865287DA88DE8545B763614723FC
:1022A000630DEA20DA86FD145284014B93178700F0
:1022B00013D388013363F300935E0301B357D40350
:1022C000131F0301135F0F0193D50601139E8800AE
:1022D0003374D4033307FF024204C18D63FBE5006E
:1022E0009A951386F7FF63EE652663FCE526F917DA
:1022F0009A95998D33D7D503C206C182B3F5D5031C
:102300003306EF02C205D58D63FBC5009A9593068F
:10231000F7FF63E6652463F4C52479179A95C2072D
:1023200041645D8F9307F4FF3375F70093580701FD
:10233000935F0E01B377FE00B302F502B386C5408A
:10234000B383F80293D502013386AF021E962E9610
:102350003385F803637376002295C168FD189355A1
:102360000601337616014206B3F81201AA95469685
:1023700063E6B6126382B6123306CB408D8E333BD2
:10238000CB00338B66411385F43F630C6317B3585E
:10239000DB0393550601337BDB03B3061F03420BBC
:1023A00033EB6501637BDB001A9B9385F8FF636D5C
:1023B0006B20637BDB20F9181A9B330BDB40B35691
:1023C000DB0342064182337BDB03330FDF02420B28
:1023D00033666601637BE6011A969385F6FF6367B1
:1023E000661E6375E61FF9161A96C208B3E8D80090
:1023F0009395080193D20801C181B38EF50233068B
:10240000E641B385BF0293D60E01B387F202BE95B3
:10241000AE96B38F5F0263F4F600C167BE9FC165DD
:10242000FD1593D70601ED8EC206B3FEBE00BE9F1A
:10243000F696637FF6091A969387F8FF6369661A22
:102440006368F619630FF61BBE8893E8180011B590
:102450004A85EF10502D13075501F14593040502ED
:102460002246B246E3DAE5D4130485FF331A890025
:10247000014B85B3328532C4EF10F02A13075501A2
:10248000F146AA87224613050502E3D6E6CEE117F8
:102490003317F6008148E5B9E370CBEE729B333514
:1024A000CB011A95AA961305F7FF6378D30263E66A
:1024B000B6106382D5102A87C1B5E3651BDF93553B
:1024C0001B009316FA0113541A00CD8E7E0BF9BB34
:1024D000E31DF6F7E38F06D6B9BFE31ED3FCE3781E
:1024E000CBFD2A8751BD93F7F8009146E389D7D6F3
:1024F00093B7C8FF9386480093C717008D823E9715
:102500008DB381468547E34CA0FEFD58E31C05D002
:10251000930410C085471385E441B316A70033D652
:10252000F8003395A800D18E3335A000C98E13F67C
:1025300076003357F70001CE93F7F6001146638813
:10254000C70093874600B3B6D7003697BE86931769
:10255000870063D80704054681470147F1B63687EF
:102560007DBBB28779B3FD46E3D7F6FA0556098EEF
:10257000930600023356C7006388D7009387E4436D
:10258000B317F700B3E8F800B3361001D18E13F695
:102590007600814701CE93F7F60011460147E3929A
:1025A000C7FA931797001316D701B18313D73600D4
:1025B000518F014695BEE370CBF0729B3335CB0152
:1025C0001A957917AA964DBBAE88C5BBAE8631BDAC
:1025D00093171E0033BEC70172931A96F9183E8EE8
:1025E000E315F6E7E307DEC693E818009DB1BE8861
:1025F000E30AF6FF99BD36881306F07F814701474D
:1026000025B6E367DEFCBE88E310DEFE99B113D782
:102610004501B7071000FD1713D846011377F77F60
:102620009308F07F33FEB700AA8EF58FFD81328FBD
:102630001378F87FFD82630E1703630D180129E3F9
:10264000B368AE00631F08005D8E01EE0143638C2A
:10265000080421A8B3E8C7000943639608046DD3B2
:1026600005A0638408046385D50205438DCD7D53A1
:102670001DA8B368AE00094363970802630AE80225
:10268000631408005D8E75D2E391D5FEE34FE8FC3C
:1026900063490701E3EBC7FD630FFE000143637469
:1026A000FE00F1D505431A858280EDFE7D53E5BF1E
:1026B0005D8E79DACDBFE36ADFFB0143E3F5EEFF20
:1026C000F5F175B739714AD813D945014ED652D4B0
:1026D00056D29399C50006DE22DC26DA5AD05ECEA9
:1026E0001379F97F2A8A93D9C90093DAF501630D2A
:1026F000090E9307F07F6306F9181354D5018E096C
:10270000B36934013704800033E489009314350041
:10271000130919C08149814B13D74601139AC6008A
:102720001377F77FB285135ACA0013DBF601630BE8
:1027300007109307F07F6303F7049357D6010E0A3F
:1027400033EA4701130717C0B7078000B367FA00E1
:10275000931536003A99814833C76A01BD463A85D8
:102760001308190063E83617172600001306063C05
:102770008A09B29983A60900B2968286B367CA0015
:102780001309F97F6399071293E929008145894864
:10279000E1B701479307F07F370408008144320412
:1027A000D20731807E075D8C598CA285F25062542D
:1027B00026854259D254B259225A925A025BF24BA0
:1027C000216182805A853E84AE84C68B8947638DA1
:1027D000FB0E8D47E38FFBFA85472A87639EFB3804
:1027E00081470144814465BF33E4A90061C036C616
:1027F00032C4638C092A4E85EF10E0722246B2463D
:10280000AA87130755FF7544938487FF198CB399E2
:10281000990033548A0033643401B3149A0013D7F7
:1028200046011309D0C0139AC6001377F77F330906
:10283000F9408149814BB285135ACA0013DBF60176
:10284000E31907EEB367CA00B1C7630F0A225285C6
:1028500032C4EF10406D22462A87930655FFF54794
:10286000930587FF958F331ABA00B357F600B3E785
:102870004701B315B6003309E9401309D9C08148AF
:10288000E1BD33E4A90001ECA14981441309F07FC3
:10289000894B59B593E919008145854875BD4E842A
:1028A000AA84B1491309F07F8D4BBDB5914981448C
:1028B0000149854B95B593E93900D2878D4869BDAB
:1028C00089475685E397FBF02A879307F07F0144F9
:1028D0008144F1B5C16E1386FEFF93D6040113DE69
:1028E0000501F18CF18D338695023383B60293583E
:1028F000060133059E021A95AA98B382C60363F3B4
:102900006800F692C16F1383FFFF33F5670093D31E
:102910000701B3F76800C207337366003E933306BE
:10292000950293D80801B387A602135F0601B3840A
:102930009302BE94FA94B38E760263F3F400FE9E83
:10294000416A9307FAFF935F0401B376F400B3F989
:10295000F4007D8EC1803384D502C209338FD40147
:10296000B299CE98B307DE02935E0401B385BF022D
:10297000AE97BE9E330EFE0363F3BE00529EC16748
:102980009385F7FF33F6BE006D8C4206229693DEE8
:102990000E01B305D502769E3385AF0213D405012F
:1029A000B386D302AA96A296B38FF30363F3A6006D
:1029B000BE9F41657D15B3F7A600C2076D8DAA972E
:1029C000B3855800B3B93501FA97B295338437010E
:1029D00033B6C500B30EC4013385CE0033343401A1
:1029E000B3B7E701C18F33BECE0113D4060133362E
:1029F000C5003E943366CE009394950032947E9445
:102A0000B3E46400260493567501B3349000DD816D
:102A100093179500CD8C558CDD8C9317740063DB78
:102A2000070093D7140085889316F401DD8CD58CAC
:102A3000058042899307F93F6359F00893F67400C3
:102A400081CE93F6F40011466388C6009386440055
:102A5000B3B496002694B6849316740063D8060027
:102A6000B70700FFFD177D8C930709409306E07FB1
:102A700063CFF60E93D634009314D4012604D58C7C
:102A8000318093F7F77F21BB328532C4EF10A04924
:102A900093065501F147130705022246E3D1D7DC1F
:102AA0006115B317A6008145F9B3EF10C0471307AE
:102AB0005501F145930705022246B246E3D5E5D418
:102AC00061153314AA00814499BB85469D8EB1E7F8
:102AD0001309E941B3972401B3D4D4003319240175
:102AE000B337F000B3649900DD8C93F77400B356EC
:102AF000D40081CF93F7F40011466388C700938711
:102B00004400B3B49700A696BE849397860063D81A
:102B1000070485470144814459B113068003E3410A
:102B2000D6CC7D46E356D6FA0556B307F640930554
:102B300000023356F4006387B6001309E943B31764
:102B40002401DD8CB3349000D18C93F674000144E1
:102B500099CA93F7F40011468146E392C7FA139499
:102B600096003180F6068D80D58C81470DB993078C
:102B7000F07F0144814425B142896DBD37071000C3
:102B80007D1701113373B70093D84601758F935E9B
:102B9000D60122CC26CA0E0393D445019357D50102
:102BA0000E0706CE4AC84EC693F8F87F130EF07F84
:102BB00033E7EE0093F4F47F13D4F50133E36700B9
:102BC000131F3500FD82931E36006380C81993C61B
:102BD0001600B38514416305D4126351B018638B9A
:102BE000081AB70780005D8F6381C459930780037B
:102BF00063C4B734FD4763C5B748930700028D8FA0
:102C0000B3D9BE003318F700B39EFE003368380115
:102C10003357B700B339D001336838013303E34089
:102C2000B3090F41B3373F013306F34093178600D2
:102C300063D30724370980007D1933792601630F98
:102C4000092C4A85EF10202E130785FF93070002F9
:102C5000998FB3D7F9003316E900D18FB399E90002
:102C60006344972A058F13061700FD4663C5C63ACD
:102C700013070002118FB3D6C9003398E9003397C8
:102C8000E700558F33380001B369070133D6C70019
:102C9000814493F7790081CF93F6F90091476388D7
:102CA000F6009386490033B836014296B6899317E9
:102CB000860063D6071C138714009307F07F0588EE
:102CC0006306F720B70780FFFD17F18F1398D70130
:102CD00093D93900A60733683801B1831377F77F9A
:102CE0009396C7005207B1827E04D98EC18EF240FE
:102CF0006244D2444249B2494285B6850561828028
:102D00006356B00A638A0812B70780005D8F638735
:102D1000C42D9307800363C7B718FD4763D2B73C40
:102D2000138805FE93070002B3590701638AF50073
:102D300093070004B385B7403317B700B3EEEE0036
:102D40003338D0013368380195A2B367D701938532
:102D5000148099E393C61600630AD404D1E19387E3
:102D6000140093F7E77F6399071EB367E3013368A5
:102D7000D701639204166382073C63160842131856
:102D800035009316D3011358380033E806019357E2
:102D9000330019A2B367D7016385071A9387F5FF3C
:102DA000638B073A638CC523BE8589B56399051C7F
:102DB0009386140093F7E67FC1EFB367E301639056
:102DC0000436638D0744B367D701639407460E0545
:102DD0001318D3010D813368A800935733006DA8F1
:102DE000B385984063970420B367E301638D073090
:102DF0009387F5FF638907401305F07F6383A52060
:102E0000BE859307800363C2B72AFD4763C8B73CFA
:102E1000930700028D8F3318F3003356BF00B317AA
:102E2000FF003368C800B339F0003353B300336890
:102E3000380133076740B5ACB367D7016383071028
:102E40009387F5FF638F071E6380C52FBE85D1B5BD
:102E50009307F07F638BF606FA9E33B6EE01B30755
:102E6000E300B2971398F70193DE1E00B369D8010F
:102E700013D61700B68493F77900E39F07E0931702
:102E8000D60113D839003368F800A6859357360069
:102E90001307F07F6380E506B207B18313F7F57F70
:102EA00005883DBD3367D7013338E000B309E80139
:102EB000B3B7E9013386670093178600E3DD07FAAD
:102EC00085049307F07F639CF41805881307F07F4F
:102ED0008147014831B5639107106301083C13181D
:102EE00036009317D701135838003368F80036843A
:102EF00093573700B367F800E9DB01441307F07F0D
:102F0000B70708000148E9BB370680FF7D167D8EB4
:102F100093F77900998CE39107D895B74E85EF1018
:102F2000800013078501FD47E3D2E7D2130685FF32
:102F3000B397C90081492DB33368D70133380001F5
:102F4000C5B1131835009317D301135838003368EF
:102F5000F800935733002DBFB309DF413309E34035
:102F600033363F013309C9409317890063CA0720EC
:102F700033E82901E31508CC8147014431BFB3850B
:102F8000984063810414B70680009307F07F336391
:102F9000D3006381F8209307800363CCB722FD47F9
:102FA00063C9B72C930700028D8F3318F300B35613
:102FB000BF00B317FF003368D800B339F0003353B4
:102FC000B300336838011A97B309D801B3B7D901F0
:102FD0003386E700C684CDB5E31108F21318350037
:102FE0009317D301135838003368F8009357330010
:102FF00011B7370580009307F07F3363A300E39296
:10300000F8E00E061318D7010D823368C8009357F5
:1030100037003684C5B505179306000233D7E7009D
:10302000630AD600930600043386C6403396C70071
:10303000B3E9C90033383001B369E800014681447F
:103040001DBDB309DF01B307E30033BFE9013386D8
:10305000E701931786008544E3DF07E08944B7075B
:1030600080FFFD17F18F13D7190013F8190033688B
:1030700007019399F701B3E9090113D6170011B9B4
:10308000138805FE93070002B3590701638AF50010
:1030900093070004B385B7403317B700B3EEEE00D3
:1030A0003338D00133683801A5BE3363E3013338C8
:1030B0006000B3890E41B3B73E013306F740C684C2
:1030C0003684ADB6B367E301638707189387F5FFCE
:1030D000638C071C9306F07F638ED50ABE8565BDA1
:1030E000930700028D8FB3D9BE003318F700B39E4B
:1030F000FE00336838013357B700B339D001336865
:1031000038013A9365B3131836009317D701135853
:10311000380033E8070136849357370095BBBDCBA1
:103120003367D701E31B07DC0E051318D3010D81AC
:103130003368A8009357330075BBE30F08E21318F8
:1031400036009317D701135838003368F8003684D7
:103150009357370091B3B309DF41B307E340333FDF
:103160003F013386E7418544D1B4131835009316E7
:10317000D3011358380033E80601935733009DBB41
:10318000B389EE413306674033B93E013309264126
:10319000368475B40E061318D7010D823368C80043
:1031A0009357370081BBB309DF41B307E3403336A0
:1031B0003F013386C7409317860063D7070AB38958
:1031C000EE41B3076740B3BE3E013386D741368434
:1031D000C9B43363E30133386000FDB3138805FEDF
:1031E00093070002B3590301638AF50093070004B3
:1031F000B385B7403313B300336F6F003338E0014A
:10320000336838017DB5B389EE41B3076740B3BE7B
:103210003E013386D7413684854409BC13183600F5
:103220009317D701135838003368F80093573700C5
:10323000A5B1B309DF01B307E30033BFE90133866A
:10324000E70193178600E3D807C2B70780FFFD1791
:103250007D8E85440DB10E061318D7010D8233689B
:10326000C800935737002DB133E8C900E30608D0F2
:1032700019B1138805FE93070002B3590301638A4D
:10328000F50093070004B385B7403313B300336FE1
:103290006F003338E001336838013DB30144130750
:1032A000F07FB70708002DBCB309DF01B307E300C7
:1032B000B3BED9013386D70169BB411137078000FE
:1032C0007D1713D8750126C2935475013373A70077
:1032D00093F4F40FB376B7004AC01378F80F13597C
:1032E000F50106C622C4FD819A8726854A86131EEB
:1032F0003300939E3600B3880441630AB90E6350CD
:10330000100D630408149307F00F638BF414B707D0
:103310000004B3EEFE00ED4763C1172993070002D6
:10332000B3871741B397FE00B3D81E01B337F0003F
:10333000B3E7F800B307FE4013975700635E071822
:10334000370400047D147D8C2285EF00D03D6D157F
:10335000B317A4006348951A058D130415001307CD
:103360000002018F3397E7003337E000B3D78700BF
:10337000D98F814413F7770019C713F7F7009146E7
:103380006303D700910713975700635B0714850405
:103390001307F00F4A866383E4169A07A58313F593
:1033A000F40FB2402244A6079314750113D5970079
:1033B000458D7E0692440249518D41018280639978
:1033C000080A138714001377E70F63170714639035
:1033D0000422630D0E1EE3860EFCB307DE41139735
:1033E000570063500722B387CE412E8961B7635CD3
:1033F000100B630E08089307F00F6383F406B707FA
:103400000004B3EEFE00ED4763C9171F93070002E7
:10341000B3871741B397FE00B3D81E01B337F0004E
:10342000B3E7F800F297139757006357070A85042C
:103430001307F00F6384E40CB706007E13D7170060
:10344000FD16858B758FD98F35B7638D0E08FD18E6
:10345000B307DE41E38208EE9307F00FE39DF4EA41
:10346000630D030801461305F00FB707400015BFB1
:1034700033079840EDE863020E147D1763080718C0
:103480009307F00F6319F80E2E893683D1BF638B33
:103490000E04FD18B307DE01E38708F89307F00F69
:1034A000E393F4F675BF63950808850413F7E40FFA
:1034B0006313071263170510630F0E14E3830EEEF8
:1034C000B307DE011397570081446357070037079E
:1034D00000FC7D17F98F854413F77700E31F07E899
:1034E00013D337009307F00FE38CF4F69317930090
:1034F000A58313F5F40F4A866DB54A861305F00FC0
:10350000814745B5370700FC7D17F98F13F7770022
:10351000898CE31407E6E9B73304DE4193175400BE
:1035200063C3070CE31204E201460145814795BDE0
:1035300033079840ADC49307F00FE308F8F4B707DA
:103540000004336EFE00ED4763CCE70C93070002E6
:10355000998FB317FE003357EE00B337F000D98FC1
:10356000F697C284C9B59307F00FE30FF8F0B707D9
:103570000004336EFE00ED4763C3E70893060002C4
:10358000998EB316DE00B357EE003337D000D98FD3
:10359000B387FE40C2842E8945B3854761BB630E65
:1035A0000E067D17B307DE01C284E30E07E693071C
:1035B000F00FE31AF8F8368365B53683C2842E8996
:1035C00015B7E3040EECE38D0EE869BD638D0E02C2
:1035D0002E86B687F9B39307F00FE381F4F2B307B1
:1035E000DE018583D5BD3384CE412E89B1BBE31C7A
:1035F0000EFCE3890EE62E8949BD854725B5854732
:1036000041BFE39B07EC0146814761BBB387CE41D5
:10361000C2842E8915B3B68769B33683C284D9B5FF
:1036200085473DBF3971935775014AD856D25ECE52
:10363000931A95001359F50106DE22DC26DA4ED6E0
:1036400052D45AD093F7F70F93DA9A00CA8B638259
:1036500007121307F00F6384E7128E0A370700047E
:10366000B3EAEA00138A17F80144014B93D77501B6
:103670009394950093F7F70FA58093D9F501FDC7B3
:103680001307F00F6387E7028E04938717F8370755
:103690000004D98C330AFA408146558C1717000074
:1036A0001307C74C0A043A941C4033493901BA97AE
:1036B0008287130A1AF0F9E88946558C171700001B
:1036C0001307C74E0A043A941C4033493901BA978C
:1036D000828701491307F00FB70740001395970041
:1036E000F25062549317770125817E095D8D336511
:1036F0002501D2544259B259225A925A025BF24BD6
:10370000216182801307F00F8147C9BFA68ACE8B43
:10371000368B89476309FB1A8D47E30CFBFA854713
:103720006308FB0A1307FA0713F91B006355E0123D
:1037300093F77A0099C793F7FA0091466383D7000D
:10374000910A93974A0063D90700B70700F8FD175D
:10375000B3FAFA0013070A089307E00FE3C4E7FA85
:1037600093976A00A5831377F70F8DBFB1E4854661
:10377000A9B763940A021144014A054BC5BD639978
:103780000A002144130AF00F094BCDB58D4631B71D
:103790003144130AF00F0D4BD1BD56852EC661275B
:1037A0009307B5FFB39AFA009307A0F8338AA740AE
:1037B0000144014BB2455DBD2685B5271307B5FF12
:1037C000B307AA00B394E400138A67078146F1B5F2
:1037D00013F91B000147814711B741661395540047
:1037E0007D1693570501698E63FA9A0AB3D5FA02DA
:1037F0007D1AD68601473388C502B3F6F602C206A3
:10380000558F637B07012A979386F5FF6368A70AA4
:103810006376070BF9152A9733070741B356F7026A
:103820003377F702B38AC6029317070163FB570188
:10383000AA971387F6FF63E1A70863FF5707F916F6
:10384000AA97C205B38A5741D58DB33A5001B3EA5E
:103850005501CA8BC1BD8546998E11C76D4601477A
:103860008147E34DD6E6130AEA09339A4A01B3D7F2
:10387000DA00B33A4001B3E7570113F7770019C7ED
:1038800013F7F70091466303D7009107139757008A
:10389000634807029A07A583014789B593D61A00A2
:1038A000B3D5F6021397FA0141833388C502B1B745
:1038B000CE8B368B814AB1BDBA8661B7B685A9BFBA
:1038C0000547814721BD13F91B001307F00F8147FE
:1038D00031B593567501B7078000FD1713D67501F2
:1038E00093F6F60F1308F00FB3F8A7001357F5017E
:1038F000ED8F1376F60FFD8163810603630C0601DD
:103900008DE211E2B1C3638E08026305B704054579
:103910001DE78280F5D779558280E39E08FE630912
:10392000D60211E2EDD7E314B7FEE342D6FE63C739
:10393000C600E3EE17FD0145E3FDF8FC01E77D5508
:103940008280F5DD054582800145E39208FC828096
:10395000F9DBD1B78146E1BF797122D413547501E7
:103960004ECE52CC9319950006D626D24AD056CACE
:103970005AC81374F40F93D99900135AF50169C406
:103980009307F00F6308F40E93973900370700048C
:10399000B3E9E700130414F88144014B13D7750110
:1039A000939A95001377F70F93DA9A0013D9F501DC
:1039B00045CF9307F00F630CF7028E0A130717F831
:1039C000B7070004B3EAFA003A94014633452A01E6
:1039D000BD47AA869305140063E0971017170000EF
:1039E0001307C7208A04BA949C40BA9782871304AD
:1039F000F40F63960A0C93E424000946C1BF014505
:103A00001307F00FB7074000B2502254A6075E0715
:103A1000A5837E05D98F92540259F249624AD24A4F
:103A2000424B5D8D45618280CA86D689328B89473B
:103A3000630FFB088D47E304FBFC85473685631065
:103A4000FB1A01478147C9B7639D090413D7750164
:103A5000939A95001377F70F91440144054B93DA3D
:103A60009A0013D9F50131F7639D0A0093E414001D
:103A70000546A9BF63920902A1441304F00F094B44
:103A800031BF56854D219307B5FF098CB39AFA00D3
:103A90001304A4F801461DBFB1441304F00F0D4BED
:103AA000F5BD4E852EC641219307B5FF1304A0F83E
:103AB000B399F900098C8144014BB245C5B593E433
:103AC00034000D4621B78947D286E315FBF63685CB
:103AD0001307F00F81470DBF41639306F3FF13D621
:103AE000090193D80A01B3F7D900B3FADA00338891
:103AF0005703B389F80213570801B30A5603D6993E
:103B00004E9733061603637357011A96C167FD1764
:103B1000B376F7003378F800C206C2969399660030
:103B200093570701B3393001E982B2979A07B3E698
:103B3000D900B3E9D7009397490063D9070013D799
:103B4000190093F71900B369F7002E841307F407DF
:103B50006350E00493F7790099C793F7F900914611
:103B60006383D70091099397490063D90700B7078A
:103B700000F8FD17B3F9F900130704089307E00FE5
:103B800063CBE70493976900A5831377F70FADBD67
:103B90008547B386E74011C76D4601478147E34536
:103BA000D6E61307E4093397E9003337E000B3D7CB
:103BB000D900D98F13F7770019C713F7F70091468B
:103BC0006303D700910713975700634C07009A07C8
:103BD000A583014715BD1307F00F814735B52E8426
:103BE000B5B7054781470DB53706800013577501F6
:103BF0009307F6FF1377F70F9305E007B3F6A700D7
:103C00009357F50163FCE5009305D00963FAE500DD
:103C1000370500801345F5FF3E958280014582807F
:103C200093055009D18E63CDE50013066009330773
:103C3000E64033D7E6003305E040F5F33A8582806D
:103C40001307A7F63397E600FDB7411106C622C455
:103C500026C20DCD9357F54133C4A7001D8CAA840D
:103C60002285D1249307E0093387A7409307600991
:103C7000FD8063CCE702A1469377F70F63D5A600DA
:103C800061153314A4002604258021A081448147B6
:103C90000144260413559400B2402244DE07FE047A
:103CA0005D8D458D9244410182809307900963DDCB
:103CB000E7009307B5019546B317F400898E335496
:103CC000D400B337F0005D8C954763D6A700930707
:103CD000B5FF3314F400B70600FCFD1693777400AB
:103CE0003376D40085C39377F4009145638CB70095
:103CF00011069317560063D707009307F009758ED6
:103D00003387A7401314660025809377F70F51B7C8
:103D1000135775011377F70F41119307170022C44A
:103D200026C21314950006C693F7E70F2580935417
:103D3000F50185C793573400130707387604B20797
:103D40005207B1831395F401D98FC98FB2402285F0
:103D500022449244BE854101828005EB39C422850C
:103D6000D922A94763C6A7042D47098F9307550198
:103D70003357E4003314F4009317C7001307903847
:103D8000098FB1831377F77F5DBF01CC13573400E0
:103D9000B7070800D98FB2077604B1831307F07F05
:103DA00079BF1307F07F814759BF0147814741BF62
:103DB000130755FF3317E40001447DBF93D6450137
:103DC0009397C50093F6F67FB183138616008E078E
:103DD0001357D5011376E67FFD815D8F931835006B
:103DE00035CE138806C89307E00F63DD07018147CE
:103DF000139597009306F00FDE062581FE05558D7D
:103E00004D8D82806355000B931765000E07B33705
:103E1000F000D98F93D8D801B3E7170113F77700D3
:103E20006301071013F7F70091466303D70091076A
:103E3000370700047D8F75C7130718001306F00FAE
:103E40009376F70FE305C7FA9A07A58313959700B2
:103E5000DE062581FE05558D4D8D8280B3671701E5
:103E600099EE85CF95479A07A5831395970093F60A
:103E7000F60FDE062581FE05558D4D8D8280A5DB72
:103E8000B7074000139597009306F00FDE068145B3
:103E90002581FE05558D4D8D8280814713959700B4
:103EA0008146DE062581FE05558D4D8D8280A55704
:103EB0006348F804F94737068000B38707417D451A
:103EC000598E6351F50479573307074113050002F2
:103ED0003357E6006388A700938626CAB316D60038
:103EE000B3E8D800B3371001D98F13F77700014832
:103EF00015FB139757008546E34807F48146A5B79D
:103F000081468DB7938626C83397D8003337E000B3
:103F1000B316D600B3D8F800B367D700B3E7F800FC
:103F2000E9B7C28689B7C167637CF5029307F00FD2
:103F30001307000263EBA70097170000938707CFD2
:103F4000AA9788233305A740828021819717000014
:103F50009387C7CDAA97882361473305A7408280FE
:103F6000B7070001636DF500618197170000938723
:103F7000E7CBAA97882321473305A7408280418158
:103F800097170000938787CAAA978823414733056C
:103F9000A7408280B3C7A5008D8B3307C50081E79A
:103FA0008D4763EDC700AA87637EE50894218507E6
:103FB0008505A38FD7FEE3EBE7FE8280937635007D
:103FC000AA8789CA942185078505A38FD7FE93F612
:103FD0003700C5BF9376C7FF138606FE63F0C7069A
:103FE00083A3050083A2450083AF850003AFC5000E
:103FF00083AE050103AE450103A3850183A8C50176
:104000009385450223A0770003A8C5FF23A257008C
:1040100023A4F70123A6E70123A8D70123AAC701F8
:1040200023AC670023AE17019387470223AE07FF37
:1040300075B790419107910523AEC7FEE3EBD7FE1C
:10404000E3E6E7F6828035713ECBB707008093C781
:10405000F7FF3ECE3EC8C1779387872032C536C76B
:104060003AC942CD46CF3ECA938781802AC42ACC22
:10407000884334012E862C0086DE36C2FD28A247F6
:1040800023800700F6500D618280AA87850703C749
:10409000F7FF6DFF3385A7407D15828001114AC867
:1040A00003A9850022CC52C45AC006CE26CA4EC6E9
:1040B00056C22E84328B368A63E82609DE2513F732
:1040C000074849C304408C495848AA8AB389B44078
:1040D0008D44B384E4020947B3C4E4021387160095
:1040E0004E9763F3E400BA8493F70740ADCFA685FB
:1040F0005685692F2A891DE1B14723A0FA005E2465
:104100007D5593E707045EA4F2406244D2444249DD
:10411000B249224A924A024B056182800C484E867F
:10412000EFF05FE75E2493F7F7B793E707085EA425
:104130002328240144C84E99B38434412320240108
:1041400004C4528963732A01528908404A86DA8579
:10415000892D1C440145B38727411CC41C403E994E
:104160002320240155B726865685EF00007F2A8933
:1041700061F10C4856858D2D41B7DE25717126D32E
:104180004AD14ECF06D722D552CD56CB5AC95EC79B
:1041900062C566C393F70708AA892E89B284B1C3A2
:1041A0009C49A1E39305000436C6CD252320A90030
:1041B0002328A900B24615E1B14723A0F9007D5597
:1041C000BA502A549A540A59FA496A4ADA4A4A4B66
:1041D000BA4B2A4C9A4C4D61828093070004232AE3
:1041E000F90093070002A30CF1029307000302DA1F
:1041F000230DF10236CE930B5002971A0000938ADA
:10420000EAB2054C294B26841C2099C36398770990
:10421000B30C9440638E0C00E6862686CA854E85D4
:10422000EFF0DFE7FD576308F518D256E69636DA69
:104230001C2063820718FD579304140002D002D695
:104240003ED202D4A301010682DC8C20154656859D
:104250002D2B13841400825721E513F7070109C79A
:1042600013070002A301E10613F7870009C713072C
:10427000B002A301E10694201307A002638AE602BC
:10428000B25726848146254618209305140013074B
:1042900007FD6372E6068DC63ED61DA00504ADB7C8
:1042A000330555413315AC00C98F3ED0A28471BF90
:1042B000724793064700184336CE634707023AD643
:1042C00018209307E002631DF70418309307A0023B
:1042D000631BF702F2470904138747009C433ACE59
:1042E00063C107023ED22DA83307E04093E72700C1
:1042F0003AD63ED0F1B7B387670385462E84BA9786
:1043000061B7FD57C5B7050402D2814681472546EE
:10431000182093051400130707FD6374E606F9F2ED
:104320000C200D46171500001305C5A0B92911CDA5
:1043300097170000938707A01D8D93070004B3977C
:10434000A700025505045D8D2AD00C2019461715CB
:1043500000001305659E93041400230CB10235215F
:1043600025C597C7FFFF9387E7C995E70257F2472F
:104370001377071009CF91073ECED257D2973EDA76
:1043800059B5B387670385462E84BA9751B79D0701
:10439000E19BA107D5B7780897060000938646D021
:1043A0004A860C104E8597000000E7000000FD577C
:1043B0002A8AE314F5FC8357C9007D5593F7070457
:1043C000E39007E05255EDBB78089706000093860E
:1043D00026CD4A860C104E85012AD1BF797156CA66
:1043E0009C49BA8A984522D426D24ECE52CC06D6C3
:1043F0004AD05AC85EC6AA892E84B284368A63D34C
:10440000E700BA879CC00347340419C385079CC0E2
:104410001C4093F7070281C79C4089079CC0032971
:10442000040013796900631A0900130B9401FD5B02
:104430005C449840998F634CF9041C4083463404D3
:1044400093F70702B336D000A5EB13063404D285E8
:104450004E85829AFD576303F5041C40114698402F
:10446000998B544481446397C700B384E64063D377
:10447000040081441C4418486354F700998FBE948B
:10448000014969047D5B63982405014509A88546B7
:104490005A86D2854E85829A631E75017D55B2502B
:1044A000225492540259F249624AD24A424BB24BC8
:1044B000456182800509ADBF3307D40013060003B0
:1044C000A301C7040347540493871600A2978906E3
:1044D000A381E7049DBF85462286D2854E85829AB8
:1044E000E30E65FB050945B7797122D426D24AD07F
:1044F0004ECE06D652CC56CA5AC8B689942D9307CA
:1045000090063289AA842E8413863504638DF602C0
:1045100063E2D706930780056386F61863EDD7003C
:10452000638E062093073004638EF60A930A2404F0
:104530002301D404C9A0930730066385F60A9307C4
:104540004006E395F6FE1C40084393F607089305E2
:104550004500C5C61C410CC363D807001307D00231
:10456000B307F040A301E404970600009386467D5C
:10457000294765A8930700076382F61663E5D7020B
:104580009307E0066389F6189307F006E390F6FABE
:104590000C401C4313F80508138547006307080601
:1045A00008C39C4385A893075007E383F6FE93074F
:1045B00080076389F61293073007E399F6F61C43E8
:1045C000D04181459386470014C383AA07005685CE
:1045D0006D2A01C53305554148C05C401CC8A30184
:1045E000040461A81C43930A2404938647009C4357
:1045F00014C32301F4048547D5B793F607041C417F
:104600000CC3B9DAC207C18781BF93F5050408C39B
:10461000C9D99E231307F0066387E60E97060000AC
:10462000938606722947A30104044C400CC463C559
:10463000050008406D9908C099E3B28A89CDB28A15
:10464000B3F5E702FD1AB6958C212380BA00B3D5E5
:10465000E70263F0E70CA147631EF7001C40858B5F
:1046600091CB58401C4863C7E70093070003A38F12
:10467000FAFEFD1A3306564110C84E87CA867000EE
:10468000A2852685EFF09FD57D5A631D450B7D558C
:10469000B250225492540259F249624AD24A424BD1
:1046A00045618280A382D5049706000093864669FF
:1046B0000C40084313F805081C411105630D08025E
:1046C00008C313F7150001C793E505020CC0414765
:1046D000B9FB0C4093F5F5FD0CC0B1B79C4193E7D5
:1046E00007029CC193078007A302F4049706000009
:1046F0009386466675BF13F8050408C3E30308FCF8
:10470000C207C1837DBF9706000093866663214779
:1047100019BFAE8735B794411C43CC4913F806083E
:10472000138547006306080008C39C438CC339A067
:1047300008C393F606049C43F5DA8EA323280400ED
:10474000B28A25BF14485686CA8526858299E30019
:1047500045F51C40898B8DE7B2474844E35AF5F292
:104760003E853DB785465686CA8526858299E300F3
:1047700065F3050A5C443247998FE345FAFEE9BFC9
:10478000014A930A94017D5BF5B793F5F50F2A96DC
:104790006314C500014582801C21E38EB7FE050528
:1047A000C5BF63F1A504B386C500637DD5029345FB
:1047B000F6FF8147FD176393F50082803387F6008B
:1047C000034807003387C7002A9723000701DDB796
:1047D0003387F50014233307F500850714A3E31985
:1047E000F6FE82808147E5BFCDC183A7C5FF411199
:1047F00022C406C626C21384C5FF63D307003E94B5
:10480000AA84E92A938741829C4399EB23220400DE
:1048100023A281822244B240268592444101C1A252
:10482000637EF40014403307D4006396E700984396
:10483000DC43369718C05CC0E1BFBA87D84319C3C0
:10484000E37DE4FE94433386D700631F8600104067
:10485000B29694C33386D700E31EC7FA1043584379
:10486000B29694C3D8C37DB76375C400B1479CC0EA
:1048700055B71040B306C4006316D700144358431D
:10488000B29614C058C0C0C371B78280011126CA45
:1048900093843500F19806CE22CC4AC84EC6A104B6
:1048A000B14763F1F404B14463E0B4042A893D22C2
:1048B0009387418298433A8431E0938781829C4375
:1048C00091E781454A85F52023A4A182A6854A85E2
:1048D000CD20FD5963173507B1472320F9004A85DC
:1048E000FD2829A0E3D204FCB1471CC10145F240D8
:1048F0006244D2444249B249056182801C40858F9E
:1049000063CE0702AD4663F6F6001CC03E9404C0B9
:1049100031A05C406312870223A2F1824A85C12044
:104920001305B4009307440061993307F54061D340
:104930003A94898F1CC065BF5CC3CDB722874040C5
:10494000A5BF130435007198E30385FCB305A440AB
:104950004A858520E31D35FB41B781E5B2856FF0BF
:10496000FFF2011122CC06CE26CA4AC84EC63284B6
:1049700001EEEFF07FE70149F24062444A85D244FC
:104980004249B24905618280AE84AA89912826896C
:10499000E37485FEA2854E85EFF05FEF2A8969DD1D
:1049A000A6852286EFF00FDFA6854E85EFF0DFE3C8
:1049B000E1B7411122C42A842E8523A6018206C6AE
:1049C000EFC05FF4FD576317F5009387C1829C43E6
:1049D00091C31CC0B2402244410182808280828007
:1049E00083A7C5FF1385C7FF63D50700AA959C4120
:1049F0003E958280000080BF0000803F0000803F25
:104A00000000803F0000803F0000803F000080BF2A
:104A10000000803F000080BF0000803F0000803F1A
:104A2000000080BF000080BF000080BF0000803F0A
:104A30000000803F000080BF0000803F000080BF7A
:104A4000000080BF000080BF0000803F000080BFEA
:104A5000000080BF000000002342920CA19CC73BD5
:104A600000000060FB21194000000060FB210940AC
:104A70000000000000C06640000000000000F03FA1
:104A800000000000008060400000000000805640F0
:104A90000000000000004C400000000000003E400C
:104AA0000000000000002840000000000000E03F7F
:104AB0000000003F0000A041000096420000C842F4
:104AC000DB0FC940FDAD803D48656C6C6F20576FB2
:104AD000726C642100000000256920687A000000E3
:104AE00000000060FB21F93FB4D7FFFF38D6FFFF7D
:104AF00048D7FFFF50D7FFFF48D7FFFF68D6FFFF1B
:104B000048D7FFFF50D7FFFF38D6FFFF38D6FFFF4B
:104B100068D6FFFF50D7FFFFAAD7FFFFAAD7FFFF36
:104B2000AAD7FFFF68D6FFFFACDDFFFF9EDCFFFFCB
:104B30009EDCFFFF9CDCFFFFA4DCFFFFA4DCFFFF8B
:104B40006ADCFFFF9CDCFFFFA4DCFFFF6ADCFFFFE9
:104B5000A4DCFFFF9CDCFFFF98DDFFFF98DDFFFF7B
:104B600098DDFFFF6ADCFFFF72ECFFFF9CEBFFFFAD
:104B70006CECFFFFA4EBFFFF6CECFFFF6AEBFFFFA9
:104B80006CECFFFFA4EBFFFF9CEBFFFF9CEBFFFF38
:104B90006AEBFFFFA4EBFFFFAAEBFFFFAAEBFFFF0F
:104BA000AAEBFFFF6AEBFFFF5CEBFFFF5CEBFFFF95
:104BB0002CECFFFF08EDFFFF2CECFFFF2AEBFFFFC3
:104BC0002CECFFFF08EDFFFF5CEBFFFF5CEBFFFF52
:104BD0002AEBFFFF08EDFFFF6AEBFFFF6AEBFFFF29
:104BE0006AEBFFFF2AEBFFFFF0EEFFFF42EEFFFF55
:104BF00042EEFFFF40EEFFFF46EEFFFF46EEFFFFF7
:104C000016EEFFFF40EEFFFF46EEFFFF16EEFFFF42
:104C100046EEFFFF40EEFFFFDEEEFFFFDEEEFFFFA2
:104C2000DEEEFFFF16EEFFFF0001020203030303A7
:104C3000040404040404040405050505050505052C
:104C4000050505050505050506060606060606060C
:104C500006060606060606060606060606060606F4
:104C600006060606060606060707070707070707DC
:104C700007070707070707070707070707070707C4
:104C800007070707070707070707070707070707B4
:104C900007070707070707070707070707070707A4
:104CA000070707070707070708080808080808088C
:104CB0000808080808080808080808080808080874
:104CC0000808080808080808080808080808080864
:104CD0000808080808080808080808080808080854
:104CE0000808080808080808080808080808080844
:104CF0000808080808080808080808080808080834
:104D00000808080808080808080808080808080823
:104D10000808080808080808080808080808080813
:104D20000808080808080808232D302B2000000078
:104D3000686C4C0065666745464700003031323389
:104D40003435363738394142434445460000000087
:104D500030313233343536373839616263646566F1
:044D6000000000004F
:104D6400000000000000000000000000000000003F
:104D7400000000000000000000000000000000002F
:104D8400000000000000000000000000000000001F
:104D9400000000000000000000000000000000000F
:104DA40000000000000000000000000000000000FF
:104DB40000000000000000000000000000000000EF
:104DC40000000000000000000000000000000000DF
:104DD40000000000000000000000000000000000CF
:104DE40000000000000000000000000000000000BF
:104DF40000000000000000000000000000000000AF
:104E0400000000000000000000000000000000009E
:104E1400000000000000000000000000000000008E
:104E2400000000000000000000000000000000007E
:104E3400000000000000000000000000000000006E
:104E4400000000000000000000000000000000005E
:104E5400000000000000000000000000000000004E
:104E64000000000000000000183C3C181800180066
:104E7400363600000000000036367F367F363600B6
:104E84000C3E031E301F0C00006333180C666300D5
:104E94001C361C6E3B336E00060603000000000047
:104EA400180C0606060C1800060C1818180C060038
:104EB40000663CFF3C660000000C0C3F0C0C00003C
:104EC40000000000000C0C060000003F0000000081
:104ED40000000000000C0C006030180C06030100F8
:104EE4003E63737B6F673E000C0E0C0C0C0C3F0092
:104EF4001E33301C06333F001E33301C30331E007B
:104F0400383C36337F3078003F031F3030331E0087
:104F14001C06031F33331E003F3330180C0C0C00E7
:104F24001E33331E33331E001E33333E30180E003F
:104F3400000C0C00000C0C00000C0C00000C0C0607
:104F4400180C0603060C180000003F00003F000088
:104F5400060C1830180C06001E3330180C000C0018
:104F64003E637B7B7B031E000C1E33333F333300D5
:104F74003F66663E66663F003C66030303663C008C
:104F84001F36666666361F007F46161E16467F006D
:104F94007F46161E16060F003C66030373667C00EC
:104FA4003333333F333333001E0C0C0C0C0C1E0014
:104FB4007830303033331E006766361E366667003D
:104FC4000F06060646667F0063777F7F6B63630088
:104FD40063676F7B736363001C36636363361C0013
:104FE4003F66663E06060F001E3333333B1E380011
:104FF4003F66663E366667001E33070E38331E0072
:105004003F2D0C0C0C0C1E003333333333333F0071
:1050140033333333331E0C006363636B7F77630076
:105024006363361C1C3663003333331E0C0C1E00C2
:105034007F6331184C667F001E06060606061E00B6
:1050440003060C18306040001E18181818181E00AB
:10505400081C36630000000000000000000000FF90
:105064000C0C18000000000000001E303E336E00DF
:105074000706063E66663B0000001E3303331E002F
:105084003830303E33336E0000001E333F031E00C1
:105094001C36060F06060F0000006E33333E301F29
:1050A4000706366E666667000C000E0C0C0C1E00BC
:1050B400300030303033331E070666361E36670044
:1050C4000E0C0C0C0C0C1E000000337F7F6B630075
:1050D40000001F333333330000001E3333331E000C
:1050E40000003B66663E060F00006E33333E3078A8
:1050F40000003B6E66060F0000003E031E301F00DA
:10510400080C3E0C0C2C18000000333333336E00B3
:1051140000003333331E0C000000636B7F7F3600C6
:10512400000063361C36630000003333333E301F07
:1051340000003F190C263F00380C0C070C0C3800FB
:105144001818180018181800070C0C380C0C070055
:105154006E3B0000000000000000000000000000A2
:10516400000000000000000000000000000000003B
:10517400000000000000000000000000000000002B
:10518400000000000000000000000000000000001B
:10519400000000000000000000000000000000000B
:1051A40000000000000000000000000000000000FB
:1051B40000000000000000000000000000000000EB
:1051C40000D8B8059004002000040020000000006E
:00000001FF
