:100000006F203046130000001300000013000000B2
:100010001300000013000000130000001300000094
:100020001300000013000000130000001300000084
:08003000130000007300100032
:100038000000000000000000282200002C22000020
:1000480000000000FA2B0000000000000000000083
:10005800FC2B0000FE2B0000000000000000000048
:10006800002C000000000000022C0000000000002E
:10007800042C0000062C0000082C00000A2C0000AC
:100088000C2C00000E2C0000102C0000122C00007C
:10009800142C0000162C0000182C00001A2C00004C
:1000A8001C2C00001E2C0000202C0000222C00001C
:1000B800242C0000262C0000282C00002A2C0000EC
:1000C8002C2C00002E2C0000302C0000322C0000BC
:1000D800342C0000362C0000382C00003A2C00008C
:1000E8003C2C0000B8020000402C0000422C00000C
:1000F800442C0000462C0000482C00004A2C00002C
:100108004C2C00004E2C0000502C0000522C0000FB
:10011800542C0000562C0000582C00005A2C0000CB
:100128005C2C00005E2C0000602C00000000000029
:080138000000000000000000BF
:10014000397101436EC619A0397141536AC866CA34
:1001500062CC5ECE19A0397101535AD056D252D416
:100160004ED64AD826DA22DC06DE3301614082828E
:1001700041114AC026C222C406C68282B24D410144
:10018000024D924C224CB24B4101024B924A224A00
:10019000B2494101024992442244B2404101828065
:1001A0003D432A876373C3029377F700BDEFADE544
:1001B000937606FF3D8ABA960CC34CC30CC74CC756
:1001C0004107E36BD7FE11E28280B306C3408A0683
:1001D0009702000096966780A6002307B700A30643
:1001E000B7002306B700A305B7002305B700A30493
:1001F000B7002304B700A303B7002303B700A3028B
:10020000B7002302B700A301B7002301B700A30082
:10021000B7002300B700828093F5F50F9396850011
:10022000D58D93960501D58D61B7939627009702DA
:10023000000096968682E78086FA9680C1171D8F09
:100240003E96E374C3F8A5B7EFF29FF20111AA84BA
:100250002E840945854502CA02CC231E010002C630
:1002600002C8EF201056E082370400404C08130506
:100270000440E484231D0100231B0100EF20B05C37
:100280000546854513050440EF2010649307D012FE
:100290007C8689475C87680085473EC8EF20D0365A
:1002A000854513050440EF20B060B7E700E009671B
:1002B00023A2E7100561F9BD411122C637040040B1
:1002C000854513050440EF20506151CD8545130548
:1002D0000440EF2010629386C11D9022894763F489
:1002E000C70890328D45DC326313B6041307A010A3
:1002F0003387E702938781CA8146BA9703C807000C
:100300006303D80688273E86014709A8834516025D
:1003100005071377F70F8505A300B6020506E31757
:10032000E5FE850693F6F60F93872704D1BFA54512
:10033000631BB6021305A010B387A702938581CA79
:1003400003C366001387C11D8146138581CA094E08
:100350008D4E130FA010AE9783C52702850523810C
:10036000B7026316D30032444101730020307C335E
:100370006374FE041C276391D7055C278145B3870E
:10038000E703AA9783C207006388B20283CF87007E
:100390003E88014609A88348180205061376F60F21
:1003A0008508A30018030508E397CFFE850593F59C
:1003B000F50F93872704C9BF850693F6F60F190733
:1003C0004DB75821A1466305D700FC256395D7009A
:1003D000A1471CA282809D466304D7006394D70086
:1003E0009D47C5BF8D466304D7006394D7008D47F2
:1003F000CDB7A5466304D7006394D700A547D1BF06
:10040000FD57C1BFEFF2DFD33755000001111305CF
:1004100045BC1384C11DEF30E00F8144938A41C96C
:10042000375B0000930B140013054006EF2070614A
:10043000850493F4F40F214533159500EF20706087
:100440000145EF10007B01498149930C3400194D9F
:10045000130C40066685EF10C07E19E5850993F9F7
:10046000F90F636A3D110149050942090545135910
:100470000901EF20105DE31F89FD9547E3F697FA28
:10048000D94521A837550000130545BEEF20507708
:100490009547E3FB97F8930550042E850561F9B95C
:1004A000375C000013050CBFEF30C0061545230173
:1004B0002401EF20105937550000130545BFEF20E8
:1004C00030744820938541899306E101130600406A
:1004D000EF107027AA85938D418935E503CD5D0026
:1004E0000149BC876365F90413850CBBEF308002BA
:1004F0005E86938541895685E9350C303755000075
:10050000130545C0EF20D06F37550000130545C1D6
:10051000EF20106F4820EA85EF101032AA8521E104
:100520002AC613050CBFEF20F07EB245BDB7B387D6
:100530002D018C2305091305CBBC4209EF20506C1B
:100540001359090179BF37550000130545BEEF2047
:10055000306B9547E3FA97EC930570043DBF375530
:100560000000130545BEEF20B0699547E3FE97EA0A
:100570009305B00F1DB737550000130505C2EF20D6
:100580003068938541C913054400EF10F017AA8520
:10059000E31A05EE0149C949B3872A018C231305E3
:1005A000CBBC0509EF20D065E31839FFB75C00002C
:1005B00013850CBBEF20107637550000130545BDA1
:1005C000EF20106448208945094923012401EF10D8
:1005D0007023AA85E30605EC37550000130545BED8
:1005E000EF2010629547E3F197E49305600475B539
:1005F000EFF29FB5130AA010330A4503938981CA0D
:100600002A8CAE8A8144014413894189894B338BFA
:1006100049018347390003472900A207BA97635C61
:10062000F41AB3078900983363127703DC23114768
:10063000637BF7002300EB00B30789009C233E9403
:1006400042044180F9B72300FB00FDB79146E31750
:10065000D7FE6382E418D4330D476390E616F8237F
:10066000854663EDE612F83363EAEB12631DD70AA1
:1006700093072004B387F402D297CE97B8A381469C
:100680000146A6855685EF10702CB30789009C2380
:1006900093081002130750083E9493072004B38771
:1006A000F402034329004204418081460145114E72
:1006B000954E33881403D297CE973307EC023A98BD
:1006C0003307890010336308C60B6376640A0C2372
:1006D0002E94420441806318D60950332C23034FD3
:1006E0004700220693F2F5007A96E2054206E1857C
:1006F000834F3700418263D305047823338FA700EB
:10070000B305A800230FEF009827A1058605CE9515
:1007100005070505A3045F00A306FF01B2A198A782
:100720001375F50F71BFE31277F793072004B387B2
:10073000F402D297CE972381770191B73387D70000
:10074000A3035702A305F7033307D80041070607A1
:100750004E9712AB03C76702850693F6F60F05079F
:100760002383E702B1BFE31D16F510277833220675
:10077000518FDAA3B1B78547639EF6009307200433
:10078000B387F402D297CE97B8236315D7007D576D
:100790002380E704850493F4F40FA5BD9307200498
:1007A000B387F4027D57D297CE97B8A3B3078900D9
:1007B0009C233E9442044180F1BF93072004B384FC
:1007C000F4029307A010330CFC02FD57269C93847F
:1007D00081CAE294BCA0014565B283C641899547B0
:1007E0006395F6181387418914338547639FF6167E
:1007F0003423A547639BF616343399476397F6165F
:10080000930620041308A01033080503138681CA39
:10081000011122CE26CC4ACA4EC852C656C4B3864F
:10082000D5025AC25EC091470143814E014F014E2D
:10083000938881CA1144C296369683534600014874
:10084000930F000793040008930200092149C1494E
:10085000130A0002854A63E07704A147631AF30E86
:10086000930720041307A010B387F5023307E502AE
:10087000BA97B385F80083C7050481E785472380CD
:10088000F5047244E2445249C249324AA24A124B28
:10089000824B05618280B306F70094228507C20768
:1008A00093FBC60013FB3600C18393F6060F638DDE
:1008B0008B02638B2B0763950B02639356026301D4
:1008C0000802B386EE033693420313530301630910
:1008D0000E008346C60389E6230E5603A30EC60305
:1008E000DA97C207C18385BF638BF60363EBDF0032
:1008F000E5FAB306F70003C80600611813381800BC
:10090000C5B763899600E39D56FCB306F70083CE16
:100910000600F9B7B306F70003CE0600D1B7B30659
:10092000F70003CF06006DBF638C3601E39A46FBE8
:10093000E30808FAB306F7009422A30FD6024DB7D6
:10094000E30008FAB306F7009422230FD60249BF4A
:1009500093072004B387F5029305A0103305B50271
:10096000AA97C6972380070429BF8280EFF24FFD24
:10097000930AA010B30A5503938781CA41112A8BA9
:10098000AE8C014A938981CAD6978423D68B3EC602
:10099000C5C8B247130920048023058C1374F40FD3
:1009A00033092403B3077901CE97DE23B5CF9387AC
:1009B0004A003E994E99B75D0000154DB7570000AB
:1009C000A285138587ABEF20B023A285CA86138644
:1009D00041896685050AEF106072137AFA0FAA85BD
:1009E00021E91309200433092403014DB75D0000F8
:1009F0005E994E9929A893874189EA978C23050D22
:100A00001385CDBC420DEF20B01F135D0D01835740
:100A10004900E362FDFE37550000130505BBEF20DA
:100A2000702FA2855A85553BFD1493F4F40F8DB7B2
:100A300013854DBEEF20D01CE3724DF99304800462
:100A4000268541016FF08FF31307A0103305E502EF
:100A500093874189B033BC232206938681CA3E9690
:100A600093854189814709431148254E954E369516
:100A7000854863C4C700014582803387F500034F72
:100A800007001433FA97C207C183639A660058239C
:100A900063F5E80023001501E9BF18A1D9BFE39A67
:100AA00006FD5833E317C7FD3387F5001433E3829F
:100AB00006FDE3D0C7FC034F0700FA97C207C183C6
:100AC000E394D6FF3423139F8601135F8F41E35DC8
:100AD0000FFCBD8A14B53433034F470054B554336B
:100AE0007823A20678AD1825FA9636A9050718A529
:100AF00065BFEFF24FE6375500004111130505AE13
:100B0000EF205021375500001305C5AEEF20500FE0
:100B10009387C11DC8330D3FAA89631A052637552F
:100B20000000130505BFEF20F01E93874189FC23C9
:100B30001384C11D9384418995CF37550000130557
:100B400005B0EF20F00BEC20482013864189EF1010
:100B50000046AA8563180512375A0000982093971B
:100B60000901C18363E7E71037550000130505BB92
:100B7000EF20501A938741C9FC27938941C9A1C32B
:100B800037550000130545B1EF20900783C5E900F4
:100B9000482013864189014AEF106041AA856313FA
:100BA0000510B75A0000982093170A01C18363E229
:100BB000E70E37550000130505BBEF20B01583C7BE
:100BC000F900A1C337550000130585B2EF2050038B
:100BD00083C5F900482013864189014AEF10203D62
:100BE000AA856311050EB75A0000982093170A01D1
:100BF000C18363E0E70C37550000130505BBEF2008
:100C0000701183C709019DCF375500001305C5B387
:100C1000EF20007F83C5090148201386418981495F
:100C2000EF10E038AA855DED375A000098209397C1
:100C30000901C18363EFE70837550000130505BBC1
:100C4000EF20500D37550000130505B5EF20407B10
:100C5000154AB75A000048201306E10093854189E0
:100C6000EF100059AA89631405100149375A000092
:100C700061A8B38734018C231305CABC8509EF2012
:100C80002078E9BD37550000130545BEEF204077B9
:100C9000D5B5B38744018C231385CABC050AEF2060
:100CA000207611B737550000130545BEEF2040757B
:100CB00039B7B38744018C231385CABC050AEF20DA
:100CC000207425B737550000130545BEEF2040734B
:100CD0000DBFB38734018C231305CABC8509EF20EF
:100CE0002072A9B737550000130545BEEF204071AB
:100CF00091BFB38724018C2305091305CABC42099F
:100D0000EF200070135909013C87E364F9FE375561
:100D10000000130505BBEF20E07FB820914763E694
:100D2000E70478A06C2037550000130505B6EF20C6
:100D3000206D01498544114A7C2063E697044820D0
:100D4000214693F5F40FEF10404801CDFD1405093D
:100D50001545C2041379F90FEF20A04EC1806362DC
:100D60002A038504C204C180C1BF7CA065BF7D1A6F
:100D7000CE8513854ABE137AFA0FEF206068E31C14
:100D80000AEC9309E00F4E8541016FF00FC0AA8570
:100D900037550000130545BEEF208066EDB7EFF232
:100DA0008FBB9C214111B3D7A740858B99E71304D2
:100DB000E00F228541016FF04FBD9389C11DAA85C7
:100DC000AA8403C5490070001389C11DEF10C03A01
:100DD0002A8409C9AA85375500001305C5A1EF204B
:100DE0002062C1BF1C87858BF9D303C549004146EA
:100DF000A685EF10203B2A84294A19CDAA853755AC
:100E00000000130505A3E1BF1C8705041374F40F4C
:100E1000858B85C7E30D44F9034549007000A6851D
:100E2000EF108035AA896DD1AA85375500001305CA
:100E300045A4EF20E05C4E84ADBFA947E309F4F67A
:100E40001C86858BADF737550000A685130585A553
:100E5000EF20005B5944B1BFEFF2EFAF9C2141118D
:100E6000B3D7A740858B99E71304E00F2285410192
:100E70006FF0AFB19387C11DAA852A89C823114697
:100E80009389C11DEF1060342A8409C9AA8537559A
:100E900000001305C5A6EF20A056C9BF2945EF20C5
:100EA000403A2D4A03C549007000CA85EF10C02C96
:100EB000AA8411C9AA8537550000130505A8EF209B
:100EC0002054268465B71C8705041374F40FC18B66
:100ED00085EBE31944FD03C549005146CA85EF106F
:100EE000602C2D4A03C549007000CA85EF10C02848
:100EF0002A8419C9AA8537550000130545A961BF81
:100F0000A947E303F4F6C1BF1C87850493F4F40FEB
:100F1000C18B99CFE39844FD1C86858BB1D737559B
:100F20000000CA85130585AAEF20804D55443DBFBA
:100F3000A947E38BF4F2CDB7EFF28FA32E842E8670
:100F4000AA8503C5011EEF10202311E91C3013F7F9
:100F5000270011E713F547003335A00005056FF0B2
:100F60006FA3EFF26F9E2A893755000041111305D8
:100F7000C5B72E8C328AEF20E0599947B307F902A2
:100F80009389C11DA9441384C11DDA8AB75B00008F
:100F9000AD07BE99938541C94E85EF00F076AA85CD
:100FA0005DE1B75900008144938C41C9C94B4E8B18
:100FB000B3879C008C231385C9BC8504EF20404473
:100FC000E39874FF9944B3049902B759000013855C
:100FD00009BBEF20205437550000130505B9EF2059
:100FE0006053A94BB75C0000A294CC24A8348905B7
:100FF00093F5F50FEF100001AA853DE1994BB30B76
:101000007903DC24154589072300FC00EF206023C9
:1010100037550000130505BAEF20C04FA944A29B25
:10102000668C375D000003C5BB009385418993063C
:10103000E10013060040EF001071AA8555ED8144D0
:10104000938B4189A1A0FD1413854BBE93F4F40F3B
:10105000EF20003BA1F01305500441016FF04F92C7
:10106000FD1B13854CBE93FBFB0FEF206039E39E05
:101070000BF613056004D5B7B3879B008C2385045A
:101080001305CBBCC204EF20A037C1803C87E3E549
:10109000F4FE138509BBEF20E04752869385418912
:1010A000138541C983C95B00EFF0AFB183450A00E6
:1010B00037550000130545C0EF2080343755000038
:1010C000130545BBEF20004599473309F902A944B0
:1010D0004A94375900002834CE85EF00F07535DD8D
:1010E000FD14AA8593F4F40F130549BEEF20403197
:1010F000FDF01305900495B7FD1413054DBE93F450
:10110000F40FEF20E02FE39004F2B1B7EFF24F833A
:10111000130D2004338DA5039305A0103289368C5E
:101120008549094B8D4B3305B5026A95138D81CAEC
:101130002A9D034AED0383441D04834AFD03D28D97
:1011400033844D411374F40F834C1D0463FABA01C8
:10115000338494413334800023018D046FF00F8277
:10116000639F3D016286930530054A85EF20A01CF0
:1011700033948D0005E1850D93FDFD0FD1B763908C
:101180006D036286930590034A85EF20C01A65D5EA
:101190003394890033449401A3008D04E9BFE39C98
:1011A0007DFD628693057004C5B7EFE27FFCAA86D9
:1011B0001308A0102E85B285130620043388060379
:1011C000938781CA4111138781CA3386C50242962B
:1011D000B29703C8C70303C617046300080483C794
:1011E000D703D0865C8689471306A0107C879307B7
:1011F0002004B386C6028548B387F5023388D7003A
:101200003A9803460804631D16019306E100700036
:10121000EF00707141016FE0FFF750868547E9B735
:101220009305F00F0145E317B6FE93878703B69742
:101230000345780234877000B305F700EF0050686B
:10124000D1BFEFE27FF0AA8A37550000130545AD04
:101250002E8AEF20202C375500001305C5AEEF2055
:10126000201AD2855685EFF0AFB82A8B6313051E7E
:1012700037550000130505BFEF20C029938741892A
:10128000FC23138441899DCB37550000130505B01D
:10129000EF2000176C20138641895285EF003051F2
:1012A000AA8463160510B75900001C2063E6F40EEB
:1012B00037550000130505BBEF20C025D2855685A4
:1012C000EFF0CFEA938741C9FC27938441C99DCBB6
:1012D00037550000130545B1EF208012EC2413862A
:1012E00041895285EF00B04CAA896315050EB75BA2
:1012F00000001C2063E5F90C37550000130505BB01
:10130000EF204021FC349DCB37550000130585B2FA
:10131000EF20000FEC34138641895285EF003049ED
:10132000AA89631C050CB75B00001C2063ECF90A5A
:1013300037550000130505BBEF20C01D9C2895CB39
:10134000375500001305C5B3EF20800B8C2813869A
:1013500041895285EF00B045AA8479E137590000F0
:101360001C2063E4F40A37550000130505BBEF2089
:10137000601A1309A01033892A03938481CA014497
:10138000930B2004054CB389240183C709006361D2
:10139000F40A5A856FE0DFDEB30794008C231385CF
:1013A000C9BC8504EF20C00593F4F40FFDBDAA85E8
:1013B00037550000130545BEEF20800401B7B30781
:1013C00034018C231385CBBC8509EF20600393F98E
:1013D000F90F05B7AA8537550000130545BEEF2064
:1013E00020020DB7B30734018C231385CBBC8509CC
:1013F000EF20000193F9F90F0DBFAA8537550000C2
:10140000130545BEEF10D07F15BFB30794008C23A2
:101410001305C9BC8504EF10B07E93F4F40F89B7AF
:10142000AA8537550000130545BEEF10707D91B7B2
:10143000B3077403CA97A697B82363188701A380DC
:1014400007042286D28556858D3305041374F40F64
:101450002DBFAA8537550000130545BEEF10507A01
:101460000DBFEFE2FFCD03C5C11D01111384C11DE6
:10147000EF0020708547AA846317F51437550000E4
:10148000130505C3EF20000904A0A3020400EFE048
:101490007FF7AA84631D05101C300D47639FE70288
:1014A00037550000130545C4EF109075EF00305814
:1014B0004C20483079332A89375500001305C5C5BB
:1014C000EF1010746317090237550000130505BFAC
:1014D000EF2040048D471CA015A825476393E7081B
:1014E00037550000130545C7EF109071EFF06FE01E
:1014F000D9B7D944630C990037550000CA85130544
:1015000045BEEF10F06F89471CA0CA841820894798
:1015100063F2E7261C300D47034954006394E72229
:10152000930BA010B30B7903138781CA938781CAE9
:1015300081493EC25E973AC05EC43A8C83470C0034
:1015400063FAF92293072004B387F9022247014A7C
:10155000B38AE7001247BA9A1387AB01BA973EC61F
:1015600039AA375500001305C5C8EF1070691C3043
:101570002147638EE7001307F00F6385E7021D47DD
:10158000639DE70037550000130585CA29A037552C
:1015900000001305C5C9EF10B066375500001305EC
:1015A00005CC3DB737550000130545CBEDB7D947FE
:1015B000E30EF5F4AA85375500001305C5CCEF10EE
:1015C0003064894709BF39F1375500001305C5CE8E
:1015D000EF1050747D460349540081451385C11DA9
:1015E000EFE01FBC1305A0103309A902138581CABF
:1015F0001306A01081454A95EFE09FBA01BFB38D55
:101600004A0103C72D0283C6ED016367D70633770E
:10161000D702B24703C59D009306E101B385470198
:10162000924713864189BE952381ED02EF00102574
:10163000AA8441E1AC8713854189014DEF00F04058
:10164000BC876369FD0437550000130505BBEF1027
:10165000706C03C72A0085476310F702B4871386AE
:101660004189CE854A85EFF07FAA83C72A0489C7BE
:101670004C204E864A85153E050A137AFA0F83C719
:101680008A00E36EFAF6D9476386F40E850993F96A
:10169000F90F6DB593874189EA978C23050DB757EC
:1016A00000001385C7BC420DEF109055135D0D016E
:1016B00041BF594D6300A50D1307E002E31EE5FA93
:1016C00037550000130505D0EF10D06483C59D0089
:1016D000482093E50508EF00501803471C00238DB0
:1016E0000D00A54605071377F70FA300EC00E3F5FF
:1016F000E6F87D4681451385C11DEFE07FAAEFE046
:101700007FD0AA841DE983C59D00482093E5050884
:10171000EF00B014024585471306A0108145A300D1
:101720000C001CA0A3020400EFE09FA74C204A85F8
:10173000EFF03FB1AA848D4701C5E38FA4F3894739
:101740001CA01DBF25476397E7029305A01033092E
:10175000B902138A81CA938981CA4A9A83472A02A5
:101760000347EA0163FBE700814A938D41897C20AE
:1017700063E3FA2205616FE07FA0B3F7E702282058
:101780006909138B41892301FA021D2128301D2983
:1017900003459A009306E10113864189B385290127
:1017A000EF00D00DAA8469F183450B003755000086
:1017B0001305C5D0A30EB1000149EF107044B75B0B
:1017C0000000375C0000B75C0000375D0000B75DCB
:1017D00000007C20E37AF9F8130B1900137AFB0F51
:1017E0009305D1015285EFF08FDB5947AA84631529
:1017F000E50419453309A9020547B31767010347F3
:10180000D10193C7F7FF1306A010F98FA30EF100C3
:101810008145B3072401C8279307A0101D0933058C
:10182000F5024E95EFE0DF97194681453305240117
:10183000EFE01F97528971BF13054006EF1070202B
:101840009305D1015285EFF02FE15547AA84631E1D
:10185000E50A9947B307F9020547A297F8B321476C
:10186000B8B7238647019944B30499029385418907
:101870005285EFF06FECB7570000AA85A294A8A498
:10188000138507D2EF10D03788341D26A8241D2ECB
:101890003C3099C7370700501C3393F7B70F1CB380
:1018A000B7570000138507D3EF10D0469947B30709
:1018B000F9024A8513868700938597002296A295A0
:1018C0003EC0EFF00FEAAA8482475DE9330BF400D3
:1018D00003478B008D46631CD704CA8513850DD43E
:1018E0003AC0EF10F0318345BB000345CB00EFF069
:1018F0005F95AA8402471DFD37550000A303EB0046
:101900001305C5D6EF10104135B78346D101054701
:10191000B317670193C7F7FFF58FA30EF10099473F
:10192000B307F902A297FC33E396E7F02DBFCA850F
:1019300013854BD7EF10D02C83478B002147638B47
:10194000E702636DF7001D476389E7021945330914
:10195000A9028D472299A303F900E9BD2547638EAB
:10196000E7001307F00F13054DDAE391E7FEEF10E0
:10197000703AE9BF1305CCD8DDBF13858CD9C5BF3C
:10198000A2970947F8B3B7570000CA85138507DB4C
:10199000EF10102745B59947B387FA028D46A297F5
:1019A000F833631AD71094276397E61003CDC70066
:1019B000130CA010014A330C8D03B387890162C058
:1019C0003EC292479C236378FA0E930C2004B30C1A
:1019D0009A03194B82470149338B6A03B38BFC008E
:1019E000CE9B229B55A833872B0183472702742F58
:1019F00063E1D70AB3F7D70203459B002301F7023F
:101A0000452A0345AB007D2A3C3099C73707005073
:101A10001C3393F7B70F1CB3B3872B019305AC01AD
:101A2000E6958837CA959306E10113864189CE95DC
:101A3000EF00C064AA8425ED814739A83387FD00F3
:101A40000C233EC4B75700001385C7BCEF10501BD2
:101A5000A2478507C207C183B887E3E1E7FE375590
:101A60000000130505BBEF10F02A03C72B008547C4
:101A70006311F702B4876E86D2856A85EFF00FE9AD
:101A800083C72B0499C78345BB0052866A85EFF054
:101A9000CFF105091379F90F83C78B00E365F9F4DA
:101AA000D9476389F400050A137AFA0F19BFD94799
:101AB000E311F5FED944850A93FAFA0F4DB93707B9
:101AC00000501C2393F7F70B1CA31C3393F7B70F9D
:101AD0001CB37E3BC207C18393F7F7BFC207C18324
:101AE0007EBB8280EFE2CFE8B707002003A707485C
:101AF000B74795089387074009456300F702B7E7A2
:101B0000B8059387078005456309F700B777DC02BE
:101B1000938707C06315F7000145EF1040398545ED
:101B20000565EF1040466FE0EFE6EFE26FE48547B2
:101B3000370400506317F50299471CA02945EF10A0
:101B4000E06C930790F8230004001CA09307800426
:101B50005CB49387C11F1CCC9387C1235CCC6FE01E
:101B60006FE399471CA02945EF10406A2300040049
:101B7000FDB7370700507C23858B85C385477CA341
:101B800054338147858A99CA854709C989476306BD
:101B9000F50018338547058B11C389473E85828040
:101BA000B7070050C83305811345150005898280A9
:101BB000370700503C331375F50793F70708C98FB3
:101BC0003CB3828085476317F500EFE26FDAC53DCD
:101BD0006FE04FDCB707005098231367070498A302
:101BE00098331367470098B3FA3B13670740FABB73
:101BF0008280EFE2EFD72A8401455D3FC9358547F2
:101C000063EC8700370700501C3393E727001CB3B1
:101C100011E82D45EF10E062370700501C3393F7B1
:101C2000D70F1CB30945EF10C061B7070050F82368
:101C3000058B11C7D833058B19C30547F8A36FE08F
:101C40006FD5370700505C33858B85CBEFE24FD2E1
:101C50001C33858B91E72A84A13708A011E19D37B9
:101C6000B7070050983301451367170098B3FA3B44
:101C700013674700FABB6FE0EFD159458280EFE26E
:101C8000AFCCB7070050A38DB702416A2A8B3289C7
:101C9000238FB70293594500814437040050894B84
:101CA000394CA94AA54C7D1A230C64032303740103
:101CB000130D803E7C20898B91EB7D1D420D0545E7
:101CC000135D0D01EF108054E3160DFE230C04028A
:101CD0007C20898B81E71305E00F9DA87C3093F76A
:101CE0000704B5EF7C3093F7F70F13F5F700630A9D
:101CF00085076314550563090906630649017D19C3
:101D0000420913590901FD1493F4F40F5145EF10E2
:101D1000E04F7C20858B91CB1305800CEF10004F9A
:101D20001C30858BA9C785477CA0850493F4F40FEC
:101D3000E39C54F71305000221A8638D9901B54770
:101D40006385F9008547E398F9F869D113650502C1
:101D50006FE00FC39D8B0D47E399E7FE45BF01453B
:101D6000C5BF1305E002EDB71305A002D5B759456D
:101D7000C5B7EFE26FBDAA89B284130540062E896C
:101D8000EF10C04899C02390040037040050A147C9
:101D9000896A5EBC13860A7181451305000DC5353D
:101DA000631005149147A30DF402230FF4029387E7
:101DB000C123E223138BC1236306040E6304090EBF
:101DC0008387070063C20706CE8BC20993D9090136
:101DD000370A0050938A0A7113054006EF1000433A
:101DE000DE8763733401A287231EFA0281470357FB
:101DF000CA036391E7108345EA035686414541359E
:101E000065E18347EA0393C74700230FFA0283572C
:101E1000CA031D8C4204418091C48357CA039A208F
:101E2000BA979EA055F8BDA8370A0050938A0A7148
:101E3000138BC11FFD1913054006EF10203D83458C
:101E4000BA035686130500091D3D59E98347BA03B5
:101E500093C74700A30DFA0203578A00A28763764F
:101E6000870083578A00C207C1831D8C42044180CA
:101E700081C49A203E979AA0014793160701C18218
:101E80006392D7063E9983578A00C207C18399C7D8
:101E900083578A00B3F7F90091E351FCB70700506C
:101EA000239E070213054006EF104036B707005087
:101EB000DE3F13050009C207C18391E3414509666E
:101EC000130606719145653B01ED370700505E3FF3
:101ED000C207C18391C71E27C207C18391C35D4555
:101EE0006FE00FAAB306EB009022B306E9000507E6
:101EF00090A261B7834609003307FB008507C2073C
:101F000014A30509C183E5B5EFE28FA6138401820E
:101F1000A14718401CA19387C12398C35840AA84A5
:101F20004111D8C308211306E1002E89993509E92A
:101F3000834779007A209CA03C8763F3E7005D45E6
:101F400041016FE02FA5EFE20FA113878181B289D4
:101F5000104358439387C123411190C3D8C3368699
:101F60002A8A2E8936C6313521E1B246138781810E
:101F700072238E225D4563E9C5020346390083451D
:101F800029009387C12322064D8EB28563F3C900D1
:101F9000CE85104358438EA290C3D8C39A2236866A
:101FA000CA85FAA35285F13341016FE00F9EEFE23B
:101FB0008F9A9387818203AA070083A9470013841D
:101FC000C1234111B28413E90530232044011306D3
:101FD000E100A685AA8A2322340123112401513B62
:101FE00019ED9C201306E100232044012322340133
:101FF000A68556857C87231124017EA09D3B410147
:102000006FE0AF98EFE2CF961387018314435843F4
:102010009387C12394C3AEA3AE84D8C30146814540
:10202000893B2A8419E52685EFF09FB81545EF1006
:10203000402122856FE00F96EFE28F931387818313
:10204000144358439387C12394C3AEA3D8C3014616
:102050008145EFF01FD26FE0EF93EFE26F911387AE
:102060000181144358439387C123D8C3CEA394C39B
:1020700001468145EFF0FFCF6FE0CF91EFE24F8F48
:102080002E848C214111328913650509014636C61B
:10209000EFF0FFBEAA84B24605E1B70700509227D1
:1020A0009385C11F4206418292A24A85EF10202AE1
:1020B0001C2093C747001CA0268541016FE08F8D2F
:1020C000EFE20F8BAA8441112E841385C123B285C0
:1020D000368636C6EF10A027B246B7070050014635
:1020E000D6BF0C2013E50401EFF07FB909E51C20F1
:1020F00093C747001CA041016FE0CF89EFE24F87F3
:102100001387018432881043584323AEC12293873A
:10211000C123D8C3CEA39A223686C285FAA3EFF094
:102120005FC56FE02F87EFE2AF8413878184328829
:102130001043584323AEC1229387C123D8C3CEA3F3
:102140003686C285EFF0FFC26FE0CF84EFE24F82A8
:102150001387018503280700584323AE0123220675
:102160009387C123D18ED8C3CEA3B6A301468145A0
:10217000EFF03FC06FE00F82EFD29FFF13878186A1
:10218000B2861043584323AEC1229387C123411125
:10219000D8C3CEA31306E100B685EFF09FBD410181
:1021A0006FD05FFFEFD2DFFC138781851443584364
:1021B00023AED1229387C123D8C3B2A3CEA30146B5
:1021C0008145EFF01FBB6FD0FFFCEFD27FFA138782
:1021D00001871443584323AED1229387C123D8C328
:1021E000B2A3CEA301468145EFF0BFB86FD09FFAEE
:1021F000EFD27FF6938701869843DC4323AEE1223A
:102200001384C123AA89AE8432895CC0EFF07FB603
:1022100011E99C204A86A6852310F9004E857EA0F0
:10222000EFF03FB56FD07FF67300203001A0EFD202
:102230003FF4C166375600000947FD161306C6DD98
:10224000C5450145CD216FD0FFF4EFD2DFF041113C
:1022500001479306000F2E891306000F93052002F5
:10226000AA890145152CB75500004A86938585DC5F
:102270004800EF10E02AC16409479386F4FF50003C
:102280009305200201454521894763DB270301446B
:10229000B75A0000130A1002FD14B3878900902377
:1022A00093858ADD4800EF10A027330544030947D2
:1022B000A6865000930530030504B521E31F89FC71
:1022C000930710025C8283C72900E5461387C7FF86
:1022D0001377F70F63E3E6029387D7035C82A302C9
:1022E0000100C16650001947FD16930570071305DC
:1022F0004006152941016FD05FE9138727FE137748
:10230000F70FA14663E4E600CD07C9BF13077002CB
:10231000E399E7FC930700037C82E1B7EFD25FE526
:10232000AA84371501408565130505C03744004070
:10233000EF00F02B1309048089454A85EF00105007
:1023400065DDA68513050480EF00104F0545EF00FD
:10235000F06B371501408565130505C0EF00F027C8
:102360006FD05FE3EFD2DFE02A842181453F137510
:10237000F40F6D376FD01FE2EFD29FDF37140140AB
:10238000AA8493050040130504C0EF00502626855B
:10239000713793050040130504C0EF0010246FD07F
:1023A0007FDFEFD2FFDC41112A841305A00236C281
:1023B0002EC632C4D13722857537224632855D3725
:1023C0001305B002553FB2452E85693F92463685CA
:1023D000513F1305C0024D3741016FD0BFDBEFD233
:1023E0003FD901118545214502C002C202C402C67F
:1023F00002C802CA02CC231E0100EF00B03A854594
:102400001165EF00103C096937140140930709C0BA
:102410008D447C808A85C147130504C03EC426C212
:10242000EF00900C8A8523102101130504C0614937
:102430004AC426C2EF00500B91677C808A85914781
:10244000130504C03EC4EF00300AE1778A85130506
:1024500004C07C804AC426C2EF001009B7C704013B
:102460003EC6B70702003EC8B707000285073744DB
:1024700000403ECAA1473ECC6C009D471305048036
:10248000FC86EF00F035130504808545EF003039F8
:10249000014505616FD01FD0EFD21FCBB28A368ABB
:1024A0007D16FD16C2064206C18241823A8BAA8B76
:1024B000AE84EFF01FEF371501408565130505C0A9
:1024C00037440040EF00B01293598B00130404808E
:1024D00063E74405371501408565130505C0EF0026
:1024E000D00F6FD0FFC989452285EF00303565DDFB
:1024F000CE852285EF00503489452285EF001034C7
:1025000065DD0509DA8522854209EF00F0321359AD
:102510000901E36A59FD8504C204C18055BF5E8983
:10252000CDBFEFD2FFC4EFF09FEB13054006EF00E5
:10253000505137140140856593850580130504C00B
:10254000EF00B00913054006EF00B04F93050020DF
:10255000130504C0EF00700813054006EF00704E2D
:102560004545EFF07FE113058007EF00904D13051F
:102570006003EFF07FE00145EFF05FDA1305A003A1
:10258000EFF09FDF1545EFF07FD91305200BEFF03B
:10259000BFDE3145EFF09FD83145EFF03FD8014520
:1025A000EFF0DFD713053003EFF05FD713053003EB
:1025B000EFF0DFD61305700BEFF01FDC13055003AF
:1025C000EFF0DFD51305B00BEFF01FDB1305200391
:1025D000EFF0DFD41305200CEFF01FDA0545EFF024
:1025E000FFD31305300CEFF03FD95545EFF01FD363
:1025F0001305400CEFF05FD813050002EFF01FD277
:102600001305600CEFF05FD73D45EFF03FD11305A8
:10261000000DEFF07FD61305400AEFF03FD0130511
:10262000100AEFF0BFCF1305000EEFF0FFD4130533
:10263000000DEFF0BFCE2145EFF05FCE3945EFF052
:10264000FFCD2545EFF09FCD2545EFF03FCD15455A
:10265000EFF0DFCC13051003EFF05FCC1305300370
:10266000EFF0DFCB13058004EFF05FCB5D45EFF0BB
:10267000FFCA5145EFF09FCA5545EFF03FCA130519
:102680001003EFF0BFC913054003EFF03FC9130576
:10269000100EEFF07FCE1305000DEFF03FC821457F
:1026A000EFF0DFC73945EFF07FC72545EFF01FC7D3
:1026B0002545EFF0BFC65545EFF05FC61305100383
:1026C000EFF0DFC513053003EFF05FC5130580049D
:1026D000EFF0DFC45D45EFF07FC45145EFF01FC45C
:1026E0005545EFF0BFC313051003EFF03FC31305CB
:1026F0004003EFF0BFC213051002EFF0FFC7130550
:102700009002EFF07FC713054006EF0090330147BA
:102710009306000F1306000F81450145EFF0DFD748
:1027200001456FD03FA7EFD2BFA1131D0701135D75
:102730000D014205418193141D00AA94C204C18079
:10274000330B9D00420B135B0B01B30A6D01C20AF0
:1027500093DA0A01330A5D01420A135A0A01B309E6
:102760004D01C2093707002039719307070093D93B
:102770000901B30B3D0113193D006A953EDA9397A9
:102780000501C20B420913140501C183139C060104
:1027900032C693DB0B0113590901418002C43EDCB0
:1027A000135C0C013245EF00105CA24763E5A70003
:1027B00021616FD0BF9C33079D0093170701C18330
:1027C00033076D013EC893170701C18333075D01CD
:1027D0003ECA93170701C18333074D013ECC9317BF
:1027E0000701C1833387A9013ECE93170701C18337
:1027F0003387AB013ED093170701C1833ED42247F4
:10280000B247E25D3E9703070700D2570E07BA971B
:102810003EC2B707002093878700BA973307A441C9
:102820003ED293170701C18333078D003ED693171D
:102830000701C1833ED89247838C070013F71C0021
:1028400019CBB306BD013255C2066287C18222860A
:10285000EE85EFF07FC413F72C0019CBB306BD0152
:102860004256C2066287C182EE852285EFF0DFC242
:1028700013F74C0019CBB306BD014246C20662876E
:10288000C182EE852685EFF03FC113F78C0019CB8E
:10289000B306BD015246C2066287C182EE855A85E3
:1028A000EFF09FBF13F70C0119CBB306BD016246D1
:1028B000C2066287C182EE855685EFF0FFBD13F731
:1028C0000C0219CBB306BD017246C2066287C182F3
:1028D000EE855285EFF05FBC13F70C04B308BD0121
:1028E00001CF0256939608016287C182EE854E851C
:1028F00046DEEFF07FBAF25863DB0C002256939667
:1029000008016287C182EE855E85EFF0FFB89247CD
:1029100012573308BD018507931D08013EC293DDA0
:102920000D01E39AE7F0A247CA9BCA994A9ACA9A4C
:102930004A9BCA944A948507C20BC209420AC20A3A
:10294000420BC20442043EC493DB0B0193D909013C
:10295000135A0A0193DA0A01135B0B01C18041800B
:1029600091B5EFD2FF800111094502C602C802CA23
:1029700002CC02CE7921EF00D00613054006EF000D
:10298000500C716513050520EF00100F370400206F
:102990008325044837550000130585DEEF005026D7
:1029A000D1228325044837550000130585DFEF0049
:1029B00030256800112BB24537550000130585E01E
:1029C000EF001024C24537550000130505E2EF0063
:1029D0003023D24537550000130545E3EF00502260
:1029E000E245375500001305C5E4EF00702183254B
:1029F0000448896793870771B3D5F5022545FD150E
:102A0000C205C181EFD05F8437550000130545E64C
:102A1000EF00503037550000130545E7EF00902FC9
:102A2000EFF04F8C0545EFF04F907D4681451385C3
:102A3000C11DEFD0EFF6371500201306A010814519
:102A400013058592EFD0CFF5EFF0BFAD01479306A8
:102A5000000F1306000F81450145EFF0FFA3C1668B
:102A6000375600000947FD16130686E881450145E3
:102A7000EFF07FCBEFE0FF9EF5BFB7170240984322
:102A8000B706FFF841111367170098C3D8433706FC
:102A90000200758FD8C39843B706F7FEFD16758FF1
:102AA00098C39843B706FCFFFD16758F98C3D843AB
:102AB000B70681FFFD16758FD8C337079F0098C7EB
:102AC00002C402C69843C166558F98C3B716024028
:102AD00005679C42F18F3EC6A24785073EC4B247B8
:102AE00081E7A247E397E7FEB71702409C4313979D
:102AF000E7006357070685473EC632478547631F91
:102B0000F704B7170240D843B706C1FFFD16D8C374
:102B1000D843D8C3D84313670740D8C3D843758F69
:102B2000D8C3D843B7062900558FD8C39843B706F2
:102B30000001558F98C3984393166700E3DD06FEA6
:102B4000D843B7160240719BD8C3D84313672700F8
:102B5000D8C32147DC42B18BE39EE7FE410182806E
:102B600002C661BFB7160240DC423707002011469B
:102B7000B18B130707486385C70021466388C702E6
:102B8000B7177A00938707201CC3B7170240DC43AE
:102B9000918393F6F700B707002093870740B69715
:102BA00094231C43B3D7D7001CC38280DC42D44299
:102BB0004166C983BD8BF18E890745466393C70083
:102BC000C94781EEB746024083A60680C18A89CEF6
:102BD000B7167A009386062021A8B7160240D44281
:102BE0001396E600E35606FEB7163D009386069060
:102BF000B387D70251BF01A001A001A001A001A08D
:102C000001A001A001A001A001A001A001A001A0BC
:102C100001A001A001A001A001A001A001A001A0AC
:102C200001A001A001A001A001A001A001A001A09C
:102C300001A001A001A001A001A001A001A001A08C
:102C400001A001A001A001A001A001A001A001A07C
:102C500001A001A001A001A001A001A001A001A06C
:102C600001A097E1FF1F9381E101172100201301CB
:102C70006139172500001305E52B97D5FF1F9385B4
:102C800065381386018863FAC5008322050023A0F6
:102C9000550011059105E3EAC5FE1385018893856A
:102CA00001286377B500232005001105E36DB5FE0B
:102CB000FD42739002BC8D42739042809302800863
:102CC00073A0023097D2FFFF9382423793E2320023
:102CD00073905230EFF07FDA970200009382A2C81F
:102CE00073901234730020309C4513F7070113F8DA
:102CF000F70001C7D8413368E80037270240145B6A
:102D00003707000F758F4DEB85462380D188371725
:102D100001406315E5009A2135839AA18E2113F7AE
:102D2000F50F39C318418146854E3D4F930F800200
:102D300093028004214E3396DE00B3F8C500631180
:102D400016039398260033131F011343F3FF3377C1
:102D5000E300B318180133E7E8006397F70750C999
:102D60008506E39AC6FD18C11307F00F6375B70413
:102D700054412146854E3D4F930F800293028004BB
:102D8000414EB398CE0033F715016392E802131752
:102D9000260001173313EF001343F3FFB376D3007C
:102DA0003317E800D98E6395F703232A150105062A
:102DB000E319C6FD54C1828037170140E310E5F6E0
:102DC00003C7018821DF81BFE39C57F810C949BFC1
:102DD000E39F57FC23281501D9BFB717014063169D
:102DE000F50083C7018891C3B5810CC98280B717EC
:102DF00001406316F50083C7018891C3B5814CC9B2
:102E0000828023A2A18882809387418894431821DD
:102E100081E63C21920721A894430546639FC602A0
:102E20003C21103192076314D60093E707F8B7E608
:102E300000E093F7F70FBA962380F6408546935744
:102E400057003397E6005441A5C2938707048A07C9
:102E5000B7E600E0B69798C382808C4389466391B9
:102E6000D50214313C216365D6008A06B6975DB75A
:102E70009386E6038A06B69793F7F70F920775B71E
:102E800090438D46631CD60014313C216364D60008
:102E90008606E9BF9386C6078606F1BF944391472D
:102EA000E39EF6F81C31BDB7938707064DB7B717F9
:102EB0000240D843B70640FFFD16758FD8C3D843EC
:102EC0005A05598DC8C38280371702405C4391462A
:102ED000B18B6385D700A1466382D706B7177A0006
:102EE000938707201CC1371602405C423707002039
:102EF000130707419183BD8BBA9794231C41B3D725
:102F0000D7005CC15442A1829D8ABA969422B3D65E
:102F1000D70014C55442AD829D8A36971823B3D783
:102F2000E7005CC5584239839376370013874180A8
:102F300036971823B3D7E7021CC982805C435843F5
:102F4000C166C983BD8B758F8907C5466393D7005A
:102F5000C94701EF3747024003270780418B09CF5C
:102F600037177A001307072021A837170240584364
:102F70009316E700E3D606FE37173D0013070790C8
:102F8000B387E70285B799C5371702405C4B5D8D63
:102F900048CB8280B7170240D84B1345F5FF798D97
:102FA000C8CB828099C5371702401C4F5D8D08CF72
:102FB0008280B7170240984F1345F5FF798D88CF6F
:102FC000828099C5371702405C4F5D8D48CF828063
:102FD000B7170240D84F1345F5FF798DC8CF8280CF
:102FE0001A218D6793870704B6217D8F9E21D58F87
:102FF000D621D58FF621D58F9625D58FB625D58F9D
:10300000D625D58FF625D58FD98F1EA15A2DFD77C0
:103010009387F77FF98F5EAD9E291EA982801E21BE
:1030200089C593E707041EA18280C207C18393F775
:10303000F7FBC207C183C5BF4EA582800A256D8DEF
:103040003335A00082801E2137370140130707C0A7
:10305000C207C1836304E502370700406300E5024D
:1030600013070740630CE5003717004093060780FD
:103070006306D500130707C06316E500BA2193F76E
:10308000F7F8D98FFA2193F7F7CFC207C183D98F09
:103090001EA1DE215EB59E211EB5B7370140938784
:1030A00007C06314F5009C251EB985475EA9828080
:1030B0001E2189C593E717001EA18280C207C18324
:1030C000F99BC207C183CDBF5E2501C6DD8D4EA52C
:1030D000828093C5F5FFFD8DDDBF1E294A25ED8F4A
:1030E0004205418189C76D8D3335A000828001453D
:1030F000828093C5F5FFC205C1810EA98280EFD2FF
:103100002F871629F577FD17F58FF621DA257971C6
:10311000D58F1EA95625FD779387379FF58FD6212A
:103120002A842EC6D58F9625D58FB625D58F5EA538
:103130005E29C207C18393F7F7CFD98F5EA96808CC
:10314000EFF09FD8B747014093870780B245631AD5
:10315000F404A25756246547B387E702C206C18626
:10316000984163D20604060752244206B3D7E70209
:10317000130740064186B3D6E702B3F7E70292068B
:10318000635506028E0793872703B3D7E70213F729
:103190007700B367D700C207C1831EA445616FC023
:1031A0007FFF925745BF0A07C1B79207938727034E
:1031B000B3D7E702BD8BD58FF9BF91C55E250967EF
:1031C000D98F5EA582805A25F977FD17F98FD5BF73
:1031D00093F5F51F4EA182800A216D8D3335A00035
:1031E0008280B707002083A7074837177A001307A4
:1031F0000720B3D7E70293F7F70F2385F18813076A
:10320000803EB387E7022394F1888280B7F700E01D
:10321000D8438146799BD8C303C7A1883306A70248
:1032200090CBD4CB98431367070198C39843136797
:10323000170298C3D843058B75DF9843799B98C3D1
:103240008280B7F700E0D8438146799BD8C303D783
:1032500081883306A70290CBD4CB9843136707012C
:1032600098C398431367170298C3D843058B75DF3B
:103270009843799B98C38280EFC29FEF2A8411659F
:10328000011185451105EFF0FFD1930700207C82E5
:10329000371501408D473EC44C00E14713050580BA
:1032A0003EC6EFF07FA422C837440140B7070800AC
:1032B0000C08130504803ECC02CA231E0100EFF067
:1032C0001FE4854513050480EFF03FEF05616FC0F3
:1032D0007FECEFC25FE8B7440140AE893289014418
:1032E00093840480634524014A856FC01FEA9305D7
:1032F00000042685EFF05FEE7DD9B38789008385D2
:10330000070026850504C205C181EFF07FECD9BF17
:10331000138781801C43938601283E95636BD500FB
:10332000B75600209386068063E5A60008C33E8555
:103330008280FD57EDBF93F5F50F2A966314C50003
:10334000014582801C21E38EB7FE0505C5BFB3C7CA
:10335000A5008D8B3307C50081E78D4763EDC7005E
:10336000AA87637EE508942185078505A38FD7FE8C
:10337000E3EBE7FE828093763500AA8789CA942121
:1033800085078505A38FD7FE93F63700C5BF9376D3
:10339000C7FF138606FE63F0C70683A3050083A25A
:1033A000450083AF850003AFC50083AE050103AEC2
:1033B000450103A3850183A8C5019385450223A088
:1033C000770003A8C5FF23A2570023A4F70123A673
:1033D000E70123A8D70123AAC70123AC670023AEC6
:1033E00017019387470223AE07FF75B790419107F6
:1033F000910523AEC7FEE3EBD7FEE3E6E7F6828056
:1034000039713EDA2ED232D436D63AD842DC46DE94
:103410009387C18022CC804326CA06CEAA8409C4E1
:103420001C4C99E32285992B0C4454102686228546
:1034300036C6EF00504EF2406244D2442161828091
:10344000011126CA4AC806CE22CC4EC652C4AA844E
:103450002E8901C51C4D91E315239C4C804499E3B2
:103460002685292B97270000938707A5631BF40265
:10347000C0405E24A18BB1C71C48A1C7FD59294A91
:103480001C4483450900FD17B1E91CC463DD070630
:103490002286A9452685CD20FD576308F5022945DA
:1034A00035A097270000938727A36314F400804476
:1034B000C9B7972700009387279EE31CF4FAC044FE
:1034C0004DBFA2852685BD2255D97D55F240624467
:1034D000D2444249B249224A056182801CC405098E
:1034E00063D70700184C63CAE700638845011C4096
:1034F0001387170018C08CA361B722862685AD28D4
:10350000E31035F9D9B71C401387170018C02947B5
:1035100098A371B79387C180AA8588436FF05FF243
:1035200035713ECBB707008093C7F7FF3ECE3EC84C
:10353000C1779387872032C536C73AC942CD46CF77
:103540003ECA9387C1802AC42ACC884334012E8680
:103550002C0086DE36C2EF00D00EA2472380070083
:10356000F6500D618280AA87850703C7F7FF6DFFBC
:103570003385A7407D158280011122CC26CA4AC816
:1035800006CE4EC6AA842E89328401C51C4D91E315
:10359000F52697270000938727926317F406C0400B
:1035A0001C4C1CC45E24A18BC1C31C48B5CF1C4855
:1035B00008409379F90F1379F90F1D8D5C48634624
:1035C000F500A2852685692C25E51C440505FD1717
:1035D0001CC41C401387170018C0238037015C48A7
:1035E0006388A7005E24858B81CBA9476316F90009
:1035F000A2852685B5240DEDF24062444A85D24469
:103600004249B24905618280972700009387C78CA1
:103610006314F400804469B7972700009387C78735
:10362000E310F4F8C044ADBFA2852685212041D126
:103630007D59D9B741119387C18026C2844322C4E2
:103640004AC006C62A892E8489C49C4C99E32685E3
:1036500035269727000093872786631BF402C04016
:103660000317C40093170701C18393F68700ADEADF
:1036700093F6070195EEA5472320F9001367070489
:103680005AA47D55B24022449244024941018280AD
:1036900097270000938747846314F4008044C9B7D8
:1036A000971700009387477FE31CF4FAC0444DBF8F
:1036B000918B9DC34C5889C9930744046384F500DA
:1036C0004A85292B232A04025E242322040093F72F
:1036D000B7FD5EA41C481CC05E2493E787005EA46F
:1036E0001C4899EB5E241307002093F70728638595
:1036F000E700A2854A8591295E2413F717001DC3B0
:103700005C4823240400B307F0401CCC1C4801454E
:10371000B5FB8317C40013F707082DD793E70704F9
:103720005EA485B7898B014791E3584818C4F9BF57
:10373000DE25011122CC26CA06CE4AC84EC613F792
:103740008700AA842E8479EBD841634DE000B8410C
:10375000634AE0000145F2406244D2444249B24922
:103760000561828058547DD703A9040093963701E0
:1037700023A0040063DB060670485E24918B99C782
:103780005C401D8E5C5899C33C401D8E5C540C50AF
:10379000814626858297FD575A24631DF500944083
:1037A000F54763E8D706B70740208507B3D7D700AA
:1037B000858BA5C31C48232204001CC09317370126
:1037C00063D80700FD576314F5009C4091E368C877
:1037D0004C5823A02401BDDD930744046384F50005
:1037E0002685ED2E232A0402B5B70C5001468546E6
:1037F00026850297FD572A86E311F5F89C40B5DF30
:1038000075476385E70059476393E70423A02401C4
:1038100091B7136707045AA47D5535BF83A90501E5
:10382000E38A09F203A905008D8B23A03501330932
:103830003941014791E3D84918C4E35D20F11C5494
:103840000C50CA864E86268582976347A0005E2468
:1038500093E707045EA4C9B7AA993309A940F1BF49
:103860009C49A5C3011122CC06CE2A8411C51C4D4A
:1038700081E72EC62122B245971700009387C763C0
:10388000639CF5004C408397C5009DC72285624428
:10389000F24005616FF0DFE9971700009387C76377
:1038A0006394F5000C44C5B7971700009387C75E73
:1038B000E39BF5FC4C44C1BFF24062440145056105
:1038C000828001458280411122C406C62A844EA509
:1038D00072A52320050023220500232405002322AE
:1038E000050623280500232A0500232C0500214670
:1038F00081451305C505EFC0BF8A97170000938760
:1039000047E85CD097170000938767EA1CD49717A5
:103910000000938747EE5CD4971700009387A7F0C9
:1039200000D01CD8B240224441018280970500009B
:10393000938545F391AA411126C21306800693840C
:10394000F5FFB384C4024AC02E8922C406C69385FB
:1039500044070D2E2A8401CD2320050023222501B2
:10396000310508C4138684068145EFC07F83228514
:10397000B240224492440249410182801C4DA5E795
:10398000411106C622C497070000938767FA1CD529
:10399000938781879C432324050423260504232839
:1039A00005046314F50085471CCD2A84352848C0DA
:1039B00022851D2808C42285052848C448400146A0
:1039C0009145EFF05FF008440546A545EFF0BFEFE5
:1039D00048440946C945EFF01FEF85471CCCB2406B
:1039E000224441018280828041119387818726C2CF
:1039F00084434AC006C69C4C22C42A8981E7268596
:103A0000EFF0DFF7938484048044DC40FD1763D635
:103A100007009C40B9CF8440C5BF0317C40039E7F5
:103A2000C1778507232204062320040023220400F3
:103A3000232404005CC423280400232A0400232C2C
:103A40000400214681451305C405EFC06FF5232A04
:103A50000402232C040223240404232604042285C4
:103A6000B2402244924402494101828013048406F8
:103A700071BF91454A85EFF01FEC88C049FDB14701
:103A80002320F9000144E1BF797122D44AD052CCFD
:103A900056CA5AC85EC606D626D24ECE2A8AAE8AE4
:103AA000130485040149054BFD5B09ECB250225417
:103AB0004A8592540259F249624AD24A424BB24B69
:103AC00045618280044483294400FD1963D40900C0
:103AD0000040E1BFDE24637BFB008397E400638743
:103AE0007701A6855285829A3369A900938484065A
:103AF000E9BF1971A6DAAE848395E500A2DC86DE03
:103B0000328463DB0500DE2423A0060093F7070858
:103B100085E7930700401DA0300836C6EF003056F9
:103B2000B246E34205FE7247BD67F98F7977BA97CF
:103B300093B717009CC2F1BF930700041CC0F65056
:103B40006654D654014509618280DE25011122CCDC
:103B500006CE26CA4AC8898B2E8489CF930774045F
:103B60001CC01CC885475CC8F2406244D24442492C
:103B70000561828074003000AA84EFF09FF7A245AF
:103B80002A892685012219E98317C40013F7072023
:103B900061FFF19B93E727005EA4C9B79707000078
:103BA000938707D99CD45E2408C008C893E7070808
:103BB0005EA4A2475CC8B24781CF8315E400268586
:103BC000EF00904E11C55E24F19B93E717005EA4B1
:103BD0005E243369F9002316240179B7DDC183A778
:103BE000C5FF411122C406C626C21384C5FF63D394
:103BF00007003E94AA84EF00D0549387C1889C4369
:103C000081EF2322040023A681882244B240268526
:103C1000924441016F001053637EF4001440330757
:103C2000D4006396E7009843DC43369718C05CC025
:103C3000D9BFBA87D84319C3E37DE4FE94433386E2
:103C4000D700631F86001040B29694C33386D70016
:103C5000E31DC7FA10435843B29694C3D8C375B74F
:103C60006375C400B1479CC04DB71040B306C40093
:103C70006316D70014435843B29614C058C0C0C34B
:103C800069B78280011126CA93843500F19806CE67
:103C900022CC4AC84EC6A104B14763F5F404B1442E
:103CA00063E4B4042A89EF00D0499387C18898431C
:103CB0003A8429E4938701899C4399E781454A85A1
:103CC000EF00502923A8A188A6854A85EF009028F7
:103CD000FD5963193507B1472320F9004A85EF00E4
:103CE000704629A0E3DE04FAB1471CC10145F24049
:103CF0006244D2444249B249056182801C40858FAA
:103D000063CF0702AD4663F6F6001CC03E9404C0C4
:103D100031A05C406313870223A6F1884A85EF0037
:103D200070421305B4009307440061993307F540CE
:103D30005DDF3A94898F1CC05DBF5CC3C5B7228725
:103D4000404085BF130435007198E30285FCB3053C
:103D5000A4404A85EF001020E31B35FBADBF0111E5
:103D60004AC803A9850022CC52C45AC006CE26CA2E
:103D70004EC656C22E84328B368A63E92609DE256A
:103D800013F7074851C304408C495848AA8AB3899D
:103D9000B4408D44B384E4020947B3C4E4021387FA
:103DA00016004E9763F3E400BA8493F70740BDCF43
:103DB000A6855685EFF01FED2A891DE1B14723A0A6
:103DC000FA005E247D5593E707045EA4F240624446
:103DD000D2444249B249224A924A024B056182804A
:103DE0000C484E86EFF0AFD65E2493F7F7B793E713
:103DF00007085EA42328240144C84E99B3843441A3
:103E00002320240104C4528963732A015289084083
:103E10004A86DA85EF00902E1C440145B38727417E
:103E20001CC41C403E99232024014DB7268656858C
:103E3000EF0070312A895DFD0C485685EFF01FDADE
:103E4000B5BFDE25717126D34AD14ECF06D722D514
:103E500052CD56CB5AC95EC762C566C393F70708F1
:103E6000AA892E89B284B9C39C49A9E393050004A9
:103E700036C6EFF03FE12320A9002328A900B2466F
:103E800015E1B14723A0F9007D55BA502A549A5440
:103E90000A59FA496A4ADA4A4A4BBA4B2A4C9A4CAE
:103EA0004D61828093070004232AF90093070002E2
:103EB000A30CF1029307000302DA230DF10236CEC0
:103EC000930B5002971A0000938A0A03054C294B62
:103ED00026841C2099C363997709B30C9440638EA0
:103EE0000C00E6862686CA854E85EFF05FE7FD5713
:103EF000630BF518D256E69636DA1C206385071850
:103F0000FD579304140002D002D63ED202D4A3017E
:103F1000010682DC8C2015465685EFF0CFC1138454
:103F20001400825721E513F7070109C713070002A0
:103F3000A301E10613F7870009C71307B002A30125
:103F4000E10694201307A002638AE602B257268492
:103F500081462546182093051400130707FD637258
:103F6000E6068DC63ED61DA00504A5B7330555410E
:103F70003315AC00C98F3ED0A28469BF7247930647
:103F80004700184336CE634707023AD618209307F6
:103F9000E002631DF70418309307A002631BF702C9
:103FA000F2470904138747009C433ACE63C10702D6
:103FB0003ED22DA83307E04093E727003AD63ED003
:103FC000F1B7B387670385462E84BA9761B7FD576B
:103FD000C5B7050402D281468147254618209305BE
:103FE0001400130707FD6376E606F9F20C200D4670
:103FF000171500001305C5F0EFF0EFB311CD9717BB
:1040000000009387E7EF1D8D93070004B397A70087
:10401000025505045D8D2AD00C20194617150000A5
:10402000130545EE93041400230CB102EFF0AFB07A
:1040300025C597C7FFFF9387E7FC95E70257F2472F
:104040001377071009CF91073ECED257D2973EDAA9
:1040500041B5B387670385462E84BA9741B79D075C
:10406000E19BA107D5B7780897060000938666CF35
:104070004A860C104E8597000000E7000000FD57AF
:104080002A8AE314F5FC8357C9007D5593F707048A
:10409000E39D07DE5255D5BB78089706000093864E
:1040A00046CC4A860C104E852121D1BF1C46FD17F7
:1040B0001CC663DA0700184E63C5E700A94763947E
:1040C000F5006FF06FCB1C422E851387170018C2C6
:1040D0008CA38280011122CC26CA4AC84EC652C483
:1040E00006CE2A89AE893284B304D6007D5A631481
:1040F0009400014509A80C204E864A85EFF01FFB6D
:104100000504E31645FFF2406244D2444249B249F5
:10411000224A05618280357122CD26CB4AC94EC71D
:1041200006CF52C556C35AC1DEDEE2DCE6DAAA8902
:10413000AE843289368409C51C4D99E3EFF01F84A3
:1041400097170000938747D76399F40C83A449001D
:10415000DE24A18BEDC79C48FDC393070002A30496
:10416000F1029307000302D22305F10222C6930B4A
:104170005002971A0000938A2AD8054C294B4A848A
:104180001C2099C36390770FB30C2441638E0C00FD
:10419000E6864A86A6854E85EFF0DFF3FD5763027B
:1041A000F51E9256E69636D21C20638C071CFD57EE
:1041B0001309140002C802CE3ECA02CCA3090104AE
:1041C00082D48345090015465685EFF0CF96130437
:1041D0001900C24751E913F7070109C71307000285
:1041E000A309E10413F7870009C71307B002A30965
:1041F000E104834609001307A002638FE606F24735
:104200004A8481462546182093051400130707FDAC
:104210006377E60AB5CA3ECE85A897170000938754
:10422000A7CB6395F40083A489001DB797170000FE
:10423000938787C6E39EF4F083A4C90011BFA685C7
:104240004E85EFF02FBF11D97D55FA406A44DA440C
:104250004A49BA492A4A9A4A0A4BF65B665CD65CD6
:104260000D618280050429BF330555413315AC002B
:10427000C98F3EC82289B1B7324793064700184319
:1042800036C6634707023ACE18209307E002631D43
:10429000F70418309307A002631BF702B247090422
:1042A000138747009C433AC663C107023ECA2DA844
:1042B0003307E04093E727003ACE3EC8F1B7B38713
:1042C000670385462E84BA973DBFFD57C5B70504E1
:1042D00002CA81468147254618209305140013071A
:1042E00007FD6376E606F9F20C200D46171500006F
:1042F000130505C1EFF02F8411CD971700009387A8
:1043000027C01D8D93070004B397A70042450504FD
:104310005D8D2AC80C20194617150000130585BEAF
:10432000130914002304B102EFF0EF8035C197C7E1
:10433000FFFF938727CD95E74247B24713770710D2
:1043400009CF91073EC69257D2973ED20DBDB38793
:10435000670385462E84BA9741B79D07E19BA10765
:10436000D5B7780097060000938606D726860C08F6
:104370004E8597000000E7000000FD572A8AE314ED
:10438000F5FCDE2493F70704E39007EC125575BDA6
:10439000780097060000938626D426860C084E8562
:1043A000012AE1BF797156CA9C49BA8A984522D43C
:1043B00026D24ECE52CC06D64AD05AC85EC6AA895C
:1043C0002E84B284368A63D3E700BA879CC0034741
:1043D000340419C385079CC01C4093F7070281C7AA
:1043E0009C4089079CC00329040013796900631A63
:1043F0000900130B9401FD5B5C449840998F634C5A
:10440000F9041C408346340493F70702B336D00006
:10441000A5EB13063404D2854E85829AFD576303BB
:10442000F5041C4011469840998B5444814463978D
:10443000C700B384E64063D3040081441C44184899
:104440006354F700998FBE94014969047D5B6398BA
:104450002405014509A885465A86D2854E85829A4B
:10446000631E75017D55B250225492540259F2498F
:10447000624AD24A424BB24B456182800509ADBFC8
:104480003307D40013060003A301C70403475404F1
:1044900093871600A2978906A381E7049DBF8546EE
:1044A0002286D2854E85829AE30E65FB050945B7C3
:1044B000797122D426D24AD04ECE06D652CC56CAD4
:1044C0005AC8B689942D930790063289AA842E84FF
:1044D00013863504638DF60263E2D70693078005E1
:1044E0006387F61863EDD700638F062093073004C7
:1044F000638FF60A930A24042301D404D1A09307FE
:1045000030066386F60A93074006E395F6FE1C40E4
:10451000084393F6070893054500CDC61C410CC31C
:1045200063D807001307D002B307F040A301E404E7
:10453000971600009386869D29476DA8930700076C
:104540006383F61663E5D7029307E006638AF618DD
:104550009307F006E390F6FA0C401C4313F80508A5
:10456000138547006308080608C39C438DA893077A
:104570005007E383F6FE93078007638AF6129307DA
:104580003007E399F6F61C43D041814593864700F6
:1045900014C383AA07005685EFE0FFD901C5330590
:1045A000554148C05C401CC8A301040461A81C43D9
:1045B000930A2404938647009C4314C32301F40404
:1045C0008547D5B793F607041C410CC3B1DAC2077F
:1045D000C187B9B793F5050408C3C1D99E23130752
:1045E000F0066387E60E9716000093862692294709
:1045F000A30104044C400CC463C5050008406D9938
:1046000008C099E3B28A89CDB28AB3F5E702FD1AF0
:10461000B6958C212380BA00B3D5E70263F0E70C8E
:10462000A147631EF7001C40858B91CB58401C4866
:1046300063C7E70093070003A38FFAFEFD1A330652
:10464000564110C84E87CA867000A2852685EFF0B5
:104650007FD57D5A631D450B7D55B250225492542F
:104660000259F249624AD24A424B45618280A38292
:10467000D50497160000938666890C40084313F80A
:1046800005081C411105630D080208C313F7150046
:1046900001C793E505020CC04147B9FB0C4093F5F7
:1046A000F5FD0CC0B1B79C4193E707029CC193078D
:1046B0008007A302F404971600009386668675BFF0
:1046C00013F8050408C3E30308FCC207C1837DBFD8
:1046D0009716000093868683214719BFAE8735B7AA
:1046E00094411C43CC4913F8060813854700630620
:1046F000080008C39C438CC339A008C393F6060482
:104700009C43F5DA8EA323280400B28A25BF1448FF
:104710005686CA8526858299E30045F51C40898B1B
:104720008DE7B2474844E35AF5F23E853DB78546EA
:104730005686CA8526858299E30065F3050A5C449E
:104740003247998FE345FAFEE9BF014A930A940183
:104750007D5BF5B7411122C42A842E8523AE012644
:1047600006C6EFE0FFBAFD576317F5009387C12730
:104770009C4391C31CC0B24022444101828041113C
:1047800022C42E848395E50006C6112C63490500DA
:104790007C48AA977CC8B2402244410182805E24B2
:1047A0007D777D17F98F5EA4FDB7DE25011122CC40
:1047B00026CA4AC84EC606CE93F70710AA842E848E
:1047C0003289B68991C78395E50089460146092259
:1047D0005E247D777D17F98F5EA48315E400624423
:1047E000F240CE864A86B24942492685D2440561C6
:1047F00025A8411122C42E848395E50006C6C92848
:10480000FD575A24631AF500FD77FD17F98F5EA452
:10481000B2402244410182808567D98F5EA468C876
:10482000C5BF8395E50005A8411122C42A842E85C1
:10483000B285368623AE012606C6EFE09FA9FD5756
:104840006317F5009387C1279C4391C31CC0B240F6
:10485000224441018280411122C42A842E8523AE44
:10486000012606C6AD2AFD576317F5009387C127B9
:104870009C4391C31CC0B24022444101828041113B
:1048800022C42A842E85B28523AE012606C6B12A0B
:10489000FD576317F5009387C1279C4391C31CC044
:1048A000B240224441018280411122C42A842E85D3
:1048B00023AE012606C68122FD576317F5009387B4
:1048C000C1279C4391C31CC0B24022444101828055
:1048D000411122C42A842E85B285368623AE012654
:1048E00006C60522FD576317F5009387C1279C4331
:1048F00091C31CC0B24022444101828063F1A504EF
:10490000B386C500637DD5029345F6FF8147FD1749
:104910006393F50082803387F600034807003387EE
:10492000C7002A9723000701DDB73387F50014235A
:104930003307F500850714A3E319F6FE828081474B
:10494000E5BF8280828081E5B2856FF0AFB301114F
:1049500022CC06CE26CA4AC84EC6328401EEEFF0FB
:10496000EFA70149F24062444A85D2444249B24924
:1049700005618280AE84AA8989282689E37485FE30
:10498000A2854E85EFF00FB02A8969DDA6852286C3
:10499000EFE0FF9BA6854E85EFF04FA4E1B74111F4
:1049A00022C42A842E85B285368623AE012606C609
:1049B000B928FD576317F5009387C1279C4391C31E
:1049C0001CC0B24022444101828083A7C5FF1385E9
:1049D000C7FF63D50700AA959C413E958280930747
:1049E000800523AEF1267D5582809307800523AE96
:1049F000F1267D5582809307800523AEF12601457F
:104A000082809307800523AEF1267D55828093072F
:104A1000800523AEF1267D55828000004855425F17
:104A20005045315F455252313A25780D0A00000059
:104A30004855425F5045315F455252323A25780D14
:104A40000A0000004855425F5045315F45525233DD
:104A50003A25780D0A00000048756220506F727484
:104A60002578204F75740D0A000000004855425FFC
:104A70005045325F455252313A25780D0A00000008
:104A80004855425F5045325F455252323A25780DC3
:104A90000A0000004855425F5045325F455252338C
:104AA0003A25780D0A00000048756220506F727434
:104AB000257820496E0D0A0047657420496E74659B
:104AC0007266616365257820526570446573633A48
:104AD00020000000456E756D204869643A0D0000A5
:104AE000456E756D204875623A0D0000416E616C2F
:104AF000797A6520436667446573633A2000000055
:104B000047657420537472696E6744657363343A01
:104B10002000000047657420537472696E67446515
:104B20007363313A20000000476574205374726942
:104B30006E6744657363323A200000004765742055
:104B4000537472696E6744657363333A20000000E2
:104B50004765742048756220446573633A200000FD
:104B6000526F6F744875624465762E62506F72742E
:104B70004E756D3A20253032780D0A0028533129C0
:104B800047657420446576446573633A200D0000E0
:104B900053657420446576416464723A200D0000C8
:104BA00047657420446576436667446573633A20BD
:104BB0000D0000005365742043666756616C75658F
:104BC0003A200D00456E756D3A0D000025303278A3
:104BD0002000000053657420446576416464723A95
:104BE000200000004572722825303278290D0A0015
:104BF0004F4B0D0047657420436667446573633A05
:104C000020000000446576547970653A20253032E2
:104C1000780D0A00536574204366673A200000004F
:104C200047657420446576446573633A200000004C
:104C300055534220506F72742044657620496E2E81
:104C40000D000000526F6F74204465766963652023
:104C50004973204849442E200000000046757274B4
:104C600068657220456E756D20526573756C743A77
:104C700020000000526F6F742044657669636520E0
:104C80004973204855422E2000000000526F6F7477
:104C900020446576696365204973200053746F7200
:104CA0006167652E200000005072696E7465722E77
:104CB00020000000556E6B6E6F776E2E2000000096
:104CC000456E6420456E756D2E0D0000456E756D48
:104CD000204661696C2077697468204572726F7232
:104CE00020436F64653A25780D0A00005553422031
:104CF000506F727420446576204F75742E0D00003D
:104D000041626E6F726D616C0D000000487562202B
:104D1000496E7420446174613A253032780D0A007E
:104D20004465762053706565643A25780D0A000065
:104D3000456E756D5F4875624465766963650D0003
:104D400048554220706F72742578206465766963D7
:104D5000652069732048494421204675727468654E
:104D60007220456E756D3A0D0A0000004F4B210D03
:104D70000000000048554220706F7274257820644E
:104D800065766963652069732000000073746F7233
:104D9000616765210D0000007072696E7465722193
:104DA0000D000000756E6B6E6F776E210D000000B8
:104DB00048554220506F7274257820456E756D20DD
:104DC000457272210D0A00005061636B6574204CBE
:104DD000656E3A2025690000255800005553422091
:104DE00050726573656E740053797374656D436CAE
:104DF0006B3A256C640D0A0053797374656D436CCE
:104E00006B3A25640D0A0000535953434C4B5F46DF
:104E100072657175656E63792D25640D0A00000059
:104E200048434C4B5F4672657175656E63792D25FD
:104E3000640D0A0050434C4B315F467265717565D5
:104E40006E63792D25640D0A0000000050434C4B21
:104E5000325F4672657175656E63792D25640D0A42
:104E60000000000054494D3320496E6974204F4BB7
:104E7000210D0000555342465320486F737420495A
:104E80006E69740D0000000048656C6C6F20576FF0
:104E9000726C6400000000000000000000000000D0
:104EA0000000000000000000000000000000000002
:104EB00000000000000000000000000000000000F2
:104EC00000000000000000000000000000000000E2
:104ED00000000000000000000000000000000000D2
:104EE00000000000000000000000000000000000C2
:104EF00000000000232D302B20000000686C4C00C7
:104F00006566674546470000303132333435363701
:104F100038394142434445460000000030313233C5
:104F200034353637383961626364656600000000E5
:104F30000000000000000000000000000000000071
:104F40000000000000000000000000000000000061
:104F50000000000000000000000000000000000051
:104F60000000000000000000000000000000000041
:104F70000000000000000000000000000000000031
:104F80000000000000000000000000000000000021
:104F90000000000000000000000000000000000011
:104FA0000000000000000000000000000000000001
:104FB00000000000000000000000000000000000F1
:104FC00000000000000000000000000000000000E1
:104FD00000000000000000000000000000000000D1
:104FE00000000000000000000000000000000000C1
:104FF00000000000000000000000000000000000B1
:1050000000000000000000000000000000000000A0
:105010000000000000000000000000000000000090
:105020000000000000000000000000000000000080
:105030000000000000000000183C3C181800180098
:10504000363600000000000036367F367F363600E8
:105050000C3E031E301F0C00006333180C66630007
:105060001C361C6E3B336E00060603000000000079
:10507000180C0606060C1800060C1818180C06006A
:1050800000663CFF3C660000000C0C3F0C0C00006E
:1050900000000000000C0C060000003F00000000B3
:1050A00000000000000C0C006030180C060301002A
:1050B0003E63737B6F673E000C0E0C0C0C0C3F00C4
:1050C0001E33301C06333F001E33301C30331E00AD
:1050D000383C36337F3078003F031F3030331E00BA
:1050E0001C06031F33331E003F3330180C0C0C001A
:1050F0001E33331E33331E001E33333E30180E0072
:10510000000C0C00000C0C00000C0C00000C0C0639
:10511000180C0603060C180000003F00003F0000BA
:10512000060C1830180C06001E3330180C000C004A
:105130003E637B7B7B031E000C1E33333F33330007
:105140003F66663E66663F003C66030303663C00BE
:105150001F36666666361F007F46161E16467F009F
:105160007F46161E16060F003C66030373667C001E
:105170003333333F333333001E0C0C0C0C0C1E0046
:105180007830303033331E006766361E366667006F
:105190000F06060646667F0063777F7F6B636300BA
:1051A00063676F7B736363001C36636363361C0045
:1051B0003F66663E06060F001E3333333B1E380043
:1051C0003F66663E366667001E33070E38331E00A4
:1051D0003F2D0C0C0C0C1E003333333333333F00A4
:1051E00033333333331E0C006363636B7F776300A9
:1051F0006363361C1C3663003333331E0C0C1E00F5
:105200007F6331184C667F001E06060606061E00E8
:1052100003060C18306040001E18181818181E00DD
:10522000081C36630000000000000000000000FFC2
:105230000C0C18000000000000001E303E336E0011
:105240000706063E66663B0000001E3303331E0061
:105250003830303E33336E0000001E333F031E00F3
:105260001C36060F06060F0000006E33333E301F5B
:105270000706366E666667000C000E0C0C0C1E00EE
:10528000300030303033331E070666361E36670076
:105290000E0C0C0C0C0C1E000000337F7F6B6300A7
:1052A00000001F333333330000001E3333331E003E
:1052B00000003B66663E060F00006E33333E3078DA
:1052C00000003B6E66060F0000003E031E301F000C
:1052D000080C3E0C0C2C18000000333333336E00E6
:1052E00000003333331E0C000000636B7F7F3600F9
:1052F000000063361C36630000003333333E301F3A
:1053000000003F190C263F00380C0C070C0C38002D
:105310001818180018181800070C0C380C0C070087
:105320006E3B0000000000000000000000000000D4
:105330000000000000000000010203040607080945
:10534000000000000102030401020304060708092B
:1053500000000000B44E0000D44E0000944E000047
:10536000000000000000000000000000000000003D
:10537000000000000000000000000000000000002D
:10538000000000000000000000000000000000001D
:10539000000000000000000000000000000000000D
:1053A00000000000000000000000000000000000FD
:1053B00000D8B80502040608000F002020040020D1
:1053C000020100000000000080060002000004004E
:1053D000800600010000120080060003090404009A
:1053E00000050000000000000009000000000000AF
:1053F00081060022000000002109000200000100D7
:10540000210A00000000000023010000000000004D
:10541000A006002900000200A30000000000040014
:105420002303000000000000200400200000000012
:00000001FF
