:100000006F00D02E1300000013000000130000004A
:100010001300000013000000130000001300000094
:100020001300000013000000130000001300000084
:08003000130000007300100032
:100038000000000000000000480200004C02000020
:1000480000000000840A000000000000000000001A
:10005800860A0000880A0000000000000000000076
:100068008A0A0000000000008C0A0000000000005E
:100078008E0A0000900A0000920A0000940A00000C
:10008800960A0000980A00009A0A00009C0A0000DC
:100098009E0A0000A00A0000A20A0000A40A0000AC
:1000A800A60A0000A80A0000AA0A0000AC0A00007C
:1000B800AE0A0000B00A0000B20A0000B40A00004C
:1000C800B60A0000B80A0000BA0A0000BC0A00001C
:1000D800BE0A0000C00A0000C20A0000C40A0000EC
:1000E800C60A0000C80A0000CA0A0000CC0A0000BC
:1000F800CE0A0000D00A0000D20A0000D40A00008C
:10010800D60A0000D80A0000DA0A0000DC0A00005B
:10011800DE0A0000E00A0000E20A0000E40A00002B
:10012800E60A0000E80A0000EA0A000000000000F1
:080138000000000000000000BF
:10014000397101436EC619A0397141536AC866CA34
:1001500062CC5ECE19A0397101535AD056D252D416
:100160004ED64AD826DA22DC06DE3301614082828E
:1001700041114AC026C222C406C68282B24D410144
:10018000024D924C224CB24B4101024B924A224A00
:10019000B2494101024992442244B2404101828065
:1001A0003D432A876373C3029377F700BDEFADE544
:1001B000937606FF3D8ABA960CC34CC30CC74CC756
:1001C0004107E36BD7FE11E28280B306C3408A0683
:1001D0009702000096966780A6002307B700A30643
:1001E000B7002306B700A305B7002305B700A30493
:1001F000B7002304B700A303B7002303B700A3028B
:10020000B7002302B700A301B7002301B700A30082
:10021000B7002300B700828093F5F50F9396850011
:10022000D58D93960501D58D61B7939627009702DA
:10023000000096968682E78086FA9680C1171D8F09
:100240003E96E374C3F8A5B77300203001A0EFF227
:100250003FF2AA84371501408565130505C0374470
:100260000040EF0070211309048089454A85EF00A2
:10027000B03765DDA68513050480EF00B03605456F
:10028000EF00F047371501408565130505C0EF0005
:10029000701D09B7EFF2DFED2A8421814D3F137500
:1002A000F40F7537C5BDEFF2BFEC37140140AA84D7
:1002B00093050040130504C0EF00101C2685413F44
:1002C00093050040130504C0EF00D019E1B5EFF22B
:1002D0003FEA41112A841305A00236C22EC632C459
:1002E000D9372285453F224632856D371305B00246
:1002F0005D3FB2452E85793F92463685613F1305B5
:10030000C0025537410179B5EFF29FE601118545ED
:10031000214502C002C202C402C602C802CA02CCFF
:10032000231E0100EF00D02285451165EF00302427
:10033000096937140140930709C08D447C808A8580
:10034000C147130504C03EC426C2EF0090028A854F
:1003500023102101130504C061494AC426C2EF00DD
:10036000500191677C808A859147130504C03EC483
:10037000EF003000E1778A85130504C07C804AC411
:1003800026C2EF00007FB7C704013EC6B7070200D0
:100390003EC8B70700028507374400403ECAA14760
:1003A0003ECC6C009D4713050480FC86EF00101EB8
:1003B000130504808545EF00502101450561D9BB37
:1003C000EFF29FD8B28A368A7D16FD16C206420623
:1003D000C18241823A8BAA8BAE84D53D371501404C
:1003E0008565130505C037440040EF00F0089359B8
:1003F0008B001304048063E64405371501408565CE
:10040000130505C0EF001006A5BB89452285EF0046
:10041000B01D65DDCE852285EF00D01C8945228583
:10042000EF00901C65DD0509DA8522854209EF00A1
:10043000701B13590901E36A59FD8504C204C18088
:100440005DBF5E89CDBFEFF2BFD27D3D1305400693
:10045000EF00502E37140140856593850580130504
:1004600004C0EF00300013054006EF00B02C9305E8
:100470000020130504C0EF00E07E13054006EF00E6
:10048000702B45450D3513058007EF00B02A130585
:100490006003113D0145653B1305A0032935154552
:1004A0007D331305200B0135314555333145453337
:1004B0000145713B13053003593B13053003413BA4
:1004C0001305700BCD331305500351331305B00BD7
:1004D000D93B13052003A53B1305200CE933054543
:1004E000BD331305300CC133554595331305400C0E
:1004F0005D3B13050002A13B1305600C6D333D45C8
:10050000B9331305000D45331305400A893313052C
:10051000100A353B1305000E79331305000D053B1A
:1005200021453533394525332545153325450533D3
:100530001545313B13051003193B13053003013BEF
:100540001305800429335D45193351450933554559
:10055000FD3913051003E53913054003CD391305A3
:10056000100E91331305000DDD312145CD31394594
:10057000F9392545E9392545D9395545C93913058D
:100580001003F13113053003D93113058004C13153
:100590005D45753951456539554555391305100384
:1005A0007D3113054003653113051002ED39130544
:1005B0009002D53913054006EF00D0170147930686
:1005C000000F1306000F81450145DD3B0145D9B6FB
:1005D000EFF21FB7131D0701135D0D0142054181A5
:1005E00093141D00AA94C204C180330B9D00420BDA
:1005F000135B0B01B30A6D01C20A93DA0A01330AD5
:100600005D01420A135A0A01B3094D01C2093707B5
:10061000002039719307070093D90901B30B3D01FD
:1006200013193D006A953EDA93970501C20B420902
:1006300013140501C183139C060132C693DB0B0121
:1006400013590901418002C43EDC135C0C013245A0
:10065000EF00B020A24763E4A700216105B633078D
:100660009D0093170701C18333076D013EC893179F
:100670000701C18333075D013ECA93170701C18398
:1006800033074D013ECC93170701C1833387A9017E
:100690003ECE93170701C1833387AB013ED093173A
:1006A0000701C1833ED42247B247E25D3E9703076C
:1006B0000700D2570E07BA973EC2B70700209387AC
:1006C0008700BA973307A4413ED293170701C1832D
:1006D00033078D003ED693170701C1833ED892475A
:1006E000838C070013F71C0011CBB306BD013255F4
:1006F000C2066287C1822286EE85D93113F72C00AB
:1007000011CBB306BD014256C2066287C182EE8597
:1007100022857D3113F74C0011CBB306BD01424653
:10072000C2066287C182EE852685593913F78C008F
:1007300011CBB306BD015246C2066287C182EE8567
:100740005A85BD3913F70C0111CBB306BD016246C2
:10075000C2066287C182EE8556859D3113F70C0271
:1007600011CBB306BD017246C2066287C182EE8517
:100770005285B93113F70C04B308BD0119CB0256E9
:10078000939608016287C182EE854E8546DE0D395B
:10079000F25863DA0C002256939608016287C182F0
:1007A000EE855E853139924712573308BD018507C2
:1007B000931D08013EC293DD0D01E392E7F2A247CB
:1007C000CA9BCA994A9ACA9A4A9BCA944A9485076C
:1007D000C20BC209420AC20A420BC20442043EC40E
:1007E00093DB0B0193D90901135A0A0193DA0A0129
:1007F000135B0B01C180418099BDEFF2FF940111A1
:10080000094502C602C802CA02CC02CE4121D9253E
:10081000130540060527716513050520B927370420
:100820000020832504483725000013054510EF00FC
:10083000E07E752A832504483725000013054511FD
:10084000EF00C07D6800B121B245372500001305D7
:100850004512EF00A07CC245372500001305C513E3
:10086000EF00C07BD2453725000013050515EF00CA
:10087000E07AE2453725000013058516EF00007A7F
:10088000D93601479306000F1306000F8145014535
:10089000416A3D3605498549930450033144930A22
:1008A000F002130BF00D7D1AB72B00001315040195
:1008B000939504014181C181938605011306050CBE
:1008C000C20642060147C1824182DD3C63D38A00F1
:1008D000FD5963449B026343800085496343900054
:1008E00005494E94CA9422850947D28613860B186F
:1008F000A685F93915453D2D55BF634380008549CF
:100900007D59C5B7B71702409843B706FFF84111A4
:100910001367170098C3D84337060200758FD8C3F2
:100920009843B706F7FEFD16758F98C39843B70630
:10093000FCFFFD16758F98C3D843B70681FFFD16DF
:10094000758FD8C337079F0098C702C402C6984363
:10095000C166558F98C3B716024005679C42F18F58
:100960003EC6A24785073EC4B24781E7A247E39748
:10097000E7FEB71702409C431397E700635707064B
:1009800085473EC632478547631FF704B7170240C5
:10099000D843B706C1FFFD16D8C3D843D8C3D84340
:1009A00013670740D8C3D843758FD8C3D843B70659
:1009B0002900558FD8C39843B7060001558F98C3B7
:1009C000984393166700E3DD06FED843B71602404E
:1009D000719BD8C3D84313672700D8C32147DC4293
:1009E000B18BE39EE7FE4101828002C661BFB7166C
:1009F0000240DC42370700201146B18B130707483D
:100A00006385C70021466388C702B7177A009387BA
:100A100007201CC3B7170240DC43918393F6F7000D
:100A2000B707002093870740B69794231C43B3D79A
:100A3000D7001CC38280DC42D4424166C983BD8B8F
:100A4000F18E890745466393C700C94781EEB746D3
:100A5000024083A60680C18A89CEB7167A009386A3
:100A6000062021A8B7160240D4421396E600E356AA
:100A700006FEB7163D0093860690B387D70251BF96
:100A800001A001A001A001A001A001A001A001A05E
:100A900001A001A001A001A001A001A001A001A04E
:100AA00001A001A001A001A001A001A001A001A03E
:100AB00001A001A001A001A001A001A001A001A02E
:100AC00001A001A001A001A001A001A001A001A01E
:100AD00001A001A001A001A001A001A001A001A00E
:100AE00001A001A001A001A001A001A09701002088
:100AF00093814119174100201301C15017150000BF
:100B00001305057397F5FF1F9385C54F13868181E4
:100B100063FAC5008322050023A055001105910545
:100B2000E3EAC5FE13858181938501836377B50070
:100B3000232005001105E36DB5FEFD42739002BC54
:100B40008D42739042809302800873A0023097F226
:100B5000FFFF9382A24E93E2320073905230EFF087
:100B60007FDA97020000938282C973901234730077
:100B700020309C4513F7070113F8F70001C7D8414F
:100B80003368E80037270240145B3707000F758F82
:100B90004DEB8546238CD180371701406315E50066
:100BA0009A2135839AA18E2113F7F50F39C3184185
:100BB0008146854E3D4F930F800293028004214E63
:100BC0003396DE00B3F8C500631116039398260030
:100BD00033131F011343F3FF3377E300B3181801F6
:100BE00033E7E8006397F70750C98506E39AC6FD27
:100BF00018C11307F00F6375B70454412146854EA1
:100C00003D4F930F800293028004414EB398CE0073
:100C100033F715016392E802131726000117331307
:100C2000EF001343F3FFB376D3003317E800D98EF8
:100C30006395F703232A15010506E319C6FD54C180
:100C4000828037170140E310E5F603C7818121DF79
:100C500081BFE39C57F810C949BFE39F57FC232885
:100C60001501D9BFB71701406316F50083C781810D
:100C700091C3B5810CC98280B71701406316F50096
:100C800083C7818191C3B5814CC9828023AEA18085
:100C90008280371702405C439146B18B6385D70051
:100CA000A1466382D706B7177A00938707201CC135
:100CB000371602405C423707002013070741918333
:100CC000BD8BBA9794231C41B3D7D7005CC1544263
:100CD000A1829D8ABA969422B3D6D70014C55442F5
:100CE000AD829D8A36971823B3D7E7005CC558427A
:100CF0003983937637001387418036971823B3D70B
:100D0000E7021CC982805C435843C166C983BD8B1E
:100D1000758F8907C5466393D700C94701EF3747E9
:100D2000024003270780418B09CF37177A0013074A
:100D3000072021A83717024058439316E700E3D64F
:100D400006FE37173D0013070790B387E70285B704
:100D500099C5371702401C4F5D8D08CF8280B717A9
:100D60000240984F1345F5FF798D88CF828099C551
:100D7000371702405C4F5D8D48CF8280B717024025
:100D8000D84F1345F5FF798DC8CF82801A218D6722
:100D900093870704B6217D8F9E21D58FD621D58FCD
:100DA000F621D58F9625D58FB625D58FD625D58F0B
:100DB000F625D58FD98F1EA15A2DFD779387F77F02
:100DC000F98F5EAD9E291EA982801E2189C593E7F9
:100DD00007041EA18280C207C18393F7F7FBC207F5
:100DE000C183C5BF4EA582800A256D8D3335A00015
:100DF0008280EFF2EFB71629F577FD17F58FF62110
:100E0000DA257971D58F1EA95625FD779387379FEF
:100E1000F58FD6212A842EC6D58F9625D58FB62557
:100E2000D58F5EA55E29C207C18393F7F7CFD98F0F
:100E30005EA96808B93DB747014093870780B2456E
:100E4000631AF404A25756246547B387E702C20623
:100E5000C186984163D20604060752244206B3D7DE
:100E6000E702130740064186B3D6E702B3F7E7026D
:100E70009206635506028E0793872703B3D7E702CE
:100E800013F77700B367D700C207C1831EA445617B
:100E90006FF04FB0925745BF0A07C1B792079387CB
:100EA0002703B3D7E702BD8BD58FF9BF91C55E2568
:100EB0000967D98F5EA582805A25F977FD17F98FCA
:100EC000D5BF93F5F51F4EA182800A216D8D333574
:100ED000A0008280B707002083A7074837177A0051
:100EE00013070720B3D7E70293F7F70F2381F182A7
:100EF0001307803EB387E7022390F1828280B7F721
:100F000000E0D8438146799BD8C303C721823306CA
:100F1000A70290CBD4CB98431367070198C398439B
:100F20001367170298C3D843058B75DF9843799BE5
:100F300098C38280B7F700E0D8438146799BD8C335
:100F400003D701823306A70290CBD4CB9843136713
:100F5000070198C398431367170298C3D843058BBA
:100F600075DF9843799B98C38280EFF26FA02A8443
:100F70001165011185451105E13B930700207C8235
:100F8000371501408D473EC44C00E14713050580ED
:100F90003EC6C53622C837440140B70708000C08D2
:100FA000130504803ECC02CA231E010099358545F5
:100FB00013050480E53D05616FF0CF9DEFF2AF9919
:100FC000B7440140AE89328901449384048063456B
:100FD00024014A856FF06F9B930500042685F53543
:100FE00065DDB38789008385070026850504C20572
:100FF000C181C13DE9BF138781801C439386018372
:101000003E95636BD500B75600209386068063E556
:10101000A60008C33E858280FD57EDBF39713EDAD8
:101020002ED232D436D63AD842DC46DE9387C180FF
:1010300022CC804326CA06CEAA8409C41C4C99E35C
:101040002285C5200C4454102686228536C6AD2E36
:10105000F2406244D24421618280AA87850703C797
:10106000F7FF6DFF3385A7407D158280411122C4B3
:1010700006C62A844EA572A523200500232205005A
:10108000232405002322050623280500232A050022
:10109000232C0500214681451305C505EFF04F902F
:1010A00097170000938767985CD097170000938785
:1010B000879A1CD4971700009387679E5CD4971774
:1010C00000009387C7A000D01CD8B2402244410141
:1010D000828097150000938505D4A9A2411126C2EC
:1010E000130680069384F5FFB384C4024AC02E8998
:1010F00022C406C693854407592A2A8401CD232099
:10110000050023222501310508C413868406814584
:10111000EFF00F892285B2402244924402494101F6
:1011200082801C4DADE3411106C622C49707000022
:10113000938767FA1CD5938701819C432324050478
:1011400023260504232805046314F50085471CCDD8
:101150002A841D2848C02285052808C422852D2000
:1011600048C4484001469145113708440546A54505
:10117000F53D48440946C945D53D85471CCCB2409C
:10118000224441018280828041119387018126C2DD
:1011900084434AC006C69C4C22C42A8999E326850A
:1011A0004937938484048044DC40FD1763D60700EC
:1011B0009C40B9CF8440C5BF0317C40039E7C1774D
:1011C000850723220406232004002322040023246D
:1011D00004005CC423280400232A0400232C0400F8
:1011E000214681451305C405EFE09FFB232A040235
:1011F000232C040223240404232604042285B24061
:10120000224492440249410182801304840671BF42
:1012100091454A85E13588C051FDB1472320F90049
:101220000144E9BF797122D44AD052CC56CA5AC877
:101230005EC606D626D24ECE2A8AAE8A130485040E
:101240000149054BFD5B09ECB25022544A8592548A
:101250000259F249624AD24A424BB24B45618280FE
:10126000044483294400FD1963D409000040E1BF10
:10127000DE24637BFB008397E40063877701A68508
:101280005285829A3369A90093848406E9BF0111CB
:1012900026CA93843500F19806CE22CC4AC84EC6A1
:1012A000A104B14763F3F404B14463E2B4042A89AE
:1012B000EF00304F9387418298433A8439E0938717
:1012C00081829C4391E781454A850D2F23A4A18209
:1012D000A6854A852527FD5963193507B14723207F
:1012E000F9004A85EF00104C29A0E3D004FCB14777
:1012F0001CC10145F2406244D2444249B2490561F1
:1013000082801C40858F63CF0702AD4663F6F600EE
:101310001CC03E9404C031A05C406313870223A22A
:10132000F1824A85EF0010481305B400930744008A
:1013300061993307F5405DDF3A94898F1CC05DBF2A
:101340005CC3C5B72287404095BF13043500719830
:10135000E30285FCB305A4404A854D25E31C35FB1B
:10136000B5BF1C46FD171CC663D90700184E63C5E0
:10137000E700A9476393F500A1AF1C422E851387B0
:10138000170018C28CA38280011122CC26CA4AC839
:101390004EC652C406CE2A89AE893284B304D60022
:1013A0007D5A63149400014501A80C204E864A859D
:1013B0004D3F0504E31745FFF2406244D2444249E1
:1013C000B249224A05618280357122CD26CB4AC9B5
:1013D0004EC706CF52C556C35AC1DEDEE2DCE6DA9E
:1013E000AA89AE843289368401C51C4D91E3153B30
:1013F00097170000938707DC6398F40C83A44900D7
:10140000DE24A18BE5C79C48F5C393070002A30423
:10141000F1029307000302D22305F10222C6930BC7
:101420005002971A0000938AEADC054C294B4A8443
:101430001C2099C3639E770DB30C2441638D0C006F
:10144000E6864A86A6854E858137FD576301F51EDF
:101450009256E69636D21C20638B071CFD57130963
:10146000140002C802CE3ECA02CCA309010482D4F1
:101470008345090015465685EF00303113041900E5
:10148000C24749E913F7070109C713070002A30977
:10149000E10413F7870009C71307B002A309E104A9
:1014A000834609001307A002638EE606F2474A84CA
:1014B00081462546182093051400130707FD63761F
:1014C000E60AADCA3ECEBDA097170000938787D02D
:1014D0006395F40083A4890025B7971700009387CC
:1014E00067CBE39FF4F083A4C90019BFA6854E859E
:1014F000F12501DD7D55FA406A44DA444A49BA498A
:101500002A4A9A4A0A4BF65B665CD65C0D61828079
:10151000050439BF330555413315AC00C98F3EC8AA
:101520002289B9B7324793064700184336C6634746
:1015300007023ACE18209307E002631DF704183023
:101540009307A002631BF702B24709041387470001
:101550009C433AC663C107023ECA2DA83307E04048
:1015600093E727003ACE3EC8F1B7B38767038546B5
:101570002E84BA9781B7FD57C5B7050402CA8146C4
:1015800081472546182093051400130707FD63764D
:10159000E606F9F20C200D4617150000130505C6E6
:1015A000EF00B01E11CD97170000938727C51D8D42
:1015B00093070004B397A700424505045D8D2AC830
:1015C0000C20194617150000130585C313091400D4
:1015D0002304B102EF00701B35C197F7FFFF93871B
:1015E00067A295E74247B2471377071009CF9107E3
:1015F0003EC69257D2973ED21DBDB387670385463C
:101600002E84BA9741B79D07E19BA107D5B7780013
:1016100097060000938686D726860C084E8597008D
:101620000000E7000000FD572A8AE314F5FCDE24E1
:1016300093F70704E39007EC125575BD7800970601
:1016400000009386A6D426860C084E85012AE1BFA9
:10165000797156CA9C49BA8A984522D426D24ECE70
:1016600052CC06D64AD05AC85EC6AA892E84B28405
:10167000368A63D3E700BA879CC00347340419C392
:1016800085079CC01C4093F7070281C79C408907CF
:101690009CC00329040013796900631A0900130B25
:1016A0009401FD5B5C449840998F634CF9041C40A5
:1016B0008346340493F70702B336D000A5EB130634
:1016C0003404D2854E85829AFD576303F5041C408D
:1016D00011469840998B544481446397C700B38462
:1016E000E64063D3040081441C4418486354F70067
:1016F000998FBE94014969047D5B63982405014577
:1017000009A885465A86D2854E85829A631E750140
:101710007D55B250225492540259F249624AD24A3B
:10172000424BB24B456182800509ADBF3307D400FF
:1017300013060003A301C70403475404938716004C
:10174000A2978906A381E7049DBF85462286D2859C
:101750004E85829AE30E65FB050945B7797122D45F
:1017600026D24AD04ECE06D652CC56CA5AC8B689D0
:10177000942D930790063289AA842E84138635040B
:10178000638DF60263E2D706930780056385F6183A
:1017900063EDD700638D062093073004638EF60A4D
:1017A000930A24042301D404C9A093073006638557
:1017B000F60A93074006E395F6FE1C40084393F6AD
:1017C000070893054500C5C61C410CC363D8070034
:1017D0001307D002B307F040A301E40497160000FA
:1017E000938686A2294765A8930700076381F616AA
:1017F00063E5D7029307E0066388F6189307F006BF
:10180000E390F6FA0C401C4313F8050813854700D3
:101810006307080608C39C4385A893075007E38322
:10182000F6FE930780076388F61293073007E39963
:10183000F6F61C43D04181459386470014C383AA22
:1018400007005685992701C53305554148C05C40BE
:101850001CC8A301040461A81C43930A24049386B2
:1018600047009C4314C32301F4048547D5B793F67E
:1018700007041C410CC3B9DAC207C18781BF93F5C5
:10188000050408C3C9D99E231307F0066386E60E34
:1018900097160000938646972947A30104044C40FD
:1018A0000CC463C5050008406D9908C099E3B28A6D
:1018B00089CDB28AB3F5E702FD1AB6958C21238053
:1018C000BA00B3D5E70263FFE70AA147631EF7003A
:1018D0001C40858B91CB58401C4863C7E700930799
:1018E0000003A38FFAFEFD1A3306564110C84E8737
:1018F000CA867000A2852685A13B7D5A631D450BD3
:101900007D55B250225492540259F249624AD24A49
:10191000424B45618280A382D504971600009386CE
:10192000A68E0C40084313F805081C411105630DF1
:10193000080208C313F7150001C793E505020CC0A0
:101940004147A1FF0C4093F5F5FD0CC0B9B79C4190
:1019500093E707029CC193078007A302F40497163C
:1019600000009386A68B75BF13F8050408C3E30334
:1019700008FCC207C1837DBF971600009386C68806
:10198000214721BFAE873DB794411C43CC4913F892
:101990000608138547006306080008C39C438CC3F0
:1019A00039A008C393F606049C43F5DA8EA32328D6
:1019B0000400B28A2DBF14485686CA8526858299AE
:1019C000E30045F51C40898B8DE7B2474844E35A54
:1019D000F5F23E853DB785465686CA8526858299AD
:1019E000E30065F3050A5C443247998FE345FAFE4C
:1019F000E9BF014A930A94017D5BF5B7411122C406
:101A00002A842E8523A6018206C6EFF0CFDEFD577D
:101A10006317F5009387C1829C4391C31CC0B240F9
:101A2000224441018280411122C42E848395E50025
:101A300006C6212D634905007C48AA977CC8B240A0
:101A40002244410182805E247D777D17F98F5EA458
:101A5000FDB7DE25011122CC26CA4AC84EC606CEE5
:101A600093F70710AA842E843289B68991C783958B
:101A7000E5008946014609215E247D777D17F98FAF
:101A80005EA48315E4006244F240CE864A86B249E1
:101A900042492685D2440561DDA8411122C42E8425
:101AA0008395E50006C6C92EFD575A24631AF50032
:101AB000FD77FD17F98F5EA4B24022444101828078
:101AC0008567D98F5EA468C8C5BF8395E500F5A278
:101AD000011122CC26CA4AC806CE4EC6AA842E8937
:101AE000328409C51C4D99E3EFF0AFE3970700007E
:101AF0009387476C6317F406C0401C4C1CC45E24DB
:101B0000A18BC1C31C48B5CF1C4808409379F90F7D
:101B10001379F90F1D8D5C486346F500A285268573
:101B2000CD2C25E51C440505FD171CC41C4013875E
:101B3000170018C0238037015C486388A7005E2423
:101B4000858B81CBA9476316F900A2852685D12410
:101B50000DEDF24062444A85D2444249B2490561E2
:101B60008280970700009387E7666314F40080443F
:101B700069B7970700009387E761E310F4F8C04462
:101B8000ADBFA28526851D2841D17D59D9B7411108
:101B900022C42A842E85B285368623A6018206C6F3
:101BA000EFF0CFC1FD576317F5009387C1829C43C7
:101BB00091C31CC0B24022444101828041119387ED
:101BC000C18026C2844322C44AC006C62A892E8404
:101BD00091C49C4C81E72685EFF0AFD497070000B5
:101BE0009387475D631BF402C0400317C40093173B
:101BF0000701C18393F68700ADEA93F6070195EEDE
:101C0000A5472320F900136707045AA47D55B24065
:101C10002244924402494101828097070000938741
:101C2000675B6314F4008044C9B79707000093878B
:101C30006756E31CF4FAC0444DBF918B9DC34C58CA
:101C400089C9930744046384F5004A85A92E232A91
:101C500004025E242322040093F7B7FD5EA41C480F
:101C60001CC05E2493E787005EA41C4899EB5E24A9
:101C70001307002093F707286385E700A2854A85AC
:101C8000AD2C5E2413F717001DC35C482324040009
:101C9000B307F0401CCC1C480145B5FB8317C400BA
:101CA00013F707082DD793E707045EA485B7898B40
:101CB000014791E3584818C4F9BF411122C42A844E
:101CC0002E8523A6018206C60121FD576317F50064
:101CD0009387C1829C4391C31CC0B24022444101FE
:101CE0008280DE25011122CC26CA06CE4AC84EC605
:101CF00013F78700AA842E8479EBD841634DE00066
:101D0000B841634AE0000145F2406244D24442498E
:101D1000B2490561828058547DD703A90400939687
:101D2000370123A0040063DB060670485E24918B14
:101D300099C75C401D8E5C5899C33C401D8E5C5415
:101D40000C50814626858297FD575A24631DF50065
:101D50009440F54763E8D706B70740208507B3D717
:101D6000D700858BA5C31C48232204001CC09317F1
:101D7000370163D80700FD576314F5009C4091E3D9
:101D800068C84C5823A02401BDDD93074404638434
:101D9000F5002685092C232A0402B5B70C5001460C
:101DA000854626850297FD572A86E311F5F89C4063
:101DB000B5DF75476385E70059476393E70423A0C0
:101DC000240191B7136707045AA47D5535BF83A931
:101DD0000501E38A09F203A905008D8B23A03501D3
:101DE00033093941014791E3D84918C4E35D20F133
:101DF0001C540C50CA864E86268582976347A000E5
:101E00005E2493E707045EA4C9B7AA993309A940E1
:101E1000F1BF9C49A5C3011122CC06CE2A8419C565
:101E20001C4D89E72EC6EFF0CFAFB24597070000F3
:101E300093874738639BF5004C408397C50095C74F
:101E400022856244F240056169BD970700009387CF
:101E500067386394F5000C44CDB79707000093876B
:101E60006733E39CF5FC4C44C9BFF2406244014532
:101E70000561828001458280411122C42A842E8519
:101E8000B285368623A6018206C68D24FD576317C8
:101E9000F5009387C1829C4391C31CC0B240224489
:101EA000410182801971A6DAAE848395E500A2DC37
:101EB00086DE328463DB0500DE2423A0060093F770
:101EC00007089DE39307004015A0300836C6652239
:101ED000B246E34305FE7247BD67F98F7977BA973B
:101EE00093B717009CC2F9BF930700041CC0F650BB
:101EF0006654D654014509618280DE25011122CC49
:101F000006CE26CA4AC8898B2E8489CF93077404CB
:101F10001CC01CC885475CC8F2406244D244424998
:101F20000561828074003000AA84AD3FA2452A89F1
:101F30002685EFF0CFB519E98317C40013F7072002
:101F400061FFF19B93E727005EA4C9B797F7FFFFF6
:101F5000938767189CD45E2408C008C893E70708D5
:101F60005EA4A2475CC8B24799CB8315E4002685DE
:101F7000052A11C55E24F19B93E717005EA45E2439
:101F80003369F9002316240141BF93F5F50F2A9612
:101F90006314C500014582801C21E38EB7FE050550
:101FA000C5BF82808280CDC183A7C5FF411122C4F5
:101FB00006C626C21384C5FF63D307003E94AA84D5
:101FC000CD37938741829C4399EB2322040023A2BF
:101FD00081822244B240268592444101E1B7637E6A
:101FE000F40014403307D4006396E7009843DC43C1
:101FF000369718C05CC0E1BFBA87D84319C3E37DE8
:10200000E4FE94433386D700631F86001040B296E7
:1020100094C33386D700E31EC7FA10435843B296E1
:1020200094C3D8C37DB76375C400B1479CC055B78E
:102030001040B306C4006316D70014435843B29649
:1020400014C058C0C0C371B78280411122C42A8411
:102050002E85B285368623A6018206C67128FD57D5
:102060006317F5009387C1829C4391C31CC0B240A3
:10207000224441018280411122C42A842E85B285E6
:1020800023A6018206C6B920FD576317F500938782
:10209000C1829C4391C31CC0B24022444101828052
:1020A000411122C42A842E8523A6018206C60D284A
:1020B000FD576317F5009387C1829C4391C31CC0F1
:1020C000B2402244410182809307800523A6F18219
:1020D0007D5582809307800523A6F1827D558280FD
:1020E0009307800523A6F18201458280930780052E
:1020F00023A6F1827D5582809307800523A6F18275
:102100007D55828053797374656D436C6B3A256C91
:10211000640D0A0053797374656D436C6B3A2564E2
:102120000D0A0000535953434C4B5F46726571755D
:10213000656E63792D25640D0A00000048434C4B01
:102140005F4672657175656E63792D25640D0A00B1
:1021500050434C4B315F4672657175656E63792DE6
:1021600025640D0A0000000050434C4B325F46725C
:10217000657175656E63792D25640D0A0000000098
:1021800048656C6C6F20576F726C64210000000012
:10219000000000000000000000000000000000003F
:1021A000000000000000000000000000000000002F
:1021B000000000000000000000000000000000001F
:1021C000000000000000000000000000000000000F
:1021D00000000000000000000000000000000000FF
:1021E00000000000000000000000000000000000EF
:1021F000232D302B20000000686C4C00656667457D
:1022000046470000303132333435363738394142B1
:102210004344454600000000303132333435363710
:0C222000383961626364656600000000EC
:10222C0000000000000000000000000000000000A2
:10223C000000000000000000000000000000000092
:10224C000000000000000000000000000000000082
:10225C000000000000000000000000000000000072
:10226C000000000000000000000000000000000062
:10227C000000000000000000000000000000000052
:10228C000000000000000000000000000000000042
:10229C000000000000000000000000000000000032
:1022AC000000000000000000000000000000000022
:1022BC000000000000000000000000000000000012
:1022CC000000000000000000000000000000000002
:1022DC0000000000000000000000000000000000F2
:1022EC0000000000000000000000000000000000E2
:1022FC0000000000000000000000000000000000D2
:10230C0000000000000000000000000000000000C1
:10231C0000000000000000000000000000000000B1
:10232C000000000000000000183C3C1818001800C9
:10233C00363600000000000036367F367F36360019
:10234C000C3E031E301F0C00006333180C66630038
:10235C001C361C6E3B336E000606030000000000AA
:10236C00180C0606060C1800060C1818180C06009B
:10237C0000663CFF3C660000000C0C3F0C0C00009F
:10238C0000000000000C0C060000003F00000000E4
:10239C0000000000000C0C006030180C060301005B
:1023AC003E63737B6F673E000C0E0C0C0C0C3F00F5
:1023BC001E33301C06333F001E33301C30331E00DE
:1023CC00383C36337F3078003F031F3030331E00EB
:1023DC001C06031F33331E003F3330180C0C0C004B
:1023EC001E33331E33331E001E33333E30180E00A3
:1023FC00000C0C00000C0C00000C0C00000C0C066B
:10240C00180C0603060C180000003F00003F0000EB
:10241C00060C1830180C06001E3330180C000C007B
:10242C003E637B7B7B031E000C1E33333F33330038
:10243C003F66663E66663F003C66030303663C00EF
:10244C001F36666666361F007F46161E16467F00D0
:10245C007F46161E16060F003C66030373667C004F
:10246C003333333F333333001E0C0C0C0C0C1E0077
:10247C007830303033331E006766361E36666700A0
:10248C000F06060646667F0063777F7F6B636300EB
:10249C0063676F7B736363001C36636363361C0076
:1024AC003F66663E06060F001E3333333B1E380074
:1024BC003F66663E366667001E33070E38331E00D5
:1024CC003F2D0C0C0C0C1E003333333333333F00D5
:1024DC0033333333331E0C006363636B7F776300DA
:1024EC006363361C1C3663003333331E0C0C1E0026
:1024FC007F6331184C667F001E06060606061E001A
:10250C0003060C18306040001E18181818181E000E
:10251C00081C36630000000000000000000000FFF3
:10252C000C0C18000000000000001E303E336E0042
:10253C000706063E66663B0000001E3303331E0092
:10254C003830303E33336E0000001E333F031E0024
:10255C001C36060F06060F0000006E33333E301F8C
:10256C000706366E666667000C000E0C0C0C1E001F
:10257C00300030303033331E070666361E366700A7
:10258C000E0C0C0C0C0C1E000000337F7F6B6300D8
:10259C0000001F333333330000001E3333331E006F
:1025AC0000003B66663E060F00006E33333E30780B
:1025BC0000003B6E66060F0000003E031E301F003D
:1025CC00080C3E0C0C2C18000000333333336E0017
:1025DC0000003333331E0C000000636B7F7F36002A
:1025EC00000063361C36630000003333333E301F6B
:1025FC0000003F190C263F00380C0C070C0C38005F
:10260C001818180018181800070C0C380C0C0700B8
:10261C006E3B000000000000000000000000000005
:10262C000000000000000000010203040607080976
:10263C00000000000102030401020304060708095C
:10264C0000000000B0210000D0210000902100000B
:10265C00000000000000000000000000000000006E
:10266C00000000000000000000000000000000005E
:10267C00000000000000000000000000000000004E
:10268C00000000000000000000000000000000003E
:10269C00000000000000000000000000000000002E
:1026AC0000D8B80502040608B0040020200400205D
:0826BC002004002000000000D2
:00000001FF
